
/home/alonsgarpar/Escritorio/Particle/AG247/memo/memoriafeather/target/2.0.1/boron/memoriafeather.elf:     file format elf32-littlearm

Sections:
Idx Name          Size      VMA       LMA       File off  Algn
  0 .module_info  00000018  000d4000  000d4000  00004000  2**0
                  CONTENTS, ALLOC, LOAD, READONLY, DATA
  1 .dynalib      00000004  000d4018  000d4018  00004018  2**2
                  CONTENTS, ALLOC, LOAD, READONLY, DATA
  2 .text         00004584  000d401c  000d401c  0000401c  2**2
                  CONTENTS, ALLOC, LOAD, READONLY, CODE
  3 .backup       00000004  2003f400  000d85a0  0000f400  2**2
                  CONTENTS, ALLOC, LOAD, DATA
  4 .data         00000098  2003e39c  000d85a4  0001e39c  2**2
                  CONTENTS, ALLOC, LOAD, DATA
  5 .bss          000003bc  2003e438  2003e438  0002e438  2**3
                  ALLOC
  6 .module_info_suffix 00000028  000d863c  000d863c  0002863c  2**0
                  CONTENTS, ALLOC, LOAD, READONLY, DATA
  7 .module_info_crc 00000004  000d8664  000d8664  00028664  2**0
                  CONTENTS, ALLOC, LOAD, READONLY, DATA
  8 .debug_info   0019d607  00000000  00000000  00028668  2**0
                  CONTENTS, READONLY, DEBUGGING
  9 .debug_abbrev 0001a269  00000000  00000000  001c5c6f  2**0
                  CONTENTS, READONLY, DEBUGGING
 10 .debug_aranges 00002b30  00000000  00000000  001dfed8  2**0
                  CONTENTS, READONLY, DEBUGGING
 11 .debug_macro  0003d965  00000000  00000000  001e2a08  2**0
                  CONTENTS, READONLY, DEBUGGING
 12 .debug_line   00041865  00000000  00000000  0022036d  2**0
                  CONTENTS, READONLY, DEBUGGING
 13 .debug_str    0010b4b5  00000000  00000000  00261bd2  2**0
                  CONTENTS, READONLY, DEBUGGING
 14 .debug_loc    0002c72b  00000000  00000000  0036d087  2**0
                  CONTENTS, READONLY, DEBUGGING
 15 .debug_ranges 00007db0  00000000  00000000  003997b2  2**0
                  CONTENTS, READONLY, DEBUGGING
 16 .debug_frame  0000789c  00000000  00000000  003a1564  2**2
                  CONTENTS, READONLY, DEBUGGING

Disassembly of section .text:

000d401c <module_user_pre_init>:
/**
 * Initializes this user module. Returns the start of the heap.
 */
void* module_user_pre_init() {

    if ( (&link_global_data_start!=&link_global_data_initial_values) && (link_global_data_size != 0))
   d401c:	4809      	ldr	r0, [pc, #36]	; (d4044 <link_dynalib_end+0x28>)
   d401e:	490a      	ldr	r1, [pc, #40]	; (d4048 <link_dynalib_end+0x2c>)
   d4020:	4288      	cmp	r0, r1
void* module_user_pre_init() {
   d4022:	b508      	push	{r3, lr}
    if ( (&link_global_data_start!=&link_global_data_initial_values) && (link_global_data_size != 0))
   d4024:	d005      	beq.n	d4032 <module_user_pre_init+0x16>
   d4026:	4a09      	ldr	r2, [pc, #36]	; (d404c <link_dynalib_end+0x30>)
   d4028:	4282      	cmp	r2, r0
   d402a:	d002      	beq.n	d4032 <module_user_pre_init+0x16>
    {
        memcpy(&link_global_data_start, &link_global_data_initial_values, link_global_data_size);
   d402c:	1a12      	subs	r2, r2, r0
   d402e:	f003 fe89 	bl	d7d44 <memcpy>
    }

    memset(&link_bss_location, 0, link_bss_size );
   d4032:	4807      	ldr	r0, [pc, #28]	; (d4050 <link_dynalib_end+0x34>)
   d4034:	4a07      	ldr	r2, [pc, #28]	; (d4054 <link_dynalib_end+0x38>)
   d4036:	2100      	movs	r1, #0
   d4038:	1a12      	subs	r2, r2, r0
   d403a:	f003 fe91 	bl	d7d60 <memset>
    return &link_global_data_start;
}
   d403e:	4801      	ldr	r0, [pc, #4]	; (d4044 <link_dynalib_end+0x28>)
   d4040:	bd08      	pop	{r3, pc}
   d4042:	bf00      	nop
   d4044:	2003e39c 	.word	0x2003e39c
   d4048:	000d85a4 	.word	0x000d85a4
   d404c:	2003e434 	.word	0x2003e434
   d4050:	2003e438 	.word	0x2003e438
   d4054:	2003e7f4 	.word	0x2003e7f4

000d4058 <module_user_init>:
extern constructor_ptr_t link_constructors_location[];
extern constructor_ptr_t link_constructors_end;
#define link_constructors_size   ((unsigned long)&link_constructors_end  -  (unsigned long)&link_constructors_location )

void module_user_init()
{
   d4058:	b570      	push	{r4, r5, r6, lr}
    module_user_init_hook();

    // invoke constructors
    int ctor_num;
    for (ctor_num=0; ctor_num < link_constructors_size/sizeof(constructor_ptr_t); ctor_num++ )
   d405a:	4e07      	ldr	r6, [pc, #28]	; (d4078 <module_user_init+0x20>)
   d405c:	4c07      	ldr	r4, [pc, #28]	; (d407c <module_user_init+0x24>)
    module_user_init_hook();
   d405e:	f002 fa85 	bl	d656c <module_user_init_hook>
    for (ctor_num=0; ctor_num < link_constructors_size/sizeof(constructor_ptr_t); ctor_num++ )
   d4062:	1ba4      	subs	r4, r4, r6
   d4064:	08a4      	lsrs	r4, r4, #2
   d4066:	2500      	movs	r5, #0
   d4068:	42a5      	cmp	r5, r4
   d406a:	d100      	bne.n	d406e <module_user_init+0x16>
    {
        link_constructors_location[ctor_num]();
    }
}
   d406c:	bd70      	pop	{r4, r5, r6, pc}
        link_constructors_location[ctor_num]();
   d406e:	f856 3b04 	ldr.w	r3, [r6], #4
   d4072:	4798      	blx	r3
    for (ctor_num=0; ctor_num < link_constructors_size/sizeof(constructor_ptr_t); ctor_num++ )
   d4074:	3501      	adds	r5, #1
   d4076:	e7f7      	b.n	d4068 <module_user_init+0x10>
   d4078:	000d8574 	.word	0x000d8574
   d407c:	000d859c 	.word	0x000d859c

000d4080 <module_user_setup>:

/**
 * Export these functions with a fuller name so they don't clash with the setup/loop wrappers in the system module.
 */
void module_user_setup() {
    setup();
   d4080:	f000 ba8e 	b.w	d45a0 <setup>

000d4084 <module_user_loop>:
}

void module_user_loop() {
   d4084:	b508      	push	{r3, lr}
    loop();
   d4086:	f000 fb33 	bl	d46f0 <loop>
    _post_loop();
}
   d408a:	e8bd 4008 	ldmia.w	sp!, {r3, lr}
    _post_loop();
   d408e:	f002 ba2f 	b.w	d64f0 <_post_loop>

000d4092 <_Znwj>:
 * Implement C++ new/delete operators using the heap
 */

void *operator new(size_t size)
{
	return malloc(size);
   d4092:	f001 bf87 	b.w	d5fa4 <malloc>

000d4096 <_Znaj>:
   d4096:	f001 bf85 	b.w	d5fa4 <malloc>

000d409a <_ZdlPv>:
	return malloc(size);
}

void operator delete(void *p)
{
	free(p);
   d409a:	f001 bf8b 	b.w	d5fb4 <free>
	...

000d40a0 <__cxa_pure_virtual>:
char* strerror(int errnum) {
    return (char*)"";
}

/* Default implementation for call made to pure virtual function. */
void __cxa_pure_virtual() {
   d40a0:	b508      	push	{r3, lr}
  PANIC(PureVirtualCall,"Call on pure virtual");
   d40a2:	4a03      	ldr	r2, [pc, #12]	; (d40b0 <__cxa_pure_virtual+0x10>)
   d40a4:	2100      	movs	r1, #0
   d40a6:	200c      	movs	r0, #12
   d40a8:	f001 fec0 	bl	d5e2c <panic_>
  while (1);
   d40ac:	e7fe      	b.n	d40ac <__cxa_pure_virtual+0xc>
   d40ae:	bf00      	nop
   d40b0:	000d5d5d 	.word	0x000d5d5d

000d40b4 <__cxa_guard_acquire>:

/* Provide default implemenation for __cxa_guard_acquire() and
 * __cxa_guard_release(). Note: these must be revisited if a multitasking
 * OS is ported to this platform. */
__extension__ typedef int __guard __attribute__((mode (__DI__)));
int __cxa_guard_acquire(__guard *g) {return !*(char *)(g);};
   d40b4:	7800      	ldrb	r0, [r0, #0]
   d40b6:	fab0 f080 	clz	r0, r0
   d40ba:	0940      	lsrs	r0, r0, #5
   d40bc:	4770      	bx	lr

000d40be <__cxa_guard_release>:
void __cxa_guard_release (__guard *g) {*(char *)g = 1;};
   d40be:	2301      	movs	r3, #1
   d40c0:	7003      	strb	r3, [r0, #0]
   d40c2:	4770      	bx	lr

000d40c4 <_Z24movementInterruptHandlerv>:
  attachInterrupt(D8, movementInterruptHandler, CHANGE);
  return setupSuccess;
}

void movementInterruptHandler()
{
   d40c4:	b508      	push	{r3, lr}
  Serial.println("vbr");
   d40c6:	f002 f953 	bl	d6370 <_Z16_fetch_usbserialv>
   d40ca:	4903      	ldr	r1, [pc, #12]	; (d40d8 <_Z24movementInterruptHandlerv+0x14>)
   d40cc:	f002 fcb1 	bl	d6a32 <_ZN5Print7printlnEPKc>
  movementInterrupt = true;
   d40d0:	4b02      	ldr	r3, [pc, #8]	; (d40dc <_Z24movementInterruptHandlerv+0x18>)
   d40d2:	2201      	movs	r2, #1
   d40d4:	701a      	strb	r2, [r3, #0]
}
   d40d6:	bd08      	pop	{r3, pc}
   d40d8:	000d7f30 	.word	0x000d7f30
   d40dc:	2003e520 	.word	0x2003e520

000d40e0 <_ZN26estructuraDeDatosPrincipalD1Ev>:
struct estructuraDeDatosPrincipal
   d40e0:	b510      	push	{r4, lr}
   d40e2:	4604      	mov	r4, r0
   d40e4:	306c      	adds	r0, #108	; 0x6c
   d40e6:	f002 ffa1 	bl	d702c <_ZN6StringD1Ev>
   d40ea:	f104 005c 	add.w	r0, r4, #92	; 0x5c
   d40ee:	f002 ff9d 	bl	d702c <_ZN6StringD1Ev>
   d40f2:	f104 004c 	add.w	r0, r4, #76	; 0x4c
   d40f6:	f002 ff99 	bl	d702c <_ZN6StringD1Ev>
   d40fa:	f104 003c 	add.w	r0, r4, #60	; 0x3c
   d40fe:	f002 ff95 	bl	d702c <_ZN6StringD1Ev>
   d4102:	4620      	mov	r0, r4
   d4104:	bd10      	pop	{r4, pc}

000d4106 <_ZN11SystemClassD1Ev>:
    system_error_t error_;
    SleepResult compatResult_;
};


class SystemClass {
   d4106:	b510      	push	{r4, lr}
   d4108:	4604      	mov	r4, r0
        if (wakeupSource_) {
   d410a:	6800      	ldr	r0, [r0, #0]
   d410c:	b108      	cbz	r0, d4112 <_ZN11SystemClassD1Ev+0xc>
            free(wakeupSource_);
   d410e:	f001 ff51 	bl	d5fb4 <free>
class SystemClass {
   d4112:	4620      	mov	r0, r4
   d4114:	bd10      	pop	{r4, pc}

000d4116 <_ZNK13LegacyAdapter7getHourEv.isra.0>:
	}

	/**
	 * @brief Get the current hour (in UTC)
	 */
	uint8_t getHour() const {
   d4116:	b530      	push	{r4, r5, lr}
typedef std::function<os_thread_return_t(void)> wiring_thread_fn_t;

class SingleThreadedSection {
public:
    SingleThreadedSection() {
        os_thread_scheduling(false, NULL);
   d4118:	2100      	movs	r1, #0
   d411a:	b085      	sub	sp, #20
   d411c:	4604      	mov	r4, r0
   d411e:	4608      	mov	r0, r1
   d4120:	f001 fdec 	bl	d5cfc <os_thread_scheduling>
	/**
	 * @brief Get the time (hour, minute, second, centisecond)
	 */
	TinyGPSTime getTime() const {
	    SINGLE_THREADED_BLOCK() {
	    	return time;
   d4124:	f104 0048 	add.w	r0, r4, #72	; 0x48
   d4128:	c80f      	ldmia	r0, {r0, r1, r2, r3}
   d412a:	466d      	mov	r5, sp
   d412c:	e885 000f 	stmia.w	r5, {r0, r1, r2, r3}
    }

    ~SingleThreadedSection() {
        os_thread_scheduling(true, NULL);
   d4130:	2100      	movs	r1, #0
   d4132:	2001      	movs	r0, #1
   d4134:	f001 fde2 	bl	d5cfc <os_thread_scheduling>
		return (uint8_t) gpsData.getTime().hour();
   d4138:	4628      	mov	r0, r5
   d413a:	f001 f82f 	bl	d519c <_ZN11TinyGPSTime4hourEv>
	}
   d413e:	b005      	add	sp, #20
   d4140:	bd30      	pop	{r4, r5, pc}

000d4142 <_ZNK13LegacyAdapter9getMinuteEv.isra.0>:

	/**
	 * @brief Get the current minute (in UTC)
	 */
	uint8_t getMinute() const {
   d4142:	b530      	push	{r4, r5, lr}
        os_thread_scheduling(false, NULL);
   d4144:	2100      	movs	r1, #0
   d4146:	b085      	sub	sp, #20
   d4148:	4604      	mov	r4, r0
   d414a:	4608      	mov	r0, r1
   d414c:	f001 fdd6 	bl	d5cfc <os_thread_scheduling>
   d4150:	f104 0048 	add.w	r0, r4, #72	; 0x48
   d4154:	c80f      	ldmia	r0, {r0, r1, r2, r3}
   d4156:	466d      	mov	r5, sp
   d4158:	e885 000f 	stmia.w	r5, {r0, r1, r2, r3}
        os_thread_scheduling(true, NULL);
   d415c:	2100      	movs	r1, #0
   d415e:	2001      	movs	r0, #1
   d4160:	f001 fdcc 	bl	d5cfc <os_thread_scheduling>
		return (uint8_t) gpsData.getTime().minute();
   d4164:	4628      	mov	r0, r5
   d4166:	f001 f823 	bl	d51b0 <_ZN11TinyGPSTime6minuteEv>
	}
   d416a:	b005      	add	sp, #20
   d416c:	bd30      	pop	{r4, r5, pc}

000d416e <_ZNK13LegacyAdapter10getSecondsEv.isra.0>:

	/**
	 * @brief Get the current second (in UTC)
	 */
	uint8_t getSeconds() const {
   d416e:	b530      	push	{r4, r5, lr}
        os_thread_scheduling(false, NULL);
   d4170:	2100      	movs	r1, #0
   d4172:	b085      	sub	sp, #20
   d4174:	4604      	mov	r4, r0
   d4176:	4608      	mov	r0, r1
   d4178:	f001 fdc0 	bl	d5cfc <os_thread_scheduling>
   d417c:	f104 0048 	add.w	r0, r4, #72	; 0x48
   d4180:	c80f      	ldmia	r0, {r0, r1, r2, r3}
   d4182:	466d      	mov	r5, sp
   d4184:	e885 000f 	stmia.w	r5, {r0, r1, r2, r3}
        os_thread_scheduling(true, NULL);
   d4188:	2100      	movs	r1, #0
   d418a:	2001      	movs	r0, #1
   d418c:	f001 fdb6 	bl	d5cfc <os_thread_scheduling>
		return (uint8_t) gpsData.getTime().second();
   d4190:	4628      	mov	r0, r5
   d4192:	f001 f81b 	bl	d51cc <_ZN11TinyGPSTime6secondEv>
	}
   d4196:	b005      	add	sp, #20
   d4198:	bd30      	pop	{r4, r5, pc}

000d419a <_ZNK13LegacyAdapter8getMonthEv.isra.0>:
	}

	/**
	 * @brief Get the current month (1-12) (at UTC)
	 */
	uint8_t getMonth() const {
   d419a:	b530      	push	{r4, r5, lr}
        os_thread_scheduling(false, NULL);
   d419c:	2100      	movs	r1, #0
   d419e:	b085      	sub	sp, #20
   d41a0:	4604      	mov	r4, r0
   d41a2:	4608      	mov	r0, r1
   d41a4:	f001 fdaa 	bl	d5cfc <os_thread_scheduling>
	    	return date;
   d41a8:	f104 0038 	add.w	r0, r4, #56	; 0x38
   d41ac:	c80f      	ldmia	r0, {r0, r1, r2, r3}
   d41ae:	466d      	mov	r5, sp
   d41b0:	e885 000f 	stmia.w	r5, {r0, r1, r2, r3}
        os_thread_scheduling(true, NULL);
   d41b4:	2100      	movs	r1, #0
   d41b6:	2001      	movs	r0, #1
   d41b8:	f001 fda0 	bl	d5cfc <os_thread_scheduling>
		return (uint8_t) gpsData.getDate().month();
   d41bc:	4628      	mov	r0, r5
   d41be:	f000 ffd8 	bl	d5172 <_ZN11TinyGPSDate5monthEv>
	}
   d41c2:	b005      	add	sp, #20
   d41c4:	bd30      	pop	{r4, r5, pc}

000d41c6 <_ZNK13LegacyAdapter6getDayEv.isra.0>:

	/**
	 * @brief Get the current day of month (1-31) (at UTC)
	 */
	uint8_t getDay() const {
   d41c6:	b530      	push	{r4, r5, lr}
        os_thread_scheduling(false, NULL);
   d41c8:	2100      	movs	r1, #0
   d41ca:	b085      	sub	sp, #20
   d41cc:	4604      	mov	r4, r0
   d41ce:	4608      	mov	r0, r1
   d41d0:	f001 fd94 	bl	d5cfc <os_thread_scheduling>
   d41d4:	f104 0038 	add.w	r0, r4, #56	; 0x38
   d41d8:	c80f      	ldmia	r0, {r0, r1, r2, r3}
   d41da:	466d      	mov	r5, sp
   d41dc:	e885 000f 	stmia.w	r5, {r0, r1, r2, r3}
        os_thread_scheduling(true, NULL);
   d41e0:	2100      	movs	r1, #0
   d41e2:	2001      	movs	r0, #1
   d41e4:	f001 fd8a 	bl	d5cfc <os_thread_scheduling>
		return (uint8_t) gpsData.getDate().day();
   d41e8:	4628      	mov	r0, r5
   d41ea:	f000 ffce 	bl	d518a <_ZN11TinyGPSDate3dayEv>
	}
   d41ee:	b005      	add	sp, #20
   d41f0:	bd30      	pop	{r4, r5, pc}
	...

000d41f4 <_Z17setupGpsFeatherAgv>:
{
   d41f4:	e92d 43f0 	stmdb	sp!, {r4, r5, r6, r7, r8, r9, lr}
   d41f8:	b085      	sub	sp, #20
  gps.withI2C();
   d41fa:	f002 ffdd 	bl	d71b8 <_Z19__fetch_global_Wirev>
   d41fe:	2242      	movs	r2, #66	; 0x42
   d4200:	4601      	mov	r1, r0
   d4202:	4880      	ldr	r0, [pc, #512]	; (d4404 <_Z17setupGpsFeatherAgv+0x210>)
  while (!gps.gpsFix() && c < 5)
   d4204:	f8df 81fc 	ldr.w	r8, [pc, #508]	; d4404 <_Z17setupGpsFeatherAgv+0x210>
  gps.withI2C();
   d4208:	f001 fa9c 	bl	d5744 <_ZN12AssetTracker7withI2CER7TwoWireh>
  gps.startThreadedMode();
   d420c:	487d      	ldr	r0, [pc, #500]	; (d4404 <_Z17setupGpsFeatherAgv+0x210>)
   d420e:	f001 fa51 	bl	d56b4 <_ZN12AssetTracker17startThreadedModeEv>
   d4212:	2706      	movs	r7, #6
   d4214:	4644      	mov	r4, r8
  while (!gps.gpsFix() && c < 5)
   d4216:	f8d8 5004 	ldr.w	r5, [r8, #4]
        os_thread_scheduling(false, NULL);
   d421a:	2100      	movs	r1, #0
   d421c:	4608      	mov	r0, r1
   d421e:	f001 fd6d 	bl	d5cfc <os_thread_scheduling>
	    	return location;
   d4222:	782e      	ldrb	r6, [r5, #0]
   d4224:	6b6d      	ldr	r5, [r5, #52]	; 0x34
        os_thread_scheduling(true, NULL);
   d4226:	2100      	movs	r1, #0
   d4228:	2001      	movs	r0, #1
   d422a:	f001 fd67 	bl	d5cfc <os_thread_scheduling>
	 * Note: It may take 10 seconds for for this to go to false after losing GPS signal.
	 */
	bool gpsFix(void) const {
		TinyGPSLocation location = gpsData.getLocation();

		return location.isValid() && location.age() < MAX_GPS_AGE_MS;
   d422e:	bb4e      	cbnz	r6, d4284 <_Z17setupGpsFeatherAgv+0x90>
   d4230:	3f01      	subs	r7, #1
   d4232:	d12f      	bne.n	d4294 <_Z17setupGpsFeatherAgv+0xa0>
  int diasDesde2021de01 = (gps.getMonth() - 1) * 30 + gps.getDay();
   d4234:	6860      	ldr	r0, [r4, #4]
   d4236:	f7ff ffb0 	bl	d419a <_ZNK13LegacyAdapter8getMonthEv.isra.0>
   d423a:	4605      	mov	r5, r0
   d423c:	6860      	ldr	r0, [r4, #4]
   d423e:	f7ff ffc2 	bl	d41c6 <_ZNK13LegacyAdapter6getDayEv.isra.0>
   d4242:	4680      	mov	r8, r0
  int segundosDeLosDiasDesdeElPrincipioDeAnio = ((diasDesde2021de01 * 24 + gps.getHour()) * 60 + gps.getMinute()) * 60 + gps.getSeconds();
   d4244:	6860      	ldr	r0, [r4, #4]
   d4246:	f7ff ff66 	bl	d4116 <_ZNK13LegacyAdapter7getHourEv.isra.0>
   d424a:	4607      	mov	r7, r0
   d424c:	6860      	ldr	r0, [r4, #4]
   d424e:	f7ff ff78 	bl	d4142 <_ZNK13LegacyAdapter9getMinuteEv.isra.0>
   d4252:	4606      	mov	r6, r0
   d4254:	6860      	ldr	r0, [r4, #4]
   d4256:	f7ff ff8a 	bl	d416e <_ZNK13LegacyAdapter10getSecondsEv.isra.0>
  int diasDesde2021de01 = (gps.getMonth() - 1) * 30 + gps.getDay();
   d425a:	1e69      	subs	r1, r5, #1
   d425c:	231e      	movs	r3, #30
   d425e:	fb03 8201 	mla	r2, r3, r1, r8
  int segundosDeLosDiasDesdeElPrincipioDeAnio = ((diasDesde2021de01 * 24 + gps.getHour()) * 60 + gps.getMinute()) * 60 + gps.getSeconds();
   d4262:	2518      	movs	r5, #24
   d4264:	fb05 7302 	mla	r3, r5, r2, r7
   d4268:	223c      	movs	r2, #60	; 0x3c
   d426a:	fb02 6503 	mla	r5, r2, r3, r6
  Time.setTime(segundosDeLosDiasDesdeElPrincipioDeAnio + 1609459200 - 60 * 60 * 3);
   d426e:	4b66      	ldr	r3, [pc, #408]	; (d4408 <_Z17setupGpsFeatherAgv+0x214>)
  int segundosDeLosDiasDesdeElPrincipioDeAnio = ((diasDesde2021de01 * 24 + gps.getHour()) * 60 + gps.getMinute()) * 60 + gps.getSeconds();
   d4270:	fb02 0005 	mla	r0, r2, r5, r0
  Time.setTime(segundosDeLosDiasDesdeElPrincipioDeAnio + 1609459200 - 60 * 60 * 3);
   d4274:	4403      	add	r3, r0
   d4276:	4618      	mov	r0, r3
   d4278:	17d9      	asrs	r1, r3, #31
   d427a:	f002 fa66 	bl	d674a <_ZN9TimeClass7setTimeEx>
}
   d427e:	b005      	add	sp, #20
   d4280:	e8bd 83f0 	ldmia.w	sp!, {r4, r5, r6, r7, r8, r9, pc}

#ifdef __cplusplus
extern "C" {
#endif

inline system_tick_t millis(void) { return HAL_Timer_Get_Milli_Seconds(); }
   d4284:	f001 fd72 	bl	d5d6c <HAL_Timer_Get_Milli_Seconds>
   d4288:	f242 730f 	movw	r3, #9999	; 0x270f
	uint32_t age() const    { return valid ? millis() - lastCommitTime : (uint32_t)ULONG_MAX; }
   d428c:	1b40      	subs	r0, r0, r5
   d428e:	4298      	cmp	r0, r3
   d4290:	d8ce      	bhi.n	d4230 <_Z17setupGpsFeatherAgv+0x3c>
   d4292:	e7cf      	b.n	d4234 <_Z17setupGpsFeatherAgv+0x40>
    Serial.print("20");
   d4294:	f002 f86c 	bl	d6370 <_Z16_fetch_usbserialv>
   d4298:	495c      	ldr	r1, [pc, #368]	; (d440c <_Z17setupGpsFeatherAgv+0x218>)
   d429a:	f002 fbb7 	bl	d6a0c <_ZN5Print5printEPKc>
    Serial.print(gps.getYear());
   d429e:	f002 f867 	bl	d6370 <_Z16_fetch_usbserialv>
        os_thread_scheduling(false, NULL);
   d42a2:	2100      	movs	r1, #0
   d42a4:	6865      	ldr	r5, [r4, #4]
   d42a6:	4681      	mov	r9, r0
   d42a8:	4608      	mov	r0, r1
   d42aa:	f001 fd27 	bl	d5cfc <os_thread_scheduling>
	    	return date;
   d42ae:	f105 0338 	add.w	r3, r5, #56	; 0x38
   d42b2:	cb0f      	ldmia	r3, {r0, r1, r2, r3}
   d42b4:	466e      	mov	r6, sp
   d42b6:	e886 000f 	stmia.w	r6, {r0, r1, r2, r3}
        os_thread_scheduling(true, NULL);
   d42ba:	2100      	movs	r1, #0
   d42bc:	2001      	movs	r0, #1
   d42be:	f001 fd1d 	bl	d5cfc <os_thread_scheduling>
		return (uint8_t) (gpsData.getDate().year() % 100);
   d42c2:	4630      	mov	r0, r6
   d42c4:	f000 ff49 	bl	d515a <_ZN11TinyGPSDate4yearEv>
   d42c8:	2164      	movs	r1, #100	; 0x64
   d42ca:	fbb0 f3f1 	udiv	r3, r0, r1
   d42ce:	fb03 0111 	mls	r1, r3, r1, r0
            val = n;
        }
#if __GNUC__ >= 9
#pragma GCC diagnostic pop
#endif // __GNUC__ >= 9
        return printNumber(val, base) + t;
   d42d2:	220a      	movs	r2, #10
   d42d4:	b289      	uxth	r1, r1
   d42d6:	4648      	mov	r0, r9
   d42d8:	f002 fbb5 	bl	d6a46 <_ZN5Print11printNumberEmh>
    Serial.print("-");
   d42dc:	f002 f848 	bl	d6370 <_Z16_fetch_usbserialv>
   d42e0:	494b      	ldr	r1, [pc, #300]	; (d4410 <_Z17setupGpsFeatherAgv+0x21c>)
   d42e2:	f002 fb93 	bl	d6a0c <_ZN5Print5printEPKc>
    if (gps.getMonth() < 10)
   d42e6:	6860      	ldr	r0, [r4, #4]
   d42e8:	f7ff ff57 	bl	d419a <_ZNK13LegacyAdapter8getMonthEv.isra.0>
   d42ec:	2809      	cmp	r0, #9
   d42ee:	d804      	bhi.n	d42fa <_Z17setupGpsFeatherAgv+0x106>
      Serial.print("0");
   d42f0:	f002 f83e 	bl	d6370 <_Z16_fetch_usbserialv>
   d42f4:	4947      	ldr	r1, [pc, #284]	; (d4414 <_Z17setupGpsFeatherAgv+0x220>)
   d42f6:	f002 fb89 	bl	d6a0c <_ZN5Print5printEPKc>
    Serial.print(gps.getMonth());
   d42fa:	f002 f839 	bl	d6370 <_Z16_fetch_usbserialv>
   d42fe:	4605      	mov	r5, r0
   d4300:	6860      	ldr	r0, [r4, #4]
   d4302:	f7ff ff4a 	bl	d419a <_ZNK13LegacyAdapter8getMonthEv.isra.0>
   d4306:	220a      	movs	r2, #10
   d4308:	4601      	mov	r1, r0
   d430a:	4628      	mov	r0, r5
   d430c:	f002 fb9b 	bl	d6a46 <_ZN5Print11printNumberEmh>
    Serial.print("-");
   d4310:	f002 f82e 	bl	d6370 <_Z16_fetch_usbserialv>
   d4314:	493e      	ldr	r1, [pc, #248]	; (d4410 <_Z17setupGpsFeatherAgv+0x21c>)
   d4316:	f002 fb79 	bl	d6a0c <_ZN5Print5printEPKc>
    if (gps.getDay() < 10)
   d431a:	6860      	ldr	r0, [r4, #4]
   d431c:	f7ff ff53 	bl	d41c6 <_ZNK13LegacyAdapter6getDayEv.isra.0>
   d4320:	2809      	cmp	r0, #9
   d4322:	d804      	bhi.n	d432e <_Z17setupGpsFeatherAgv+0x13a>
      Serial.print("0");
   d4324:	f002 f824 	bl	d6370 <_Z16_fetch_usbserialv>
   d4328:	493a      	ldr	r1, [pc, #232]	; (d4414 <_Z17setupGpsFeatherAgv+0x220>)
   d432a:	f002 fb6f 	bl	d6a0c <_ZN5Print5printEPKc>
    Serial.print(gps.getDay());
   d432e:	f002 f81f 	bl	d6370 <_Z16_fetch_usbserialv>
   d4332:	4605      	mov	r5, r0
   d4334:	6860      	ldr	r0, [r4, #4]
   d4336:	f7ff ff46 	bl	d41c6 <_ZNK13LegacyAdapter6getDayEv.isra.0>
   d433a:	220a      	movs	r2, #10
   d433c:	4601      	mov	r1, r0
   d433e:	4628      	mov	r0, r5
   d4340:	f002 fb81 	bl	d6a46 <_ZN5Print11printNumberEmh>
    Serial.print("T");
   d4344:	f002 f814 	bl	d6370 <_Z16_fetch_usbserialv>
   d4348:	4933      	ldr	r1, [pc, #204]	; (d4418 <_Z17setupGpsFeatherAgv+0x224>)
   d434a:	f002 fb5f 	bl	d6a0c <_ZN5Print5printEPKc>
    if (gps.getHour() - 3 < 10)
   d434e:	6860      	ldr	r0, [r4, #4]
   d4350:	f7ff fee1 	bl	d4116 <_ZNK13LegacyAdapter7getHourEv.isra.0>
   d4354:	280c      	cmp	r0, #12
   d4356:	d804      	bhi.n	d4362 <_Z17setupGpsFeatherAgv+0x16e>
      Serial.print("0");
   d4358:	f002 f80a 	bl	d6370 <_Z16_fetch_usbserialv>
   d435c:	492d      	ldr	r1, [pc, #180]	; (d4414 <_Z17setupGpsFeatherAgv+0x220>)
   d435e:	f002 fb55 	bl	d6a0c <_ZN5Print5printEPKc>
    Serial.print(gps.getHour() - 3);
   d4362:	f002 f805 	bl	d6370 <_Z16_fetch_usbserialv>
   d4366:	4606      	mov	r6, r0
   d4368:	6860      	ldr	r0, [r4, #4]
   d436a:	f7ff fed4 	bl	d4116 <_ZNK13LegacyAdapter7getHourEv.isra.0>
        if (n < 0 && base == 10) {
   d436e:	1ec1      	subs	r1, r0, #3
   d4370:	4605      	mov	r5, r0
   d4372:	d505      	bpl.n	d4380 <_Z17setupGpsFeatherAgv+0x18c>
            t = print('-');
   d4374:	212d      	movs	r1, #45	; 0x2d
   d4376:	4630      	mov	r0, r6
   d4378:	f002 fb4c 	bl	d6a14 <_ZN5Print5printEc>
            val = -n;
   d437c:	f1c5 0103 	rsb	r1, r5, #3
        return printNumber(val, base) + t;
   d4380:	220a      	movs	r2, #10
   d4382:	4630      	mov	r0, r6
   d4384:	f002 fb5f 	bl	d6a46 <_ZN5Print11printNumberEmh>
    Serial.print(":");
   d4388:	f001 fff2 	bl	d6370 <_Z16_fetch_usbserialv>
   d438c:	4923      	ldr	r1, [pc, #140]	; (d441c <_Z17setupGpsFeatherAgv+0x228>)
   d438e:	f002 fb3d 	bl	d6a0c <_ZN5Print5printEPKc>
    if (gps.getMinute() < 10)
   d4392:	6860      	ldr	r0, [r4, #4]
   d4394:	f7ff fed5 	bl	d4142 <_ZNK13LegacyAdapter9getMinuteEv.isra.0>
   d4398:	2809      	cmp	r0, #9
   d439a:	d804      	bhi.n	d43a6 <_Z17setupGpsFeatherAgv+0x1b2>
      Serial.print("0");
   d439c:	f001 ffe8 	bl	d6370 <_Z16_fetch_usbserialv>
   d43a0:	491c      	ldr	r1, [pc, #112]	; (d4414 <_Z17setupGpsFeatherAgv+0x220>)
   d43a2:	f002 fb33 	bl	d6a0c <_ZN5Print5printEPKc>
    Serial.print(gps.getMinute());
   d43a6:	f001 ffe3 	bl	d6370 <_Z16_fetch_usbserialv>
   d43aa:	4605      	mov	r5, r0
   d43ac:	6860      	ldr	r0, [r4, #4]
   d43ae:	f7ff fec8 	bl	d4142 <_ZNK13LegacyAdapter9getMinuteEv.isra.0>
   d43b2:	220a      	movs	r2, #10
   d43b4:	4601      	mov	r1, r0
   d43b6:	4628      	mov	r0, r5
   d43b8:	f002 fb45 	bl	d6a46 <_ZN5Print11printNumberEmh>
    Serial.print(":");
   d43bc:	f001 ffd8 	bl	d6370 <_Z16_fetch_usbserialv>
   d43c0:	4916      	ldr	r1, [pc, #88]	; (d441c <_Z17setupGpsFeatherAgv+0x228>)
   d43c2:	f002 fb23 	bl	d6a0c <_ZN5Print5printEPKc>
    if (gps.getSeconds() < 10)
   d43c6:	6860      	ldr	r0, [r4, #4]
   d43c8:	f7ff fed1 	bl	d416e <_ZNK13LegacyAdapter10getSecondsEv.isra.0>
   d43cc:	2809      	cmp	r0, #9
   d43ce:	d804      	bhi.n	d43da <_Z17setupGpsFeatherAgv+0x1e6>
      Serial.print("0");
   d43d0:	f001 ffce 	bl	d6370 <_Z16_fetch_usbserialv>
   d43d4:	490f      	ldr	r1, [pc, #60]	; (d4414 <_Z17setupGpsFeatherAgv+0x220>)
   d43d6:	f002 fb19 	bl	d6a0c <_ZN5Print5printEPKc>
    Serial.print(gps.getSeconds());
   d43da:	f001 ffc9 	bl	d6370 <_Z16_fetch_usbserialv>
   d43de:	4605      	mov	r5, r0
   d43e0:	6860      	ldr	r0, [r4, #4]
   d43e2:	f7ff fec4 	bl	d416e <_ZNK13LegacyAdapter10getSecondsEv.isra.0>
   d43e6:	220a      	movs	r2, #10
   d43e8:	4601      	mov	r1, r0
   d43ea:	4628      	mov	r0, r5
   d43ec:	f002 fb2b 	bl	d6a46 <_ZN5Print11printNumberEmh>
    Serial.println("Z");
   d43f0:	f001 ffbe 	bl	d6370 <_Z16_fetch_usbserialv>
   d43f4:	490a      	ldr	r1, [pc, #40]	; (d4420 <_Z17setupGpsFeatherAgv+0x22c>)
   d43f6:	f002 fb1c 	bl	d6a32 <_ZN5Print7printlnEPKc>
    delay(1000);
   d43fa:	f44f 707a 	mov.w	r0, #1000	; 0x3e8
   d43fe:	f002 f852 	bl	d64a6 <delay>
  while (!gps.gpsFix() && c < 5)
   d4402:	e708      	b.n	d4216 <_Z17setupGpsFeatherAgv+0x22>
   d4404:	2003e4e8 	.word	0x2003e4e8
   d4408:	5fee3bd0 	.word	0x5fee3bd0
   d440c:	000d7f34 	.word	0x000d7f34
   d4410:	000d7f37 	.word	0x000d7f37
   d4414:	000d7f4a 	.word	0x000d7f4a
   d4418:	000d7f39 	.word	0x000d7f39
   d441c:	000d7f3b 	.word	0x000d7f3b
   d4420:	000d7f3d 	.word	0x000d7f3d

000d4424 <_Z12setupAcelIdcv>:
{
   d4424:	b510      	push	{r4, lr}
   d4426:	b086      	sub	sp, #24
  Wire.setSpeed(CLOCK_SPEED_100KHZ);
   d4428:	f002 fec6 	bl	d71b8 <_Z19__fetch_global_Wirev>
   d442c:	4910      	ldr	r1, [pc, #64]	; (d4470 <_Z12setupAcelIdcv+0x4c>)
   d442e:	f001 feef 	bl	d6210 <_ZN7TwoWire8setSpeedEm>
  Wire.begin();
   d4432:	f002 fec1 	bl	d71b8 <_Z19__fetch_global_Wirev>
   d4436:	f001 feef 	bl	d6218 <_ZN7TwoWire5beginEv>
  LIS3DHConfig config;
   d443a:	a803      	add	r0, sp, #12
   d443c:	f000 fcac 	bl	d4d98 <_ZN12LIS3DHConfigC1Ev>
  config.setAccelMode(LIS3DH::RATE_200_HZ);
   d4440:	2160      	movs	r1, #96	; 0x60
   d4442:	a803      	add	r0, sp, #12
   d4444:	f000 fcc1 	bl	d4dca <_ZN12LIS3DHConfig12setAccelModeEh>
  config.setLowPowerWakeMode(4);
   d4448:	2104      	movs	r1, #4
   d444a:	a803      	add	r0, sp, #12
   d444c:	f000 fcb1 	bl	d4db2 <_ZN12LIS3DHConfig19setLowPowerWakeModeEh>
  bool setupSuccess = accel.setup(config);
   d4450:	a903      	add	r1, sp, #12
   d4452:	4808      	ldr	r0, [pc, #32]	; (d4474 <_Z12setupAcelIdcv+0x50>)
   d4454:	f000 fcfc 	bl	d4e50 <_ZN6LIS3DH5setupER12LIS3DHConfig>
  attachInterrupt(D8, movementInterruptHandler, CHANGE);
   d4458:	2200      	movs	r2, #0
  bool setupSuccess = accel.setup(config);
   d445a:	4604      	mov	r4, r0
  attachInterrupt(D8, movementInterruptHandler, CHANGE);
   d445c:	4906      	ldr	r1, [pc, #24]	; (d4478 <_Z12setupAcelIdcv+0x54>)
   d445e:	9200      	str	r2, [sp, #0]
   d4460:	f04f 33ff 	mov.w	r3, #4294967295	; 0xffffffff
   d4464:	2008      	movs	r0, #8
   d4466:	f002 f939 	bl	d66dc <_Z15attachInterrupttPFvvE13InterruptModeah>
}
   d446a:	4620      	mov	r0, r4
   d446c:	b006      	add	sp, #24
   d446e:	bd10      	pop	{r4, pc}
   d4470:	000186a0 	.word	0x000186a0
   d4474:	2003e450 	.word	0x2003e450
   d4478:	000d40c5 	.word	0x000d40c5

000d447c <_Z20updateTimeForPublishv>:
    EEPROM_readAnything(vectorPosicion, estructuraMemoria);
  }
}

void updateTimeForPublish()
{
   d447c:	b510      	push	{r4, lr}
  estructuraPrincipal.timestamp = Time.format(TIME_FORMAT_ISO8601_FULL);
   d447e:	4b12      	ldr	r3, [pc, #72]	; (d44c8 <_Z20updateTimeForPublishv+0x4c>)
{
   d4480:	b096      	sub	sp, #88	; 0x58
  estructuraPrincipal.timestamp = Time.format(TIME_FORMAT_ISO8601_FULL);
   d4482:	681c      	ldr	r4, [r3, #0]
         */
        String format(time_t t, const char* format_spec=NULL);

        inline String format(const char* format_spec=NULL)
        {
            return format(now(), format_spec);
   d4484:	f002 fa77 	bl	d6976 <_ZN9TimeClass3nowEv>
   d4488:	9400      	str	r4, [sp, #0]
   d448a:	4c10      	ldr	r4, [pc, #64]	; (d44cc <_Z20updateTimeForPublishv+0x50>)
   d448c:	4910      	ldr	r1, [pc, #64]	; (d44d0 <_Z20updateTimeForPublishv+0x54>)
   d448e:	4602      	mov	r2, r0
   d4490:	17c3      	asrs	r3, r0, #31
   d4492:	a802      	add	r0, sp, #8
   d4494:	f002 fa10 	bl	d68b8 <_ZN9TimeClass6formatExPKc>
   d4498:	a902      	add	r1, sp, #8
   d449a:	f104 003c 	add.w	r0, r4, #60	; 0x3c
   d449e:	f002 fe41 	bl	d7124 <_ZN6StringaSEOS_>
   d44a2:	a802      	add	r0, sp, #8
   d44a4:	f002 fdc2 	bl	d702c <_ZN6StringD1Ev>
  estructuraPrincipal.unixtimeint = (long int)Time.now();
   d44a8:	f002 fa65 	bl	d6976 <_ZN9TimeClass3nowEv>
  char data2[80];
  snprintf(data2, sizeof(data2), "%lu000000000", estructuraPrincipal.unixtimeint);
   d44ac:	4a09      	ldr	r2, [pc, #36]	; (d44d4 <_Z20updateTimeForPublishv+0x58>)
  estructuraPrincipal.unixtimeint = (long int)Time.now();
   d44ae:	6220      	str	r0, [r4, #32]
   d44b0:	4603      	mov	r3, r0
  snprintf(data2, sizeof(data2), "%lu000000000", estructuraPrincipal.unixtimeint);
   d44b2:	2150      	movs	r1, #80	; 0x50
   d44b4:	a802      	add	r0, sp, #8
   d44b6:	f001 fd95 	bl	d5fe4 <snprintf>
  estructuraPrincipal.unixtime = data2;
   d44ba:	a902      	add	r1, sp, #8
   d44bc:	f104 004c 	add.w	r0, r4, #76	; 0x4c
   d44c0:	f002 fe38 	bl	d7134 <_ZN6StringaSEPKc>
}
   d44c4:	b016      	add	sp, #88	; 0x58
   d44c6:	bd10      	pop	{r4, pc}
   d44c8:	2003e3cc 	.word	0x2003e3cc
   d44cc:	2003e464 	.word	0x2003e464
   d44d0:	2003e764 	.word	0x2003e764
   d44d4:	000d7f3f 	.word	0x000d7f3f

000d44d8 <_Z13publishSensorv>:

bool publishSensor()
{
   d44d8:	b5f0      	push	{r4, r5, r6, r7, lr}
  Serial.println("PUBLISH");
  //publica en nube la informacion sensada, de lo contrario va guardando en cola en la memoria el dato que no se puede enviar.
  char data[380];
  snprintf(data, sizeof(data), "{ \"tags\" : {\"id\":%c%s%c}, \"values\": {\"t\":%s,\"ht\":%c%s%c,\"bt\":%0.2f,\"c\":%li,\"wh\":%i,\"lt\":%0.4f,\"ln\":%0.4f,\"altura\":%0.1f,\"otrodato\":%0.1f,\"otrodatodos\":%0.1f,\"openbox\":%0.1f}}", s, idmsg, s, estructuraPrincipal.unixtime.c_str(), s, estructuraPrincipal.timestamp.c_str(), s, estructuraPrincipal.bat, estructuraPrincipal.Counter, estructuraPrincipal.whocharge, estructuraPrincipal.lat, estructuraPrincipal.lon, estructuraPrincipal.altura, estructuraPrincipal.otrodato, estructuraPrincipal.otrodatodos, estructuraPrincipal.openBox);
   d44da:	4c2b      	ldr	r4, [pc, #172]	; (d4588 <_Z13publishSensorv+0xb0>)
{
   d44dc:	b0f7      	sub	sp, #476	; 0x1dc
  Serial.println("PUBLISH");
   d44de:	f001 ff47 	bl	d6370 <_Z16_fetch_usbserialv>
   d44e2:	492a      	ldr	r1, [pc, #168]	; (d458c <_Z13publishSensorv+0xb4>)
   d44e4:	f002 faa5 	bl	d6a32 <_ZN5Print7printlnEPKc>
  snprintf(data, sizeof(data), "{ \"tags\" : {\"id\":%c%s%c}, \"values\": {\"t\":%s,\"ht\":%c%s%c,\"bt\":%0.2f,\"c\":%li,\"wh\":%i,\"lt\":%0.4f,\"ln\":%0.4f,\"altura\":%0.1f,\"otrodato\":%0.1f,\"otrodatodos\":%0.1f,\"openbox\":%0.1f}}", s, idmsg, s, estructuraPrincipal.unixtime.c_str(), s, estructuraPrincipal.timestamp.c_str(), s, estructuraPrincipal.bat, estructuraPrincipal.Counter, estructuraPrincipal.whocharge, estructuraPrincipal.lat, estructuraPrincipal.lon, estructuraPrincipal.altura, estructuraPrincipal.otrodato, estructuraPrincipal.otrodatodos, estructuraPrincipal.openBox);
   d44e8:	6825      	ldr	r5, [r4, #0]
   d44ea:	6866      	ldr	r6, [r4, #4]
   d44ec:	68a7      	ldr	r7, [r4, #8]
   d44ee:	68e0      	ldr	r0, [r4, #12]
   d44f0:	f003 f8a0 	bl	d7634 <__aeabi_f2d>
   d44f4:	e9cd 0114 	strd	r0, r1, [sp, #80]	; 0x50
   d44f8:	4638      	mov	r0, r7
   d44fa:	f003 f89b 	bl	d7634 <__aeabi_f2d>
   d44fe:	e9cd 0112 	strd	r0, r1, [sp, #72]	; 0x48
   d4502:	4630      	mov	r0, r6
   d4504:	f003 f896 	bl	d7634 <__aeabi_f2d>
   d4508:	e9cd 0110 	strd	r0, r1, [sp, #64]	; 0x40
   d450c:	4628      	mov	r0, r5
   d450e:	f003 f891 	bl	d7634 <__aeabi_f2d>
   d4512:	e9cd 010e 	strd	r0, r1, [sp, #56]	; 0x38
   d4516:	6ba0      	ldr	r0, [r4, #56]	; 0x38
   d4518:	f003 f88c 	bl	d7634 <__aeabi_f2d>
   d451c:	e9cd 010c 	strd	r0, r1, [sp, #48]	; 0x30
   d4520:	6b60      	ldr	r0, [r4, #52]	; 0x34
   d4522:	f003 f887 	bl	d7634 <__aeabi_f2d>
   d4526:	e9cd 010a 	strd	r0, r1, [sp, #40]	; 0x28
   d452a:	6ae3      	ldr	r3, [r4, #44]	; 0x2c
   d452c:	9309      	str	r3, [sp, #36]	; 0x24
   d452e:	69a3      	ldr	r3, [r4, #24]
   d4530:	9308      	str	r3, [sp, #32]
   d4532:	6b20      	ldr	r0, [r4, #48]	; 0x30
   d4534:	f003 f87e 	bl	d7634 <__aeabi_f2d>
   d4538:	e9cd 0106 	strd	r0, r1, [sp, #24]
   d453c:	2322      	movs	r3, #34	; 0x22
   d453e:	9305      	str	r3, [sp, #20]
   d4540:	6be2      	ldr	r2, [r4, #60]	; 0x3c
   d4542:	e9cd 3203 	strd	r3, r2, [sp, #12]
   d4546:	6ce2      	ldr	r2, [r4, #76]	; 0x4c
   d4548:	e9cd 3201 	strd	r3, r2, [sp, #4]
   d454c:	4a10      	ldr	r2, [pc, #64]	; (d4590 <_Z13publishSensorv+0xb8>)
   d454e:	9200      	str	r2, [sp, #0]
   d4550:	f44f 71be 	mov.w	r1, #380	; 0x17c
   d4554:	4a0f      	ldr	r2, [pc, #60]	; (d4594 <_Z13publishSensorv+0xbc>)
   d4556:	a817      	add	r0, sp, #92	; 0x5c
   d4558:	f001 fd44 	bl	d5fe4 <snprintf>
  Serial.println(data);
   d455c:	f001 ff08 	bl	d6370 <_Z16_fetch_usbserialv>
   d4560:	a917      	add	r1, sp, #92	; 0x5c
   d4562:	f002 fa66 	bl	d6a32 <_ZN5Print7printlnEPKc>
        return network_listening(*this, 0, NULL);
    }

    bool ready()
    {
        return network_ready(*this, 0,  NULL);
   d4566:	4b0c      	ldr	r3, [pc, #48]	; (d4598 <_Z13publishSensorv+0xc0>)
   d4568:	2200      	movs	r2, #0
   d456a:	6858      	ldr	r0, [r3, #4]
   d456c:	4611      	mov	r1, r2
   d456e:	f001 fca5 	bl	d5ebc <network_ready>
  if (Cellular.ready())
   d4572:	4604      	mov	r4, r0
   d4574:	b120      	cbz	r0, d4580 <_Z13publishSensorv+0xa8>
  {
    Serial.println("Publicando");
   d4576:	f001 fefb 	bl	d6370 <_Z16_fetch_usbserialv>
   d457a:	4908      	ldr	r1, [pc, #32]	; (d459c <_Z13publishSensorv+0xc4>)
   d457c:	f002 fa59 	bl	d6a32 <_ZN5Print7printlnEPKc>
    //  //parsingMemoLive(50 + (estructuraPrincipal.cantidadNodoEnCola * 50));
    //}
    //Serial.println("finPUBLISH");
    return false;
  }
}
   d4580:	4620      	mov	r0, r4
   d4582:	b077      	add	sp, #476	; 0x1dc
   d4584:	bdf0      	pop	{r4, r5, r6, r7, pc}
   d4586:	bf00      	nop
   d4588:	2003e464 	.word	0x2003e464
   d458c:	000d7f4c 	.word	0x000d7f4c
   d4590:	000d8003 	.word	0x000d8003
   d4594:	000d7f54 	.word	0x000d7f54
   d4598:	2003e724 	.word	0x2003e724
   d459c:	000d800b 	.word	0x000d800b

000d45a0 <setup>:




void setup()
{
   d45a0:	b508      	push	{r3, lr}
        network_off(*this, 0, 0, NULL);
   d45a2:	480b      	ldr	r0, [pc, #44]	; (d45d0 <setup+0x30>)
   d45a4:	2300      	movs	r3, #0
   d45a6:	4619      	mov	r1, r3
   d45a8:	461a      	mov	r2, r3
   d45aa:	6840      	ldr	r0, [r0, #4]
   d45ac:	f001 fc96 	bl	d5edc <network_off>
  Cellular.off();
  Serial.begin(9600);
   d45b0:	f001 fede 	bl	d6370 <_Z16_fetch_usbserialv>
   d45b4:	f44f 5116 	mov.w	r1, #9600	; 0x2580
   d45b8:	f001 fece 	bl	d6358 <_ZN9USBSerial5beginEl>
  delay(4000);
   d45bc:	f44f 607a 	mov.w	r0, #4000	; 0xfa0
   d45c0:	f001 ff71 	bl	d64a6 <delay>
   d45c4:	f001 fbd2 	bl	d5d6c <HAL_Timer_Get_Milli_Seconds>
  crono = millis();
   d45c8:	4b02      	ldr	r3, [pc, #8]	; (d45d4 <setup+0x34>)
   d45ca:	6018      	str	r0, [r3, #0]
}
   d45cc:	bd08      	pop	{r3, pc}
   d45ce:	bf00      	nop
   d45d0:	2003e724 	.word	0x2003e724
   d45d4:	2003e448 	.word	0x2003e448

000d45d8 <_ZN5Print7printlnIiLi0EEEjT_i>:
    size_t println(T b, int base = DEC) {
   d45d8:	b5f8      	push	{r3, r4, r5, r6, r7, lr}
   d45da:	4605      	mov	r5, r0
   d45dc:	460c      	mov	r4, r1
    if (base == 0) {
   d45de:	4616      	mov	r6, r2
   d45e0:	b94a      	cbnz	r2, d45f6 <_ZN5Print7printlnIiLi0EEEjT_i+0x1e>
        return write(n);
   d45e2:	6803      	ldr	r3, [r0, #0]
   d45e4:	b2c9      	uxtb	r1, r1
   d45e6:	689b      	ldr	r3, [r3, #8]
   d45e8:	4798      	blx	r3
   d45ea:	4607      	mov	r7, r0
        n += println();
   d45ec:	4628      	mov	r0, r5
   d45ee:	f002 fa14 	bl	d6a1a <_ZN5Print7printlnEv>
    }
   d45f2:	4438      	add	r0, r7
   d45f4:	bdf8      	pop	{r3, r4, r5, r6, r7, pc}
        if (n < 0 && base == 10) {
   d45f6:	2900      	cmp	r1, #0
   d45f8:	da0c      	bge.n	d4614 <_ZN5Print7printlnIiLi0EEEjT_i+0x3c>
   d45fa:	2a0a      	cmp	r2, #10
   d45fc:	d10a      	bne.n	d4614 <_ZN5Print7printlnIiLi0EEEjT_i+0x3c>
            t = print('-');
   d45fe:	212d      	movs	r1, #45	; 0x2d
   d4600:	f002 fa08 	bl	d6a14 <_ZN5Print5printEc>
            val = -n;
   d4604:	4261      	negs	r1, r4
            t = print('-');
   d4606:	4607      	mov	r7, r0
        return printNumber(val, base) + t;
   d4608:	b2f2      	uxtb	r2, r6
   d460a:	4628      	mov	r0, r5
   d460c:	f002 fa1b 	bl	d6a46 <_ZN5Print11printNumberEmh>
   d4610:	4407      	add	r7, r0
   d4612:	e7eb      	b.n	d45ec <_ZN5Print7printlnIiLi0EEEjT_i+0x14>
            val = n;
   d4614:	4621      	mov	r1, r4
        size_t t = 0;
   d4616:	2700      	movs	r7, #0
   d4618:	e7f6      	b.n	d4608 <_ZN5Print7printlnIiLi0EEEjT_i+0x30>
	...

000d461c <_Z15parsingLiveMemoi>:
{
   d461c:	b5f0      	push	{r4, r5, r6, r7, lr}
  if (estructuraPrincipal.correct_init)
   d461e:	4b1e      	ldr	r3, [pc, #120]	; (d4698 <_Z15parsingLiveMemoi+0x7c>)
   d4620:	7c1a      	ldrb	r2, [r3, #16]
{
   d4622:	b08d      	sub	sp, #52	; 0x34
   d4624:	4605      	mov	r5, r0
  if (estructuraPrincipal.correct_init)
   d4626:	2a00      	cmp	r2, #0
   d4628:	d033      	beq.n	d4692 <_Z15parsingLiveMemoi+0x76>
    estructuraDeDatosDeMemoria myObj = {42, estructuraPrincipal.unixtimeint, estructuraPrincipal.Counter, estructuraPrincipal.lat, estructuraPrincipal.lon, estructuraPrincipal.bat, estructuraPrincipal.altura, estructuraPrincipal.otrodato, estructuraPrincipal.otrodatodos, estructuraPrincipal.openBox, estructuraPrincipal.correct_init, estructuraPrincipal.correct_init2};
   d462a:	222a      	movs	r2, #42	; 0x2a
   d462c:	9201      	str	r2, [sp, #4]
   d462e:	6a1a      	ldr	r2, [r3, #32]
   d4630:	9202      	str	r2, [sp, #8]
   d4632:	699a      	ldr	r2, [r3, #24]
   d4634:	9203      	str	r2, [sp, #12]
   d4636:	6b5a      	ldr	r2, [r3, #52]	; 0x34
   d4638:	9204      	str	r2, [sp, #16]
   d463a:	6b9a      	ldr	r2, [r3, #56]	; 0x38
   d463c:	9205      	str	r2, [sp, #20]
   d463e:	6b1a      	ldr	r2, [r3, #48]	; 0x30
   d4640:	9206      	str	r2, [sp, #24]
   d4642:	681a      	ldr	r2, [r3, #0]
   d4644:	9207      	str	r2, [sp, #28]
   d4646:	685a      	ldr	r2, [r3, #4]
   d4648:	9208      	str	r2, [sp, #32]
   d464a:	689a      	ldr	r2, [r3, #8]
   d464c:	9209      	str	r2, [sp, #36]	; 0x24
   d464e:	68da      	ldr	r2, [r3, #12]
   d4650:	920a      	str	r2, [sp, #40]	; 0x28
   d4652:	2400      	movs	r4, #0
   d4654:	7c1a      	ldrb	r2, [r3, #16]
   d4656:	7c5b      	ldrb	r3, [r3, #17]
   d4658:	f88d 202c 	strb.w	r2, [sp, #44]	; 0x2c
   d465c:	f88d 302d 	strb.w	r3, [sp, #45]	; 0x2d
   d4660:	f8ad 402e 	strh.w	r4, [sp, #46]	; 0x2e
    Serial.print(" ESCRIBIENDO EN LA POSICION ");
   d4664:	f001 fe84 	bl	d6370 <_Z16_fetch_usbserialv>
   d4668:	490c      	ldr	r1, [pc, #48]	; (d469c <_Z15parsingLiveMemoi+0x80>)
    memo.write8(ee++, *p++);
   d466a:	4f0d      	ldr	r7, [pc, #52]	; (d46a0 <_Z15parsingLiveMemoi+0x84>)
    Serial.print(" ESCRIBIENDO EN LA POSICION ");
   d466c:	f002 f9ce 	bl	d6a0c <_ZN5Print5printEPKc>
    Serial.println(vectorPosicion);
   d4670:	f001 fe7e 	bl	d6370 <_Z16_fetch_usbserialv>
   d4674:	220a      	movs	r2, #10
   d4676:	4629      	mov	r1, r5
   d4678:	f7ff ffae 	bl	d45d8 <_ZN5Print7printlnIiLi0EEEjT_i>
  const byte *p = (const byte *)(const void *)&value;
   d467c:	ae01      	add	r6, sp, #4
    memo.write8(ee++, *p++);
   d467e:	1961      	adds	r1, r4, r5
   d4680:	f816 2b01 	ldrb.w	r2, [r6], #1
   d4684:	b289      	uxth	r1, r1
   d4686:	4638      	mov	r0, r7
  for (i = 0; i < sizeof(value); i++)
   d4688:	3401      	adds	r4, #1
    memo.write8(ee++, *p++);
   d468a:	f001 f9b0 	bl	d59ee <_ZN10eEPROM_I2C6write8Eth>
  for (i = 0; i < sizeof(value); i++)
   d468e:	2c2c      	cmp	r4, #44	; 0x2c
   d4690:	d1f5      	bne.n	d467e <_Z15parsingLiveMemoi+0x62>
}
   d4692:	b00d      	add	sp, #52	; 0x34
   d4694:	bdf0      	pop	{r4, r5, r6, r7, pc}
   d4696:	bf00      	nop
   d4698:	2003e464 	.word	0x2003e464
   d469c:	000d8016 	.word	0x000d8016
   d46a0:	2003e518 	.word	0x2003e518

000d46a4 <_Z15parsingMemoLivei>:
{
   d46a4:	b5f8      	push	{r3, r4, r5, r6, r7, lr}
  if (estructuraPrincipal.correct_init)
   d46a6:	4b0e      	ldr	r3, [pc, #56]	; (d46e0 <_Z15parsingMemoLivei+0x3c>)
   d46a8:	7c1b      	ldrb	r3, [r3, #16]
{
   d46aa:	4605      	mov	r5, r0
  if (estructuraPrincipal.correct_init)
   d46ac:	b1bb      	cbz	r3, d46de <_Z15parsingMemoLivei+0x3a>
    Serial.print(" RECUPERANDO EN LA POSICION ");
   d46ae:	f001 fe5f 	bl	d6370 <_Z16_fetch_usbserialv>
   d46b2:	490c      	ldr	r1, [pc, #48]	; (d46e4 <_Z15parsingMemoLivei+0x40>)
  byte *p = (byte *)(void *)&value;
   d46b4:	4e0c      	ldr	r6, [pc, #48]	; (d46e8 <_Z15parsingMemoLivei+0x44>)
    *p++ = memo.read8(ee++);
   d46b6:	4f0d      	ldr	r7, [pc, #52]	; (d46ec <_Z15parsingMemoLivei+0x48>)
    Serial.print(" RECUPERANDO EN LA POSICION ");
   d46b8:	f002 f9a8 	bl	d6a0c <_ZN5Print5printEPKc>
    Serial.println(vectorPosicion);
   d46bc:	f001 fe58 	bl	d6370 <_Z16_fetch_usbserialv>
   d46c0:	220a      	movs	r2, #10
   d46c2:	4629      	mov	r1, r5
   d46c4:	f7ff ff88 	bl	d45d8 <_ZN5Print7printlnIiLi0EEEjT_i>
  for (i = 0; i < sizeof(value); i++)
   d46c8:	2400      	movs	r4, #0
    *p++ = memo.read8(ee++);
   d46ca:	1961      	adds	r1, r4, r5
   d46cc:	b289      	uxth	r1, r1
   d46ce:	4638      	mov	r0, r7
   d46d0:	f001 f9b2 	bl	d5a38 <_ZN10eEPROM_I2C5read8Et>
  for (i = 0; i < sizeof(value); i++)
   d46d4:	3401      	adds	r4, #1
   d46d6:	2c2c      	cmp	r4, #44	; 0x2c
    *p++ = memo.read8(ee++);
   d46d8:	f806 0b01 	strb.w	r0, [r6], #1
  for (i = 0; i < sizeof(value); i++)
   d46dc:	d1f5      	bne.n	d46ca <_Z15parsingMemoLivei+0x26>
}
   d46de:	bdf8      	pop	{r3, r4, r5, r6, r7, pc}
   d46e0:	2003e464 	.word	0x2003e464
   d46e4:	000d8033 	.word	0x000d8033
   d46e8:	2003e39c 	.word	0x2003e39c
   d46ec:	2003e518 	.word	0x2003e518

000d46f0 <loop>:

void loop()
{
   d46f0:	e92d 4ff0 	stmdb	sp!, {r4, r5, r6, r7, r8, r9, sl, fp, lr}
  accel.clearInterrupt();
   d46f4:	4849      	ldr	r0, [pc, #292]	; (d481c <loop+0x12c>)
  if (millis() - crono > timeloop)
   d46f6:	4f4a      	ldr	r7, [pc, #296]	; (d4820 <loop+0x130>)
   d46f8:	4c4a      	ldr	r4, [pc, #296]	; (d4824 <loop+0x134>)
{
   d46fa:	b097      	sub	sp, #92	; 0x5c
  accel.clearInterrupt();
   d46fc:	f000 fc04 	bl	d4f08 <_ZN6LIS3DH14clearInterruptEv>
   d4700:	f001 fb34 	bl	d5d6c <HAL_Timer_Get_Milli_Seconds>
  if (millis() - crono > timeloop)
   d4704:	683b      	ldr	r3, [r7, #0]
   d4706:	1ac0      	subs	r0, r0, r3
   d4708:	6823      	ldr	r3, [r4, #0]
   d470a:	4298      	cmp	r0, r3
   d470c:	d97b      	bls.n	d4806 <loop+0x116>
  {
    switch (state)
   d470e:	4e46      	ldr	r6, [pc, #280]	; (d4828 <loop+0x138>)
   d4710:	7833      	ldrb	r3, [r6, #0]
   d4712:	2b03      	cmp	r3, #3
   d4714:	d874      	bhi.n	d4800 <loop+0x110>
   d4716:	e8df f003 	tbb	[pc, r3]
   d471a:	3902      	.short	0x3902
   d471c:	a179      	.short	0xa179
    {
    case INICIALIZADOR:
    {
      Serial.println("INICIALIZADOR");
   d471e:	f001 fe27 	bl	d6370 <_Z16_fetch_usbserialv>
   d4722:	4942      	ldr	r1, [pc, #264]	; (d482c <loop+0x13c>)
      digitalWrite(D6, HIGH);
      pinMode(D0, INPUT_PULLUP);
      pinMode(D1, INPUT_PULLUP);
      //configuramos placa
      setupGpsFeatherAg();
      estructuraPrincipal.correct_init = setupAcelIdc();
   d4724:	4c42      	ldr	r4, [pc, #264]	; (d4830 <loop+0x140>)
      Serial.println("INICIALIZADOR");
   d4726:	f002 f984 	bl	d6a32 <_ZN5Print7printlnEPKc>
      pinMode(D6, OUTPUT);
   d472a:	2101      	movs	r1, #1
   d472c:	2006      	movs	r0, #6
   d472e:	f002 fdd1 	bl	d72d4 <pinMode>
      digitalWrite(D6, HIGH);
   d4732:	2101      	movs	r1, #1
   d4734:	2006      	movs	r0, #6
   d4736:	f002 fdde 	bl	d72f6 <digitalWrite>
      pinMode(D0, INPUT_PULLUP);
   d473a:	2102      	movs	r1, #2
   d473c:	2000      	movs	r0, #0
   d473e:	f002 fdc9 	bl	d72d4 <pinMode>
      pinMode(D1, INPUT_PULLUP);
   d4742:	2102      	movs	r1, #2
   d4744:	2001      	movs	r0, #1
   d4746:	f002 fdc5 	bl	d72d4 <pinMode>
      setupGpsFeatherAg();
   d474a:	f7ff fd53 	bl	d41f4 <_Z17setupGpsFeatherAgv>
      estructuraPrincipal.correct_init = setupAcelIdc();
   d474e:	f7ff fe69 	bl	d4424 <_Z12setupAcelIdcv>
   d4752:	7420      	strb	r0, [r4, #16]
      estructuraPrincipal.correct_init = memo.begin() && estructuraPrincipal.correct_init;
   d4754:	f002 fd30 	bl	d71b8 <_Z19__fetch_global_Wirev>
   d4758:	2150      	movs	r1, #80	; 0x50
   d475a:	4602      	mov	r2, r0
   d475c:	4835      	ldr	r0, [pc, #212]	; (d4834 <loop+0x144>)
   d475e:	f001 f934 	bl	d59ca <_ZN10eEPROM_I2C5beginEhP7TwoWire>
   d4762:	b118      	cbz	r0, d476c <loop+0x7c>
   d4764:	7c20      	ldrb	r0, [r4, #16]
   d4766:	3800      	subs	r0, #0
   d4768:	bf18      	it	ne
   d476a:	2001      	movne	r0, #1
   d476c:	7420      	strb	r0, [r4, #16]

      //si placa ok consultamos veces de inicio
      if (estructuraPrincipal.correct_init)
   d476e:	7c23      	ldrb	r3, [r4, #16]
   d4770:	b153      	cbz	r3, d4788 <loop+0x98>
      {
        estructuraPrincipal.inic = memo.read8(0); //LEER PRIMERA POSICION DE MEMORIA
   d4772:	2100      	movs	r1, #0
   d4774:	482f      	ldr	r0, [pc, #188]	; (d4834 <loop+0x144>)
   d4776:	f001 f95f 	bl	d5a38 <_ZN10eEPROM_I2C5read8Et>
   d477a:	62a0      	str	r0, [r4, #40]	; 0x28
        memo.write8(0, estructuraPrincipal.inic + 1);
   d477c:	3001      	adds	r0, #1
   d477e:	b2c2      	uxtb	r2, r0
   d4780:	2100      	movs	r1, #0
   d4782:	482c      	ldr	r0, [pc, #176]	; (d4834 <loop+0x144>)
   d4784:	f001 f933 	bl	d59ee <_ZN10eEPROM_I2C6write8Eth>
      if (movementInterrupt)
      {
        movementInterrupt = false;
      }
      timeloop = 1000 * 5 * 0;
      state = LOOP;
   d4788:	2301      	movs	r3, #1
   d478a:	e038      	b.n	d47fe <loop+0x10e>
      Serial.println("LOOP");
   d478c:	f001 fdf0 	bl	d6370 <_Z16_fetch_usbserialv>
   d4790:	4929      	ldr	r1, [pc, #164]	; (d4838 <loop+0x148>)
   d4792:	f002 f94e 	bl	d6a32 <_ZN5Print7printlnEPKc>
      timeloop = 1000 * 1;
   d4796:	f44f 737a 	mov.w	r3, #1000	; 0x3e8
   d479a:	6023      	str	r3, [r4, #0]
      if (estructuraPrincipal.cantidadNodoEnCola == 0)
   d479c:	4c24      	ldr	r4, [pc, #144]	; (d4830 <loop+0x140>)
   d479e:	6a63      	ldr	r3, [r4, #36]	; 0x24
        parsingMemoLive(50 + (estructuraPrincipal.cantidadNodoEnCola * 50));
   d47a0:	2032      	movs	r0, #50	; 0x32
      if (estructuraPrincipal.cantidadNodoEnCola == 0)
   d47a2:	bb23      	cbnz	r3, d47ee <loop+0xfe>
        parsingMemoLive(50 + ((estructuraPrincipal.cantidadNodoEnCola - 1) * 50)); //recuperamos la estructura de memoria ubicada en la posicion 50
   d47a4:	f7ff ff7e 	bl	d46a4 <_Z15parsingMemoLivei>
      estructuraPrincipal.Counter++;
   d47a8:	69a3      	ldr	r3, [r4, #24]
   d47aa:	3301      	adds	r3, #1
   d47ac:	61a3      	str	r3, [r4, #24]
      estructuraPrincipal.lat = -32.21231;
   d47ae:	4b23      	ldr	r3, [pc, #140]	; (d483c <loop+0x14c>)
   d47b0:	6363      	str	r3, [r4, #52]	; 0x34
      estructuraPrincipal.lon = -69.23121;
   d47b2:	4b23      	ldr	r3, [pc, #140]	; (d4840 <loop+0x150>)
   d47b4:	63a3      	str	r3, [r4, #56]	; 0x38
      estructuraPrincipal.openBox = -123.00000;
   d47b6:	4b23      	ldr	r3, [pc, #140]	; (d4844 <loop+0x154>)
   d47b8:	60e3      	str	r3, [r4, #12]
      estructuraPrincipal.altura = 523.12321;
   d47ba:	4b23      	ldr	r3, [pc, #140]	; (d4848 <loop+0x158>)
   d47bc:	6023      	str	r3, [r4, #0]
      estructuraPrincipal.otrodato = 1223.21212;
   d47be:	4b23      	ldr	r3, [pc, #140]	; (d484c <loop+0x15c>)
   d47c0:	6063      	str	r3, [r4, #4]
      estructuraPrincipal.otrodatodos = 3923.19201;
   d47c2:	4b23      	ldr	r3, [pc, #140]	; (d4850 <loop+0x160>)
   d47c4:	60a3      	str	r3, [r4, #8]
      estructuraPrincipal.bat = 84.23;
   d47c6:	4b23      	ldr	r3, [pc, #140]	; (d4854 <loop+0x164>)
   d47c8:	6323      	str	r3, [r4, #48]	; 0x30
      estructuraPrincipal.whocharge = 2;
   d47ca:	2302      	movs	r3, #2
   d47cc:	62e3      	str	r3, [r4, #44]	; 0x2c
      updateTimeForPublish();
   d47ce:	f7ff fe55 	bl	d447c <_Z20updateTimeForPublishv>
      bool publicacionEfectiva = publishSensor(); //si realmente no lo publica el contador aumenta y grabara en 100 y nunca en 50!
   d47d2:	f7ff fe81 	bl	d44d8 <_Z13publishSensorv>
      parsingLiveMemo(50 + (estructuraPrincipal.cantidadNodoEnCola * 50)); //siempre los guardamos en la ubicacion que se consulto!
   d47d6:	6a63      	ldr	r3, [r4, #36]	; 0x24
      bool publicacionEfectiva = publishSensor(); //si realmente no lo publica el contador aumenta y grabara en 100 y nunca en 50!
   d47d8:	4605      	mov	r5, r0
      parsingLiveMemo(50 + (estructuraPrincipal.cantidadNodoEnCola * 50)); //siempre los guardamos en la ubicacion que se consulto!
   d47da:	2032      	movs	r0, #50	; 0x32
   d47dc:	fb03 0000 	mla	r0, r3, r0, r0
   d47e0:	f7ff ff1c 	bl	d461c <_Z15parsingLiveMemoi>
      if (publicacionEfectiva)
   d47e4:	b12d      	cbz	r5, d47f2 <loop+0x102>
   d47e6:	2300      	movs	r3, #0
   d47e8:	6263      	str	r3, [r4, #36]	; 0x24
          publishSensor();
          delay(2000);
        }
      }
      estructuraPrincipal.cantidadNodoEnCola = 0;
      state = LOGS;
   d47ea:	2302      	movs	r3, #2
   d47ec:	e007      	b.n	d47fe <loop+0x10e>
        parsingMemoLive(50 + ((estructuraPrincipal.cantidadNodoEnCola - 1) * 50)); //recuperamos la estructura de memoria ubicada en la posicion 50
   d47ee:	4358      	muls	r0, r3
   d47f0:	e7d8      	b.n	d47a4 <loop+0xb4>
        estructuraPrincipal.cantidadNodoEnCola++;
   d47f2:	6a63      	ldr	r3, [r4, #36]	; 0x24
   d47f4:	3301      	adds	r3, #1
      if (estructuraPrincipal.cantidadNodoEnCola > 9)
   d47f6:	2b09      	cmp	r3, #9
   d47f8:	6263      	str	r3, [r4, #36]	; 0x24
   d47fa:	ddf6      	ble.n	d47ea <loop+0xfa>
        state = RECUPERADOR;
   d47fc:	2303      	movs	r3, #3
      state = LOGS;
   d47fe:	7033      	strb	r3, [r6, #0]
   d4800:	f001 fab4 	bl	d5d6c <HAL_Timer_Get_Milli_Seconds>
      break;
    }
    }
    
    crono = millis();
   d4804:	6038      	str	r0, [r7, #0]
  }
}
   d4806:	b017      	add	sp, #92	; 0x5c
   d4808:	e8bd 8ff0 	ldmia.w	sp!, {r4, r5, r6, r7, r8, r9, sl, fp, pc}
      if (movementInterrupt)
   d480c:	4a12      	ldr	r2, [pc, #72]	; (d4858 <loop+0x168>)
   d480e:	7811      	ldrb	r1, [r2, #0]
   d4810:	2300      	movs	r3, #0
   d4812:	b101      	cbz	r1, d4816 <loop+0x126>
        movementInterrupt = false;
   d4814:	7013      	strb	r3, [r2, #0]
      timeloop = 1000 * 5 * 0;
   d4816:	6023      	str	r3, [r4, #0]
   d4818:	e7b6      	b.n	d4788 <loop+0x98>
   d481a:	bf00      	nop
   d481c:	2003e450 	.word	0x2003e450
   d4820:	2003e448 	.word	0x2003e448
   d4824:	2003e44c 	.word	0x2003e44c
   d4828:	2003e521 	.word	0x2003e521
   d482c:	000d8050 	.word	0x000d8050
   d4830:	2003e464 	.word	0x2003e464
   d4834:	2003e518 	.word	0x2003e518
   d4838:	000d805e 	.word	0x000d805e
   d483c:	c200d968 	.word	0xc200d968
   d4840:	c28a7661 	.word	0xc28a7661
   d4844:	c2f60000 	.word	0xc2f60000
   d4848:	4402c7e3 	.word	0x4402c7e3
   d484c:	4498e6ca 	.word	0x4498e6ca
   d4850:	45753312 	.word	0x45753312
   d4854:	42a875c3 	.word	0x42a875c3
   d4858:	2003e520 	.word	0x2003e520
        for (int i = 0; i < estructuraPrincipal.cantidadNodoEnCola; i++)
   d485c:	f8df 9234 	ldr.w	r9, [pc, #564]	; d4a94 <loop+0x3a4>
          Serial.print("RECUPERANDO UBICACION : ");Serial.println(aux);
   d4860:	f8df b234 	ldr.w	fp, [pc, #564]	; d4a98 <loop+0x3a8>
      Serial.println("RECUPERADOR");
   d4864:	f001 fd84 	bl	d6370 <_Z16_fetch_usbserialv>
   d4868:	497b      	ldr	r1, [pc, #492]	; (d4a58 <loop+0x368>)
   d486a:	f002 f8e2 	bl	d6a32 <_ZN5Print7printlnEPKc>
        for (int i = 0; i < estructuraPrincipal.cantidadNodoEnCola; i++)
   d486e:	464d      	mov	r5, r9
   d4870:	2300      	movs	r3, #0
   d4872:	1c5a      	adds	r2, r3, #1
   d4874:	9201      	str	r2, [sp, #4]
   d4876:	f8d9 2024 	ldr.w	r2, [r9, #36]	; 0x24
   d487a:	2432      	movs	r4, #50	; 0x32
   d487c:	429a      	cmp	r2, r3
   d487e:	fb03 4404 	mla	r4, r3, r4, r4
   d4882:	f340 80e4 	ble.w	d4a4e <loop+0x35e>
          Serial.print("RECUPERANDO UBICACION : ");Serial.println(aux);
   d4886:	f001 fd73 	bl	d6370 <_Z16_fetch_usbserialv>
   d488a:	4659      	mov	r1, fp
   d488c:	f002 f8be 	bl	d6a0c <_ZN5Print5printEPKc>
   d4890:	f001 fd6e 	bl	d6370 <_Z16_fetch_usbserialv>
   d4894:	220a      	movs	r2, #10
   d4896:	4621      	mov	r1, r4
   d4898:	f7ff fe9e 	bl	d45d8 <_ZN5Print7printlnIiLi0EEEjT_i>
          parsingMemoLive(aux); //recuperamos informacion de envio esta vez 50!
   d489c:	4620      	mov	r0, r4
          Serial.println(estructuraMemoria.unixtimeint);
   d489e:	4c6f      	ldr	r4, [pc, #444]	; (d4a5c <loop+0x36c>)
          parsingMemoLive(aux); //recuperamos informacion de envio esta vez 50!
   d48a0:	f7ff ff00 	bl	d46a4 <_Z15parsingMemoLivei>
          Serial.print(" unixtimeint ");
   d48a4:	f001 fd64 	bl	d6370 <_Z16_fetch_usbserialv>
   d48a8:	496d      	ldr	r1, [pc, #436]	; (d4a60 <loop+0x370>)
   d48aa:	f002 f8af 	bl	d6a0c <_ZN5Print5printEPKc>
          Serial.println(estructuraMemoria.unixtimeint);
   d48ae:	f001 fd5f 	bl	d6370 <_Z16_fetch_usbserialv>
   d48b2:	f8d4 8004 	ldr.w	r8, [r4, #4]
        if (n < 0 && base == 10) {
   d48b6:	f1b8 0f00 	cmp.w	r8, #0
   d48ba:	4682      	mov	sl, r0
   d48bc:	f280 80c3 	bge.w	d4a46 <loop+0x356>
            t = print('-');
   d48c0:	212d      	movs	r1, #45	; 0x2d
   d48c2:	f002 f8a7 	bl	d6a14 <_ZN5Print5printEc>
            val = -n;
   d48c6:	f1c8 0100 	rsb	r1, r8, #0
        return printNumber(val, base) + t;
   d48ca:	220a      	movs	r2, #10
   d48cc:	4650      	mov	r0, sl
   d48ce:	f002 f8ba 	bl	d6a46 <_ZN5Print11printNumberEmh>
        n += println();
   d48d2:	4650      	mov	r0, sl
   d48d4:	f002 f8a1 	bl	d6a1a <_ZN5Print7printlnEv>
          Serial.print(" bat ");
   d48d8:	f001 fd4a 	bl	d6370 <_Z16_fetch_usbserialv>
   d48dc:	4961      	ldr	r1, [pc, #388]	; (d4a64 <loop+0x374>)
   d48de:	f002 f895 	bl	d6a0c <_ZN5Print5printEPKc>
          Serial.println(estructuraMemoria.bat);
   d48e2:	f001 fd45 	bl	d6370 <_Z16_fetch_usbserialv>
   d48e6:	ed94 0a05 	vldr	s0, [r4, #20]
   d48ea:	2102      	movs	r1, #2
   d48ec:	f002 f99d 	bl	d6c2a <_ZN5Print7printlnEfi>
          Serial.print(" Counter ");
   d48f0:	f001 fd3e 	bl	d6370 <_Z16_fetch_usbserialv>
   d48f4:	495c      	ldr	r1, [pc, #368]	; (d4a68 <loop+0x378>)
   d48f6:	f002 f889 	bl	d6a0c <_ZN5Print5printEPKc>
          Serial.println(estructuraMemoria.Counter);
   d48fa:	f001 fd39 	bl	d6370 <_Z16_fetch_usbserialv>
   d48fe:	f8d4 8008 	ldr.w	r8, [r4, #8]
        if (n < 0 && base == 10) {
   d4902:	f1b8 0f00 	cmp.w	r8, #0
   d4906:	4682      	mov	sl, r0
   d4908:	f280 809f 	bge.w	d4a4a <loop+0x35a>
            t = print('-');
   d490c:	212d      	movs	r1, #45	; 0x2d
   d490e:	f002 f881 	bl	d6a14 <_ZN5Print5printEc>
            val = -n;
   d4912:	f1c8 0100 	rsb	r1, r8, #0
        return printNumber(val, base) + t;
   d4916:	220a      	movs	r2, #10
   d4918:	4650      	mov	r0, sl
   d491a:	f002 f894 	bl	d6a46 <_ZN5Print11printNumberEmh>
        n += println();
   d491e:	4650      	mov	r0, sl
   d4920:	f002 f87b 	bl	d6a1a <_ZN5Print7printlnEv>
          Serial.print(" lat ");
   d4924:	f001 fd24 	bl	d6370 <_Z16_fetch_usbserialv>
   d4928:	4950      	ldr	r1, [pc, #320]	; (d4a6c <loop+0x37c>)
   d492a:	f002 f86f 	bl	d6a0c <_ZN5Print5printEPKc>
          Serial.println(estructuraMemoria.lat);
   d492e:	f001 fd1f 	bl	d6370 <_Z16_fetch_usbserialv>
   d4932:	ed94 0a03 	vldr	s0, [r4, #12]
   d4936:	2102      	movs	r1, #2
   d4938:	f002 f977 	bl	d6c2a <_ZN5Print7printlnEfi>
          Serial.print(" lon ");
   d493c:	f001 fd18 	bl	d6370 <_Z16_fetch_usbserialv>
   d4940:	494b      	ldr	r1, [pc, #300]	; (d4a70 <loop+0x380>)
   d4942:	f002 f863 	bl	d6a0c <_ZN5Print5printEPKc>
          Serial.println(estructuraMemoria.lon);
   d4946:	f001 fd13 	bl	d6370 <_Z16_fetch_usbserialv>
   d494a:	ed94 0a04 	vldr	s0, [r4, #16]
   d494e:	2102      	movs	r1, #2
   d4950:	f002 f96b 	bl	d6c2a <_ZN5Print7printlnEfi>
          Serial.print(" altura ");
   d4954:	f001 fd0c 	bl	d6370 <_Z16_fetch_usbserialv>
   d4958:	4946      	ldr	r1, [pc, #280]	; (d4a74 <loop+0x384>)
   d495a:	f002 f857 	bl	d6a0c <_ZN5Print5printEPKc>
          Serial.println(estructuraMemoria.altura);
   d495e:	f001 fd07 	bl	d6370 <_Z16_fetch_usbserialv>
   d4962:	ed94 0a06 	vldr	s0, [r4, #24]
   d4966:	2102      	movs	r1, #2
   d4968:	f002 f95f 	bl	d6c2a <_ZN5Print7printlnEfi>
          Serial.print(" otrodato ");
   d496c:	f001 fd00 	bl	d6370 <_Z16_fetch_usbserialv>
   d4970:	4941      	ldr	r1, [pc, #260]	; (d4a78 <loop+0x388>)
   d4972:	f002 f84b 	bl	d6a0c <_ZN5Print5printEPKc>
          Serial.println(estructuraMemoria.otrodato);
   d4976:	f001 fcfb 	bl	d6370 <_Z16_fetch_usbserialv>
   d497a:	ed94 0a07 	vldr	s0, [r4, #28]
   d497e:	2102      	movs	r1, #2
   d4980:	f002 f953 	bl	d6c2a <_ZN5Print7printlnEfi>
          Serial.print(" otrodatodos ");
   d4984:	f001 fcf4 	bl	d6370 <_Z16_fetch_usbserialv>
   d4988:	493c      	ldr	r1, [pc, #240]	; (d4a7c <loop+0x38c>)
   d498a:	f002 f83f 	bl	d6a0c <_ZN5Print5printEPKc>
          Serial.println(estructuraMemoria.otrodatodos);
   d498e:	f001 fcef 	bl	d6370 <_Z16_fetch_usbserialv>
   d4992:	ed94 0a08 	vldr	s0, [r4, #32]
   d4996:	2102      	movs	r1, #2
   d4998:	f002 f947 	bl	d6c2a <_ZN5Print7printlnEfi>
          Serial.print(" openBox ");
   d499c:	f001 fce8 	bl	d6370 <_Z16_fetch_usbserialv>
   d49a0:	4937      	ldr	r1, [pc, #220]	; (d4a80 <loop+0x390>)
   d49a2:	f002 f833 	bl	d6a0c <_ZN5Print5printEPKc>
          Serial.println(estructuraMemoria.openBox);
   d49a6:	f001 fce3 	bl	d6370 <_Z16_fetch_usbserialv>
   d49aa:	ed94 0a09 	vldr	s0, [r4, #36]	; 0x24
   d49ae:	2102      	movs	r1, #2
   d49b0:	f002 f93b 	bl	d6c2a <_ZN5Print7printlnEfi>
          Serial.print(" correct_init ");
   d49b4:	f001 fcdc 	bl	d6370 <_Z16_fetch_usbserialv>
   d49b8:	4932      	ldr	r1, [pc, #200]	; (d4a84 <loop+0x394>)
   d49ba:	f002 f827 	bl	d6a0c <_ZN5Print5printEPKc>
          Serial.println(estructuraMemoria.correct_init);
   d49be:	f001 fcd7 	bl	d6370 <_Z16_fetch_usbserialv>
        return printNumber(val, base) + t;
   d49c2:	220a      	movs	r2, #10
   d49c4:	f894 1028 	ldrb.w	r1, [r4, #40]	; 0x28
   d49c8:	4680      	mov	r8, r0
   d49ca:	f002 f83c 	bl	d6a46 <_ZN5Print11printNumberEmh>
        n += println();
   d49ce:	4640      	mov	r0, r8
   d49d0:	f002 f823 	bl	d6a1a <_ZN5Print7printlnEv>
          Serial.print(" correct_init2 ");
   d49d4:	f001 fccc 	bl	d6370 <_Z16_fetch_usbserialv>
   d49d8:	492b      	ldr	r1, [pc, #172]	; (d4a88 <loop+0x398>)
   d49da:	f002 f817 	bl	d6a0c <_ZN5Print5printEPKc>
          Serial.println(estructuraMemoria.correct_init2);
   d49de:	f001 fcc7 	bl	d6370 <_Z16_fetch_usbserialv>
        return printNumber(val, base) + t;
   d49e2:	f894 1029 	ldrb.w	r1, [r4, #41]	; 0x29
   d49e6:	220a      	movs	r2, #10
   d49e8:	4680      	mov	r8, r0
   d49ea:	f002 f82c 	bl	d6a46 <_ZN5Print11printNumberEmh>
        n += println();
   d49ee:	4640      	mov	r0, r8
   d49f0:	f002 f813 	bl	d6a1a <_ZN5Print7printlnEv>
          estructuraPrincipal.unixtimeint = estructuraMemoria.unixtimeint;
   d49f4:	6863      	ldr	r3, [r4, #4]
          snprintf(data2, sizeof(data2), "%lu000000000", estructuraPrincipal.unixtimeint);
   d49f6:	4a25      	ldr	r2, [pc, #148]	; (d4a8c <loop+0x39c>)
          estructuraPrincipal.unixtimeint = estructuraMemoria.unixtimeint;
   d49f8:	622b      	str	r3, [r5, #32]
          snprintf(data2, sizeof(data2), "%lu000000000", estructuraPrincipal.unixtimeint);
   d49fa:	2150      	movs	r1, #80	; 0x50
   d49fc:	a802      	add	r0, sp, #8
   d49fe:	f001 faf1 	bl	d5fe4 <snprintf>
          estructuraPrincipal.unixtime = data2;
   d4a02:	a902      	add	r1, sp, #8
   d4a04:	4822      	ldr	r0, [pc, #136]	; (d4a90 <loop+0x3a0>)
   d4a06:	f002 fb95 	bl	d7134 <_ZN6StringaSEPKc>
          estructuraPrincipal.bat = estructuraMemoria.bat;
   d4a0a:	6963      	ldr	r3, [r4, #20]
   d4a0c:	632b      	str	r3, [r5, #48]	; 0x30
          estructuraPrincipal.Counter = estructuraMemoria.Counter;
   d4a0e:	68a3      	ldr	r3, [r4, #8]
   d4a10:	61ab      	str	r3, [r5, #24]
          estructuraPrincipal.lat = estructuraMemoria.lat;
   d4a12:	68e3      	ldr	r3, [r4, #12]
   d4a14:	636b      	str	r3, [r5, #52]	; 0x34
          estructuraPrincipal.lon = estructuraMemoria.lon;
   d4a16:	6923      	ldr	r3, [r4, #16]
   d4a18:	63ab      	str	r3, [r5, #56]	; 0x38
          estructuraPrincipal.altura = estructuraMemoria.altura;
   d4a1a:	69a3      	ldr	r3, [r4, #24]
   d4a1c:	602b      	str	r3, [r5, #0]
          estructuraPrincipal.otrodato = estructuraMemoria.otrodato;
   d4a1e:	69e3      	ldr	r3, [r4, #28]
   d4a20:	606b      	str	r3, [r5, #4]
          estructuraPrincipal.otrodatodos = estructuraMemoria.otrodatodos;
   d4a22:	6a23      	ldr	r3, [r4, #32]
   d4a24:	60ab      	str	r3, [r5, #8]
          estructuraPrincipal.openBox = estructuraMemoria.openBox;
   d4a26:	6a63      	ldr	r3, [r4, #36]	; 0x24
   d4a28:	60eb      	str	r3, [r5, #12]
          estructuraPrincipal.correct_init = estructuraMemoria.correct_init;
   d4a2a:	f894 3028 	ldrb.w	r3, [r4, #40]	; 0x28
   d4a2e:	742b      	strb	r3, [r5, #16]
          estructuraPrincipal.correct_init2 = estructuraMemoria.correct_init2;
   d4a30:	f894 3029 	ldrb.w	r3, [r4, #41]	; 0x29
   d4a34:	746b      	strb	r3, [r5, #17]
          publishSensor();
   d4a36:	f7ff fd4f 	bl	d44d8 <_Z13publishSensorv>
          delay(2000);
   d4a3a:	f44f 60fa 	mov.w	r0, #2000	; 0x7d0
   d4a3e:	f001 fd32 	bl	d64a6 <delay>
        for (int i = 0; i < estructuraPrincipal.cantidadNodoEnCola; i++)
   d4a42:	9b01      	ldr	r3, [sp, #4]
   d4a44:	e715      	b.n	d4872 <loop+0x182>
            val = n;
   d4a46:	4641      	mov	r1, r8
   d4a48:	e73f      	b.n	d48ca <loop+0x1da>
   d4a4a:	4641      	mov	r1, r8
   d4a4c:	e763      	b.n	d4916 <loop+0x226>
      estructuraPrincipal.cantidadNodoEnCola = 0;
   d4a4e:	2300      	movs	r3, #0
   d4a50:	f8c9 3024 	str.w	r3, [r9, #36]	; 0x24
   d4a54:	e6c9      	b.n	d47ea <loop+0xfa>
   d4a56:	bf00      	nop
   d4a58:	000d8063 	.word	0x000d8063
   d4a5c:	2003e39c 	.word	0x2003e39c
   d4a60:	000d8088 	.word	0x000d8088
   d4a64:	000d8096 	.word	0x000d8096
   d4a68:	000d809c 	.word	0x000d809c
   d4a6c:	000d80a6 	.word	0x000d80a6
   d4a70:	000d80ac 	.word	0x000d80ac
   d4a74:	000d80b2 	.word	0x000d80b2
   d4a78:	000d80bb 	.word	0x000d80bb
   d4a7c:	000d80c6 	.word	0x000d80c6
   d4a80:	000d80d4 	.word	0x000d80d4
   d4a84:	000d80de 	.word	0x000d80de
   d4a88:	000d80ed 	.word	0x000d80ed
   d4a8c:	000d7f3f 	.word	0x000d7f3f
   d4a90:	2003e4b0 	.word	0x2003e4b0
   d4a94:	2003e464 	.word	0x2003e464
   d4a98:	000d806f 	.word	0x000d806f

000d4a9c <_GLOBAL__sub_I_SystemMode>:
}
   d4a9c:	b5f8      	push	{r3, r4, r5, r6, r7, lr}
              error_(SYSTEM_ERROR_NONE) {
   d4a9e:	4c2f      	ldr	r4, [pc, #188]	; (d4b5c <_GLOBAL__sub_I_SystemMode+0xc0>)
SYSTEM_MODE(MANUAL);
   d4aa0:	4e2f      	ldr	r6, [pc, #188]	; (d4b60 <_GLOBAL__sub_I_SystemMode+0xc4>)
    SleepResult() {}
   d4aa2:	4b30      	ldr	r3, [pc, #192]	; (d4b64 <_GLOBAL__sub_I_SystemMode+0xc8>)
   d4aa4:	60a3      	str	r3, [r4, #8]
              error_(SYSTEM_ERROR_NONE) {
   d4aa6:	2500      	movs	r5, #0
   d4aa8:	6025      	str	r5, [r4, #0]
   d4aaa:	80a5      	strh	r5, [r4, #4]
    SleepResult() {}
   d4aac:	71a5      	strb	r5, [r4, #6]
public:

    SystemClass(System_Mode_TypeDef mode = DEFAULT) {
        set_system_mode(mode);
   d4aae:	2003      	movs	r0, #3
   d4ab0:	f001 fa44 	bl	d5f3c <set_system_mode>
struct estructuraDeDatosPrincipal
   d4ab4:	4f2c      	ldr	r7, [pc, #176]	; (d4b68 <_GLOBAL__sub_I_SystemMode+0xcc>)
SYSTEM_MODE(MANUAL);
   d4ab6:	492d      	ldr	r1, [pc, #180]	; (d4b6c <_GLOBAL__sub_I_SystemMode+0xd0>)
   d4ab8:	4632      	mov	r2, r6
   d4aba:	4620      	mov	r0, r4
struct estructuraDeDatosPrincipal
   d4abc:	4c2c      	ldr	r4, [pc, #176]	; (d4b70 <_GLOBAL__sub_I_SystemMode+0xd4>)
SYSTEM_MODE(MANUAL);
   d4abe:	f002 fc46 	bl	d734e <__aeabi_atexit>
struct estructuraDeDatosPrincipal
   d4ac2:	2300      	movs	r3, #0
   d4ac4:	6023      	str	r3, [r4, #0]
   d4ac6:	6323      	str	r3, [r4, #48]	; 0x30
   d4ac8:	6063      	str	r3, [r4, #4]
   d4aca:	6363      	str	r3, [r4, #52]	; 0x34
   d4acc:	60a3      	str	r3, [r4, #8]
   d4ace:	63a3      	str	r3, [r4, #56]	; 0x38
   d4ad0:	60e3      	str	r3, [r4, #12]
   d4ad2:	e9c4 5505 	strd	r5, r5, [r4, #20]
   d4ad6:	7425      	strb	r5, [r4, #16]
   d4ad8:	e9c4 5509 	strd	r5, r5, [r4, #36]	; 0x24
   d4adc:	7465      	strb	r5, [r4, #17]
   d4ade:	4639      	mov	r1, r7
   d4ae0:	f104 003c 	add.w	r0, r4, #60	; 0x3c
   d4ae4:	f002 faed 	bl	d70c2 <_ZN6StringC1EPKc>
   d4ae8:	4639      	mov	r1, r7
   d4aea:	f104 004c 	add.w	r0, r4, #76	; 0x4c
   d4aee:	f002 fae8 	bl	d70c2 <_ZN6StringC1EPKc>
   d4af2:	4920      	ldr	r1, [pc, #128]	; (d4b74 <_GLOBAL__sub_I_SystemMode+0xd8>)
   d4af4:	f104 005c 	add.w	r0, r4, #92	; 0x5c
   d4af8:	f002 fae3 	bl	d70c2 <_ZN6StringC1EPKc>
   d4afc:	4639      	mov	r1, r7
   d4afe:	f104 006c 	add.w	r0, r4, #108	; 0x6c
   d4b02:	f002 fade 	bl	d70c2 <_ZN6StringC1EPKc>
} estructuraPrincipal;
   d4b06:	4620      	mov	r0, r4
FuelGauge fuel;
   d4b08:	4c1b      	ldr	r4, [pc, #108]	; (d4b78 <_GLOBAL__sub_I_SystemMode+0xdc>)
} estructuraPrincipal;
   d4b0a:	491c      	ldr	r1, [pc, #112]	; (d4b7c <_GLOBAL__sub_I_SystemMode+0xe0>)
   d4b0c:	4632      	mov	r2, r6
   d4b0e:	f002 fc1e 	bl	d734e <__aeabi_atexit>
FuelGauge fuel;
   d4b12:	4629      	mov	r1, r5
   d4b14:	4620      	mov	r0, r4
   d4b16:	f001 fd67 	bl	d65e8 <_ZN9FuelGaugeC1Eb>
   d4b1a:	4620      	mov	r0, r4
AssetTracker gps;
   d4b1c:	4c18      	ldr	r4, [pc, #96]	; (d4b80 <_GLOBAL__sub_I_SystemMode+0xe4>)
FuelGauge fuel;
   d4b1e:	4919      	ldr	r1, [pc, #100]	; (d4b84 <_GLOBAL__sub_I_SystemMode+0xe8>)
   d4b20:	4632      	mov	r2, r6
   d4b22:	f002 fc14 	bl	d734e <__aeabi_atexit>
AssetTracker gps;
   d4b26:	4620      	mov	r0, r4
   d4b28:	f000 fda6 	bl	d5678 <_ZN12AssetTrackerC1Ev>
   d4b2c:	4632      	mov	r2, r6
   d4b2e:	4916      	ldr	r1, [pc, #88]	; (d4b88 <_GLOBAL__sub_I_SystemMode+0xec>)
   d4b30:	4620      	mov	r0, r4
   d4b32:	f002 fc0c 	bl	d734e <__aeabi_atexit>
eEPROM_I2C memo;
   d4b36:	4815      	ldr	r0, [pc, #84]	; (d4b8c <_GLOBAL__sub_I_SystemMode+0xf0>)
LIS3DHI2C accel(Wire, 0, D8);
   d4b38:	4c15      	ldr	r4, [pc, #84]	; (d4b90 <_GLOBAL__sub_I_SystemMode+0xf4>)
eEPROM_I2C memo;
   d4b3a:	f000 ff45 	bl	d59c8 <_ZN10eEPROM_I2CC1Ev>
LIS3DHI2C accel(Wire, 0, D8);
   d4b3e:	f002 fb3b 	bl	d71b8 <_Z19__fetch_global_Wirev>
   d4b42:	462a      	mov	r2, r5
   d4b44:	4601      	mov	r1, r0
   d4b46:	2308      	movs	r3, #8
   d4b48:	4620      	mov	r0, r4
   d4b4a:	f000 f9ff 	bl	d4f4c <_ZN9LIS3DHI2CC1ER7TwoWirehi>
   d4b4e:	4632      	mov	r2, r6
   d4b50:	4620      	mov	r0, r4
   d4b52:	4910      	ldr	r1, [pc, #64]	; (d4b94 <_GLOBAL__sub_I_SystemMode+0xf8>)
}
   d4b54:	e8bd 40f8 	ldmia.w	sp!, {r3, r4, r5, r6, r7, lr}
LIS3DHI2C accel(Wire, 0, D8);
   d4b58:	f002 bbf9 	b.w	d734e <__aeabi_atexit>
   d4b5c:	2003e43c 	.word	0x2003e43c
   d4b60:	2003e438 	.word	0x2003e438
   d4b64:	ffff0000 	.word	0xffff0000
   d4b68:	000d8438 	.word	0x000d8438
   d4b6c:	000d4107 	.word	0x000d4107
   d4b70:	2003e464 	.word	0x2003e464
   d4b74:	000d80fd 	.word	0x000d80fd
   d4b78:	2003e4e0 	.word	0x2003e4e0
   d4b7c:	000d40e1 	.word	0x000d40e1
   d4b80:	2003e4e8 	.word	0x2003e4e8
   d4b84:	000d6609 	.word	0x000d6609
   d4b88:	000d5611 	.word	0x000d5611
   d4b8c:	2003e518 	.word	0x2003e518
   d4b90:	2003e450 	.word	0x2003e450
   d4b94:	000d4b9d 	.word	0x000d4b9d

000d4b98 <_ZN8particle11SPISettingsD1Ev>:
  SPISettings()
  {
  }

  virtual ~SPISettings() {
  }
   d4b98:	4770      	bx	lr

000d4b9a <_ZN9LIS3DHSPID1Ev>:

LIS3DHSPI::LIS3DHSPI(SPIClass &spi, int ss, int intPin) : LIS3DH(intPin), spi(spi), ss(ss), spiSettings(10 * MHZ, MSBFIRST, SPI_MODE0) {
}

LIS3DHSPI::~LIS3DHSPI() {
}
   d4b9a:	4770      	bx	lr

000d4b9c <_ZN9LIS3DHI2CD1Ev>:

}

LIS3DHI2C::~LIS3DHI2C() {

}
   d4b9c:	4770      	bx	lr

000d4b9e <_ZN8particle11SPISettingsD0Ev>:
  virtual ~SPISettings() {
   d4b9e:	b510      	push	{r4, lr}
  }
   d4ba0:	2110      	movs	r1, #16
  virtual ~SPISettings() {
   d4ba2:	4604      	mov	r4, r0
  }
   d4ba4:	f002 fbd8 	bl	d7358 <_ZdlPvj>
   d4ba8:	4620      	mov	r0, r4
   d4baa:	bd10      	pop	{r4, pc}

000d4bac <_ZN9LIS3DHSPID0Ev>:
LIS3DHSPI::~LIS3DHSPI() {
   d4bac:	b510      	push	{r4, lr}
}
   d4bae:	2128      	movs	r1, #40	; 0x28
LIS3DHSPI::~LIS3DHSPI() {
   d4bb0:	4604      	mov	r4, r0
}
   d4bb2:	f002 fbd1 	bl	d7358 <_ZdlPvj>
   d4bb6:	4620      	mov	r0, r4
   d4bb8:	bd10      	pop	{r4, pc}

000d4bba <_ZN9LIS3DHI2CD0Ev>:
LIS3DHI2C::~LIS3DHI2C() {
   d4bba:	b510      	push	{r4, lr}
}
   d4bbc:	2114      	movs	r1, #20
LIS3DHI2C::~LIS3DHI2C() {
   d4bbe:	4604      	mov	r4, r0
}
   d4bc0:	f002 fbca 	bl	d7358 <_ZdlPvj>
   d4bc4:	4620      	mov	r0, r4
   d4bc6:	bd10      	pop	{r4, pc}

000d4bc8 <_ZN9LIS3DHSPI16beginTransactionEv>:
void LIS3DHSPI::beginTransaction() {
   d4bc8:	b510      	push	{r4, lr}
   d4bca:	4604      	mov	r4, r0
	spi.beginTransaction(spiSettings);
   d4bcc:	f100 0118 	add.w	r1, r0, #24
   d4bd0:	68c0      	ldr	r0, [r0, #12]
   d4bd2:	f002 f979 	bl	d6ec8 <_ZN8SPIClass16beginTransactionERKN8particle11SPISettingsE>
	digitalWrite(ss, LOW);
   d4bd6:	8a20      	ldrh	r0, [r4, #16]
   d4bd8:	2100      	movs	r1, #0
}
   d4bda:	e8bd 4010 	ldmia.w	sp!, {r4, lr}
	digitalWrite(ss, LOW);
   d4bde:	f002 bb8a 	b.w	d72f6 <digitalWrite>

000d4be2 <_ZN9LIS3DHSPI14endTransactionEv>:
void LIS3DHSPI::endTransaction() {
   d4be2:	b510      	push	{r4, lr}
   d4be4:	4604      	mov	r4, r0
	digitalWrite(ss, HIGH);
   d4be6:	2101      	movs	r1, #1
   d4be8:	8a00      	ldrh	r0, [r0, #16]
   d4bea:	f002 fb84 	bl	d72f6 <digitalWrite>
	spi.endTransaction();
   d4bee:	68e0      	ldr	r0, [r4, #12]
}
   d4bf0:	e8bd 4010 	ldmia.w	sp!, {r4, lr}
	spi.endTransaction();
   d4bf4:	f002 b94f 	b.w	d6e96 <_ZN8SPIClass14endTransactionEv>

000d4bf8 <_ZN9LIS3DHSPI8readDataEhPhj>:
bool LIS3DHSPI::readData(uint8_t addr, uint8_t *buf, size_t numBytes) {
   d4bf8:	b5f8      	push	{r3, r4, r5, r6, r7, lr}
   d4bfa:	461e      	mov	r6, r3
	beginTransaction();
   d4bfc:	6803      	ldr	r3, [r0, #0]
   d4bfe:	695b      	ldr	r3, [r3, #20]
bool LIS3DHSPI::readData(uint8_t addr, uint8_t *buf, size_t numBytes) {
   d4c00:	460f      	mov	r7, r1
   d4c02:	4614      	mov	r4, r2
   d4c04:	4605      	mov	r5, r0
	beginTransaction();
   d4c06:	4798      	blx	r3
	if (numBytes > 1) {
   d4c08:	2e01      	cmp	r6, #1
		addr |= SPI_INCREMENT;
   d4c0a:	bf88      	it	hi
   d4c0c:	f047 0740 	orrhi.w	r7, r7, #64	; 0x40
	spi.transfer(SPI_READ | addr);
   d4c10:	68e8      	ldr	r0, [r5, #12]
   d4c12:	f047 0180 	orr.w	r1, r7, #128	; 0x80
   d4c16:	f002 f9c5 	bl	d6fa4 <_ZN8SPIClass8transferEh>
	for(size_t ii = 0; ii < numBytes; ii++) {
   d4c1a:	4426      	add	r6, r4
   d4c1c:	42b4      	cmp	r4, r6
   d4c1e:	d006      	beq.n	d4c2e <_ZN9LIS3DHSPI8readDataEhPhj+0x36>
		buf[ii] = spi.transfer(0);
   d4c20:	68e8      	ldr	r0, [r5, #12]
   d4c22:	2100      	movs	r1, #0
   d4c24:	f002 f9be 	bl	d6fa4 <_ZN8SPIClass8transferEh>
   d4c28:	f804 0b01 	strb.w	r0, [r4], #1
	for(size_t ii = 0; ii < numBytes; ii++) {
   d4c2c:	e7f6      	b.n	d4c1c <_ZN9LIS3DHSPI8readDataEhPhj+0x24>
	endTransaction();
   d4c2e:	682b      	ldr	r3, [r5, #0]
   d4c30:	4628      	mov	r0, r5
   d4c32:	699b      	ldr	r3, [r3, #24]
   d4c34:	4798      	blx	r3
}
   d4c36:	2001      	movs	r0, #1
   d4c38:	bdf8      	pop	{r3, r4, r5, r6, r7, pc}

000d4c3a <_ZN9LIS3DHSPI9writeDataEhPKhj>:
bool LIS3DHSPI::writeData(uint8_t addr, const uint8_t *buf, size_t numBytes) {
   d4c3a:	b5f8      	push	{r3, r4, r5, r6, r7, lr}
   d4c3c:	461e      	mov	r6, r3
	beginTransaction();
   d4c3e:	6803      	ldr	r3, [r0, #0]
   d4c40:	695b      	ldr	r3, [r3, #20]
bool LIS3DHSPI::writeData(uint8_t addr, const uint8_t *buf, size_t numBytes) {
   d4c42:	460f      	mov	r7, r1
   d4c44:	4614      	mov	r4, r2
   d4c46:	4605      	mov	r5, r0
	beginTransaction();
   d4c48:	4798      	blx	r3
	if (numBytes > 1) {
   d4c4a:	2e01      	cmp	r6, #1
		addr |= SPI_INCREMENT;
   d4c4c:	bf88      	it	hi
   d4c4e:	f047 0740 	orrhi.w	r7, r7, #64	; 0x40
	spi.transfer(addr);
   d4c52:	68e8      	ldr	r0, [r5, #12]
   d4c54:	4639      	mov	r1, r7
   d4c56:	f002 f9a5 	bl	d6fa4 <_ZN8SPIClass8transferEh>
	for(size_t ii = 0; ii < numBytes; ii++) {
   d4c5a:	4426      	add	r6, r4
   d4c5c:	42b4      	cmp	r4, r6
   d4c5e:	d005      	beq.n	d4c6c <_ZN9LIS3DHSPI9writeDataEhPKhj+0x32>
		spi.transfer(buf[ii]);
   d4c60:	f814 1b01 	ldrb.w	r1, [r4], #1
   d4c64:	68e8      	ldr	r0, [r5, #12]
   d4c66:	f002 f99d 	bl	d6fa4 <_ZN8SPIClass8transferEh>
	for(size_t ii = 0; ii < numBytes; ii++) {
   d4c6a:	e7f7      	b.n	d4c5c <_ZN9LIS3DHSPI9writeDataEhPKhj+0x22>
	endTransaction();
   d4c6c:	682b      	ldr	r3, [r5, #0]
   d4c6e:	4628      	mov	r0, r5
   d4c70:	699b      	ldr	r3, [r3, #24]
   d4c72:	4798      	blx	r3
}
   d4c74:	2001      	movs	r0, #1
   d4c76:	bdf8      	pop	{r3, r4, r5, r6, r7, pc}

000d4c78 <_ZN9LIS3DHI2C9writeDataEhPKhj>:
		buf[ii] = wire.read();
	}
	return true;
}

bool LIS3DHI2C::writeData(uint8_t addr, const uint8_t *buf, size_t numBytes) {
   d4c78:	b5f8      	push	{r3, r4, r5, r6, r7, lr}
   d4c7a:	460e      	mov	r6, r1

	return (res == 0);
}

uint8_t LIS3DHI2C::getI2CAddr() const {
	uint8_t addr = (0b0011000 | sad0);
   d4c7c:	7c01      	ldrb	r1, [r0, #16]
bool LIS3DHI2C::writeData(uint8_t addr, const uint8_t *buf, size_t numBytes) {
   d4c7e:	4607      	mov	r7, r0
	wire.beginTransmission(getI2CAddr());
   d4c80:	f041 0118 	orr.w	r1, r1, #24
   d4c84:	68c0      	ldr	r0, [r0, #12]
bool LIS3DHI2C::writeData(uint8_t addr, const uint8_t *buf, size_t numBytes) {
   d4c86:	461d      	mov	r5, r3
   d4c88:	4614      	mov	r4, r2
	wire.beginTransmission(getI2CAddr());
   d4c8a:	f001 faf7 	bl	d627c <_ZN7TwoWire17beginTransmissionEh>
	wire.write(addr);
   d4c8e:	68f8      	ldr	r0, [r7, #12]
	if (numBytes > 1) {
   d4c90:	2d01      	cmp	r5, #1
	wire.write(addr);
   d4c92:	6803      	ldr	r3, [r0, #0]
		addr |= I2C_INCREMENT;
   d4c94:	bf88      	it	hi
   d4c96:	f046 0680 	orrhi.w	r6, r6, #128	; 0x80
	wire.write(addr);
   d4c9a:	689b      	ldr	r3, [r3, #8]
   d4c9c:	4631      	mov	r1, r6
   d4c9e:	4798      	blx	r3
	for(size_t ii = 0; ii < numBytes; ii++) {
   d4ca0:	4425      	add	r5, r4
   d4ca2:	42ac      	cmp	r4, r5
   d4ca4:	68f8      	ldr	r0, [r7, #12]
   d4ca6:	d005      	beq.n	d4cb4 <_ZN9LIS3DHI2C9writeDataEhPKhj+0x3c>
		wire.write(buf[ii]);
   d4ca8:	6803      	ldr	r3, [r0, #0]
   d4caa:	f814 1b01 	ldrb.w	r1, [r4], #1
   d4cae:	689b      	ldr	r3, [r3, #8]
   d4cb0:	4798      	blx	r3
	for(size_t ii = 0; ii < numBytes; ii++) {
   d4cb2:	e7f6      	b.n	d4ca2 <_ZN9LIS3DHI2C9writeDataEhPKhj+0x2a>
	uint8_t res = wire.endTransmission();
   d4cb4:	f001 faea 	bl	d628c <_ZN7TwoWire15endTransmissionEv>
}
   d4cb8:	fab0 f080 	clz	r0, r0
   d4cbc:	0940      	lsrs	r0, r0, #5
   d4cbe:	bdf8      	pop	{r3, r4, r5, r6, r7, pc}

000d4cc0 <_ZN9LIS3DHI2C8readDataEhPhj>:
bool LIS3DHI2C::readData(uint8_t addr, uint8_t *buf, size_t numBytes) {
   d4cc0:	b5f8      	push	{r3, r4, r5, r6, r7, lr}
   d4cc2:	460f      	mov	r7, r1
	uint8_t addr = (0b0011000 | sad0);
   d4cc4:	7c01      	ldrb	r1, [r0, #16]
bool LIS3DHI2C::readData(uint8_t addr, uint8_t *buf, size_t numBytes) {
   d4cc6:	4604      	mov	r4, r0
	wire.beginTransmission(getI2CAddr());
   d4cc8:	f041 0118 	orr.w	r1, r1, #24
   d4ccc:	68c0      	ldr	r0, [r0, #12]
bool LIS3DHI2C::readData(uint8_t addr, uint8_t *buf, size_t numBytes) {
   d4cce:	461e      	mov	r6, r3
   d4cd0:	4615      	mov	r5, r2
	wire.beginTransmission(getI2CAddr());
   d4cd2:	f001 fad3 	bl	d627c <_ZN7TwoWire17beginTransmissionEh>
	wire.write(addr);
   d4cd6:	68e0      	ldr	r0, [r4, #12]
	if (numBytes > 1) {
   d4cd8:	2e01      	cmp	r6, #1
	wire.write(addr);
   d4cda:	6803      	ldr	r3, [r0, #0]
		addr |= I2C_INCREMENT;
   d4cdc:	bf88      	it	hi
   d4cde:	f047 0780 	orrhi.w	r7, r7, #128	; 0x80
	wire.write(addr);
   d4ce2:	689b      	ldr	r3, [r3, #8]
   d4ce4:	4639      	mov	r1, r7
   d4ce6:	4798      	blx	r3
	uint8_t res = wire.endTransmission();
   d4ce8:	68e0      	ldr	r0, [r4, #12]
   d4cea:	f001 facf 	bl	d628c <_ZN7TwoWire15endTransmissionEv>
	if (res != 0) {
   d4cee:	b9c0      	cbnz	r0, d4d22 <_ZN9LIS3DHI2C8readDataEhPhj+0x62>
	uint8_t addr = (0b0011000 | sad0);
   d4cf0:	7c21      	ldrb	r1, [r4, #16]
	wire.requestFrom(getI2CAddr(), numBytes);
   d4cf2:	68e0      	ldr	r0, [r4, #12]
   d4cf4:	4632      	mov	r2, r6
   d4cf6:	f041 0118 	orr.w	r1, r1, #24
   d4cfa:	f001 fabc 	bl	d6276 <_ZN7TwoWire11requestFromEhj>
	for(size_t ii = 0; ii < numBytes && wire.available(); ii++) {
   d4cfe:	442e      	add	r6, r5
   d4d00:	42ae      	cmp	r6, r5
   d4d02:	d101      	bne.n	d4d08 <_ZN9LIS3DHI2C8readDataEhPhj+0x48>
bool LIS3DHI2C::readData(uint8_t addr, uint8_t *buf, size_t numBytes) {
   d4d04:	2001      	movs	r0, #1
}
   d4d06:	bdf8      	pop	{r3, r4, r5, r6, r7, pc}
	for(size_t ii = 0; ii < numBytes && wire.available(); ii++) {
   d4d08:	68e0      	ldr	r0, [r4, #12]
   d4d0a:	6803      	ldr	r3, [r0, #0]
   d4d0c:	691b      	ldr	r3, [r3, #16]
   d4d0e:	4798      	blx	r3
   d4d10:	2800      	cmp	r0, #0
   d4d12:	d0f7      	beq.n	d4d04 <_ZN9LIS3DHI2C8readDataEhPhj+0x44>
		buf[ii] = wire.read();
   d4d14:	68e0      	ldr	r0, [r4, #12]
   d4d16:	6803      	ldr	r3, [r0, #0]
   d4d18:	695b      	ldr	r3, [r3, #20]
   d4d1a:	4798      	blx	r3
   d4d1c:	f805 0b01 	strb.w	r0, [r5], #1
	for(size_t ii = 0; ii < numBytes && wire.available(); ii++) {
   d4d20:	e7ee      	b.n	d4d00 <_ZN9LIS3DHI2C8readDataEhPhj+0x40>
		return false;
   d4d22:	2000      	movs	r0, #0
   d4d24:	e7ef      	b.n	d4d06 <_ZN9LIS3DHI2C8readDataEhPhj+0x46>

000d4d26 <_ZN5Print6printfEPKcz>:
    size_t printf(const char* format, ...) __attribute__ ((format(printf, 2, 3)))
   d4d26:	b40e      	push	{r1, r2, r3}
   d4d28:	b503      	push	{r0, r1, lr}
   d4d2a:	ab03      	add	r3, sp, #12
        auto r = this->vprintf(false, format, args);
   d4d2c:	2100      	movs	r1, #0
    size_t printf(const char* format, ...) __attribute__ ((format(printf, 2, 3)))
   d4d2e:	f853 2b04 	ldr.w	r2, [r3], #4
        va_start(args, format);
   d4d32:	9301      	str	r3, [sp, #4]
        auto r = this->vprintf(false, format, args);
   d4d34:	f001 ff88 	bl	d6c48 <_ZN5Print7vprintfEbPKcSt9__va_list>
    }
   d4d38:	b002      	add	sp, #8
   d4d3a:	f85d eb04 	ldr.w	lr, [sp], #4
   d4d3e:	b003      	add	sp, #12
   d4d40:	4770      	bx	lr
	...

000d4d44 <_ZNK8particle11SPISettings7printToER5Print>:
  bool operator!=(const SPISettings& other) const
  {
    return !(other == *this);
  }

  virtual size_t printTo(Print& p) const
   d4d44:	b573      	push	{r0, r1, r4, r5, r6, lr}
   d4d46:	4604      	mov	r4, r0
   d4d48:	4608      	mov	r0, r1
  {
    if (default_ && clock_ == 0)
   d4d4a:	7922      	ldrb	r2, [r4, #4]
   d4d4c:	68a3      	ldr	r3, [r4, #8]
   d4d4e:	b132      	cbz	r2, d4d5e <_ZNK8particle11SPISettings7printToER5Print+0x1a>
   d4d50:	b9a3      	cbnz	r3, d4d7c <_ZNK8particle11SPISettings7printToER5Print+0x38>
      return p.print("<SPISettings default>");
   d4d52:	490b      	ldr	r1, [pc, #44]	; (d4d80 <_ZNK8particle11SPISettings7printToER5Print+0x3c>)
    else
      return p.printf("<SPISettings %s%u %s MODE%u>", default_ ? "default " : "", (unsigned int)clock_,
          bitOrder_ == MSBFIRST ? "MSB" : "LSB", (unsigned int)dataMode_);
  }
   d4d54:	b002      	add	sp, #8
   d4d56:	e8bd 4070 	ldmia.w	sp!, {r4, r5, r6, lr}
      return p.print("<SPISettings default>");
   d4d5a:	f001 be57 	b.w	d6a0c <_ZN5Print5printEPKc>
      return p.printf("<SPISettings %s%u %s MODE%u>", default_ ? "default " : "", (unsigned int)clock_,
   d4d5e:	4a09      	ldr	r2, [pc, #36]	; (d4d84 <_ZNK8particle11SPISettings7printToER5Print+0x40>)
   d4d60:	7b26      	ldrb	r6, [r4, #12]
   d4d62:	4d09      	ldr	r5, [pc, #36]	; (d4d88 <_ZNK8particle11SPISettings7printToER5Print+0x44>)
   d4d64:	4909      	ldr	r1, [pc, #36]	; (d4d8c <_ZNK8particle11SPISettings7printToER5Print+0x48>)
   d4d66:	7b64      	ldrb	r4, [r4, #13]
   d4d68:	2e01      	cmp	r6, #1
   d4d6a:	bf18      	it	ne
   d4d6c:	4629      	movne	r1, r5
   d4d6e:	e9cd 1400 	strd	r1, r4, [sp]
   d4d72:	4907      	ldr	r1, [pc, #28]	; (d4d90 <_ZNK8particle11SPISettings7printToER5Print+0x4c>)
   d4d74:	f7ff ffd7 	bl	d4d26 <_ZN5Print6printfEPKcz>
  }
   d4d78:	b002      	add	sp, #8
   d4d7a:	bd70      	pop	{r4, r5, r6, pc}
      return p.printf("<SPISettings %s%u %s MODE%u>", default_ ? "default " : "", (unsigned int)clock_,
   d4d7c:	4a05      	ldr	r2, [pc, #20]	; (d4d94 <_ZNK8particle11SPISettings7printToER5Print+0x50>)
   d4d7e:	e7ef      	b.n	d4d60 <_ZNK8particle11SPISettings7printToER5Print+0x1c>
   d4d80:	000d8118 	.word	0x000d8118
   d4d84:	000d8438 	.word	0x000d8438
   d4d88:	000d8114 	.word	0x000d8114
   d4d8c:	000d8110 	.word	0x000d8110
   d4d90:	000d812e 	.word	0x000d812e
   d4d94:	000d8107 	.word	0x000d8107

000d4d98 <_ZN12LIS3DHConfigC1Ev>:
LIS3DHConfig::LIS3DHConfig() {
   d4d98:	2200      	movs	r2, #0
   d4d9a:	7002      	strb	r2, [r0, #0]
   d4d9c:	7042      	strb	r2, [r0, #1]
   d4d9e:	7082      	strb	r2, [r0, #2]
   d4da0:	70c2      	strb	r2, [r0, #3]
   d4da2:	7102      	strb	r2, [r0, #4]
   d4da4:	7142      	strb	r2, [r0, #5]
   d4da6:	7182      	strb	r2, [r0, #6]
   d4da8:	71c2      	strb	r2, [r0, #7]
   d4daa:	7202      	strb	r2, [r0, #8]
   d4dac:	7242      	strb	r2, [r0, #9]
   d4dae:	7282      	strb	r2, [r0, #10]
}
   d4db0:	4770      	bx	lr

000d4db2 <_ZN12LIS3DHConfig19setLowPowerWakeModeEh>:
	reg1 = LIS3DH::CTRL_REG1_ODR1 | LIS3DH::CTRL_REG1_LPEN | LIS3DH::CTRL_REG1_ZEN | LIS3DH::CTRL_REG1_YEN | LIS3DH::CTRL_REG1_XEN;
   d4db2:	222f      	movs	r2, #47	; 0x2f
   d4db4:	7002      	strb	r2, [r0, #0]
	reg2 = LIS3DH::CTRL_REG2_FDS | LIS3DH::CTRL_REG2_HPIS1;
   d4db6:	2209      	movs	r2, #9
   d4db8:	7042      	strb	r2, [r0, #1]
	reg3 = LIS3DH::CTRL_REG3_I1_INT1;
   d4dba:	2240      	movs	r2, #64	; 0x40
   d4dbc:	7082      	strb	r2, [r0, #2]
	reg5 = LIS3DH::CTRL_REG5_LIR_INT1;
   d4dbe:	2208      	movs	r2, #8
   d4dc0:	7102      	strb	r2, [r0, #4]
	int1_cfg = LIS3DH::INT1_CFG_YHIE_YUPE | LIS3DH::INT1_CFG_XHIE_XUPE;
   d4dc2:	220a      	movs	r2, #10
	int1_ths = movementThreshold;
   d4dc4:	71c1      	strb	r1, [r0, #7]
	int1_cfg = LIS3DH::INT1_CFG_YHIE_YUPE | LIS3DH::INT1_CFG_XHIE_XUPE;
   d4dc6:	7242      	strb	r2, [r0, #9]
}
   d4dc8:	4770      	bx	lr

000d4dca <_ZN12LIS3DHConfig12setAccelModeEh>:
	reg2 = reg3 = reg5 = 0;
   d4dca:	2200      	movs	r2, #0
	reg1 = rate | LIS3DH::CTRL_REG1_ZEN | LIS3DH::CTRL_REG1_YEN | LIS3DH::CTRL_REG1_XEN;
   d4dcc:	f041 0107 	orr.w	r1, r1, #7
   d4dd0:	7001      	strb	r1, [r0, #0]
	reg2 = reg3 = reg5 = 0;
   d4dd2:	7102      	strb	r2, [r0, #4]
   d4dd4:	7082      	strb	r2, [r0, #2]
   d4dd6:	7042      	strb	r2, [r0, #1]
	int1_ths = 0;
   d4dd8:	71c2      	strb	r2, [r0, #7]
	int1_cfg = 0;
   d4dda:	7242      	strb	r2, [r0, #9]
}
   d4ddc:	4770      	bx	lr
	...

000d4de0 <_ZN6LIS3DHC1Ei>:
LIS3DH::LIS3DH(int intPin) : intPin(intPin) {
   d4de0:	4a02      	ldr	r2, [pc, #8]	; (d4dec <_ZN6LIS3DHC1Ei+0xc>)
   d4de2:	e9c0 2100 	strd	r2, r1, [r0]
   d4de6:	2200      	movs	r2, #0
   d4de8:	7202      	strb	r2, [r0, #8]
}
   d4dea:	4770      	bx	lr
   d4dec:	000d8178 	.word	0x000d8178

000d4df0 <_ZN6LIS3DH13readRegister8Eh>:
uint8_t LIS3DH::readRegister8(uint8_t addr) {
   d4df0:	b513      	push	{r0, r1, r4, lr}
	readData(addr, resp, sizeof(resp));
   d4df2:	6803      	ldr	r3, [r0, #0]
   d4df4:	aa01      	add	r2, sp, #4
   d4df6:	68dc      	ldr	r4, [r3, #12]
   d4df8:	2301      	movs	r3, #1
   d4dfa:	47a0      	blx	r4
}
   d4dfc:	f89d 0004 	ldrb.w	r0, [sp, #4]
   d4e00:	b002      	add	sp, #8
   d4e02:	bd10      	pop	{r4, pc}

000d4e04 <_ZN6LIS3DH9hasDeviceEv>:
bool LIS3DH::hasDevice() {
   d4e04:	b538      	push	{r3, r4, r5, lr}
   d4e06:	4605      	mov	r5, r0
   d4e08:	240a      	movs	r4, #10
		uint8_t whoami = readRegister8(REG_WHO_AM_I);
   d4e0a:	210f      	movs	r1, #15
   d4e0c:	4628      	mov	r0, r5
   d4e0e:	f7ff ffef 	bl	d4df0 <_ZN6LIS3DH13readRegister8Eh>
		if (whoami == WHO_AM_I) {
   d4e12:	2833      	cmp	r0, #51	; 0x33
			found = true;
   d4e14:	f04f 0001 	mov.w	r0, #1
		if (whoami == WHO_AM_I) {
   d4e18:	d004      	beq.n	d4e24 <_ZN6LIS3DH9hasDeviceEv+0x20>
		delay(1);
   d4e1a:	f001 fb44 	bl	d64a6 <delay>
	for(int tries = 0; tries < 10; tries++) {
   d4e1e:	3c01      	subs	r4, #1
   d4e20:	d1f3      	bne.n	d4e0a <_ZN6LIS3DH9hasDeviceEv+0x6>
	bool found = false;
   d4e22:	4620      	mov	r0, r4
}
   d4e24:	bd38      	pop	{r3, r4, r5, pc}

000d4e26 <_ZN9LIS3DHSPI9hasDeviceEv>:
bool LIS3DHSPI::hasDevice() {
   d4e26:	b510      	push	{r4, lr}
   d4e28:	4604      	mov	r4, r0
	spi.begin(ss);
   d4e2a:	8a01      	ldrh	r1, [r0, #16]
   d4e2c:	68c0      	ldr	r0, [r0, #12]
   d4e2e:	f002 f81f 	bl	d6e70 <_ZN8SPIClass5beginEt>
	return LIS3DH::hasDevice();
   d4e32:	4620      	mov	r0, r4
}
   d4e34:	e8bd 4010 	ldmia.w	sp!, {r4, lr}
	return LIS3DH::hasDevice();
   d4e38:	f7ff bfe4 	b.w	d4e04 <_ZN6LIS3DH9hasDeviceEv>

000d4e3c <_ZN6LIS3DH14writeRegister8Ehh>:
void LIS3DH::writeRegister8(uint8_t addr, uint8_t value) {
   d4e3c:	b513      	push	{r0, r1, r4, lr}
	writeData(addr, req, sizeof(req));
   d4e3e:	6803      	ldr	r3, [r0, #0]
	req[0] = value;
   d4e40:	f88d 2004 	strb.w	r2, [sp, #4]
	writeData(addr, req, sizeof(req));
   d4e44:	691c      	ldr	r4, [r3, #16]
   d4e46:	aa01      	add	r2, sp, #4
   d4e48:	2301      	movs	r3, #1
   d4e4a:	47a0      	blx	r4
}
   d4e4c:	b002      	add	sp, #8
   d4e4e:	bd10      	pop	{r4, pc}

000d4e50 <_ZN6LIS3DH5setupER12LIS3DHConfig>:
bool LIS3DH::setup(LIS3DHConfig &config) {
   d4e50:	b570      	push	{r4, r5, r6, lr}
	if (!hasDevice()) {
   d4e52:	6803      	ldr	r3, [r0, #0]
   d4e54:	689b      	ldr	r3, [r3, #8]
bool LIS3DH::setup(LIS3DHConfig &config) {
   d4e56:	4604      	mov	r4, r0
   d4e58:	460d      	mov	r5, r1
	if (!hasDevice()) {
   d4e5a:	4798      	blx	r3
   d4e5c:	4606      	mov	r6, r0
   d4e5e:	b930      	cbnz	r0, d4e6e <_ZN6LIS3DH5setupER12LIS3DHConfig+0x1e>
		Serial.println("device not found");
   d4e60:	f001 fa86 	bl	d6370 <_Z16_fetch_usbserialv>
   d4e64:	4927      	ldr	r1, [pc, #156]	; (d4f04 <_ZN6LIS3DH5setupER12LIS3DHConfig+0xb4>)
   d4e66:	f001 fde4 	bl	d6a32 <_ZN5Print7printlnEPKc>
}
   d4e6a:	4630      	mov	r0, r6
   d4e6c:	bd70      	pop	{r4, r5, r6, pc}
	writeRegister8(REG_CTRL_REG1, config.reg1);
   d4e6e:	782a      	ldrb	r2, [r5, #0]
   d4e70:	2120      	movs	r1, #32
   d4e72:	4620      	mov	r0, r4
   d4e74:	f7ff ffe2 	bl	d4e3c <_ZN6LIS3DH14writeRegister8Ehh>
	writeRegister8(REG_CTRL_REG2, config.reg2);
   d4e78:	786a      	ldrb	r2, [r5, #1]
   d4e7a:	2121      	movs	r1, #33	; 0x21
   d4e7c:	4620      	mov	r0, r4
   d4e7e:	f7ff ffdd 	bl	d4e3c <_ZN6LIS3DH14writeRegister8Ehh>
	writeRegister8(REG_CTRL_REG3, config.reg3);
   d4e82:	78aa      	ldrb	r2, [r5, #2]
   d4e84:	2122      	movs	r1, #34	; 0x22
   d4e86:	4620      	mov	r0, r4
   d4e88:	f7ff ffd8 	bl	d4e3c <_ZN6LIS3DH14writeRegister8Ehh>
	writeRegister8(REG_CTRL_REG4, config.reg4);
   d4e8c:	78ea      	ldrb	r2, [r5, #3]
   d4e8e:	2123      	movs	r1, #35	; 0x23
   d4e90:	4620      	mov	r0, r4
   d4e92:	f7ff ffd3 	bl	d4e3c <_ZN6LIS3DH14writeRegister8Ehh>
	writeRegister8(REG_CTRL_REG5, config.reg5);
   d4e96:	792a      	ldrb	r2, [r5, #4]
   d4e98:	2124      	movs	r1, #36	; 0x24
   d4e9a:	4620      	mov	r0, r4
   d4e9c:	f7ff ffce 	bl	d4e3c <_ZN6LIS3DH14writeRegister8Ehh>
	writeRegister8(REG_CTRL_REG6, config.reg6);
   d4ea0:	796a      	ldrb	r2, [r5, #5]
   d4ea2:	2125      	movs	r1, #37	; 0x25
   d4ea4:	4620      	mov	r0, r4
   d4ea6:	f7ff ffc9 	bl	d4e3c <_ZN6LIS3DH14writeRegister8Ehh>
	if (config.setReference) {
   d4eaa:	79ab      	ldrb	r3, [r5, #6]
   d4eac:	b11b      	cbz	r3, d4eb6 <_ZN6LIS3DH5setupER12LIS3DHConfig+0x66>
		readRegister8(REG_REFERENCE);
   d4eae:	2126      	movs	r1, #38	; 0x26
   d4eb0:	4620      	mov	r0, r4
   d4eb2:	f7ff ff9d 	bl	d4df0 <_ZN6LIS3DH13readRegister8Eh>
	writeRegister8(REG_FIFO_CTRL_REG, config.fifoCtrlReg);
   d4eb6:	7aaa      	ldrb	r2, [r5, #10]
   d4eb8:	212e      	movs	r1, #46	; 0x2e
   d4eba:	4620      	mov	r0, r4
   d4ebc:	f7ff ffbe 	bl	d4e3c <_ZN6LIS3DH14writeRegister8Ehh>
	if ((config.reg3 & CTRL_REG3_I1_INT1) != 0) {
   d4ec0:	78ab      	ldrb	r3, [r5, #2]
   d4ec2:	065b      	lsls	r3, r3, #25
   d4ec4:	d5d1      	bpl.n	d4e6a <_ZN6LIS3DH5setupER12LIS3DHConfig+0x1a>
		writeRegister8(REG_INT1_THS, config.int1_ths);
   d4ec6:	79ea      	ldrb	r2, [r5, #7]
   d4ec8:	2132      	movs	r1, #50	; 0x32
   d4eca:	4620      	mov	r0, r4
   d4ecc:	f7ff ffb6 	bl	d4e3c <_ZN6LIS3DH14writeRegister8Ehh>
		writeRegister8(REG_INT1_DURATION, config.int1_duration);
   d4ed0:	7a2a      	ldrb	r2, [r5, #8]
   d4ed2:	2133      	movs	r1, #51	; 0x33
   d4ed4:	4620      	mov	r0, r4
   d4ed6:	f7ff ffb1 	bl	d4e3c <_ZN6LIS3DH14writeRegister8Ehh>
		if (intPin >= 0) {
   d4eda:	6863      	ldr	r3, [r4, #4]
   d4edc:	2b00      	cmp	r3, #0
   d4ede:	db0a      	blt.n	d4ef6 <_ZN6LIS3DH5setupER12LIS3DHConfig+0xa6>
			int1_cfg = config.int1_cfg;
   d4ee0:	7a6a      	ldrb	r2, [r5, #9]
   d4ee2:	7222      	strb	r2, [r4, #8]
			writeRegister8(REG_INT1_CFG, int1_cfg);
   d4ee4:	4620      	mov	r0, r4
   d4ee6:	2130      	movs	r1, #48	; 0x30
   d4ee8:	f7ff ffa8 	bl	d4e3c <_ZN6LIS3DH14writeRegister8Ehh>
			readRegister8(REG_INT1_SRC);
   d4eec:	2131      	movs	r1, #49	; 0x31
   d4eee:	4620      	mov	r0, r4
   d4ef0:	f7ff ff7e 	bl	d4df0 <_ZN6LIS3DH13readRegister8Eh>
   d4ef4:	e7b9      	b.n	d4e6a <_ZN6LIS3DH5setupER12LIS3DHConfig+0x1a>
			int1_cfg = 0;
   d4ef6:	2200      	movs	r2, #0
   d4ef8:	7222      	strb	r2, [r4, #8]
			writeRegister8(REG_INT1_CFG, 0);
   d4efa:	2130      	movs	r1, #48	; 0x30
   d4efc:	4620      	mov	r0, r4
   d4efe:	f7ff ff9d 	bl	d4e3c <_ZN6LIS3DH14writeRegister8Ehh>
   d4f02:	e7b2      	b.n	d4e6a <_ZN6LIS3DH5setupER12LIS3DHConfig+0x1a>
   d4f04:	000d814b 	.word	0x000d814b

000d4f08 <_ZN6LIS3DH14clearInterruptEv>:
uint8_t LIS3DH::clearInterrupt() {
   d4f08:	b538      	push	{r3, r4, r5, lr}
	uint8_t int1_src = readRegister8(REG_INT1_SRC);
   d4f0a:	2131      	movs	r1, #49	; 0x31
uint8_t LIS3DH::clearInterrupt() {
   d4f0c:	4604      	mov	r4, r0
	uint8_t int1_src = readRegister8(REG_INT1_SRC);
   d4f0e:	f7ff ff6f 	bl	d4df0 <_ZN6LIS3DH13readRegister8Eh>
	writeRegister8(REG_INT1_CFG, int1_cfg);
   d4f12:	7a22      	ldrb	r2, [r4, #8]
	uint8_t int1_src = readRegister8(REG_INT1_SRC);
   d4f14:	4605      	mov	r5, r0
	writeRegister8(REG_INT1_CFG, int1_cfg);
   d4f16:	2130      	movs	r1, #48	; 0x30
   d4f18:	4620      	mov	r0, r4
   d4f1a:	f7ff ff8f 	bl	d4e3c <_ZN6LIS3DH14writeRegister8Ehh>
	if (intPin >= 0) {
   d4f1e:	6863      	ldr	r3, [r4, #4]
   d4f20:	2b00      	cmp	r3, #0
   d4f22:	db11      	blt.n	d4f48 <_ZN6LIS3DH14clearInterruptEv+0x40>
		while(digitalRead(intPin) == HIGH) {
   d4f24:	88a0      	ldrh	r0, [r4, #4]
   d4f26:	f002 f9ff 	bl	d7328 <digitalRead>
   d4f2a:	2801      	cmp	r0, #1
   d4f2c:	d10c      	bne.n	d4f48 <_ZN6LIS3DH14clearInterruptEv+0x40>
			delay(10);
   d4f2e:	200a      	movs	r0, #10
   d4f30:	f001 fab9 	bl	d64a6 <delay>
			readRegister8(REG_INT1_SRC);
   d4f34:	2131      	movs	r1, #49	; 0x31
   d4f36:	4620      	mov	r0, r4
   d4f38:	f7ff ff5a 	bl	d4df0 <_ZN6LIS3DH13readRegister8Eh>
			writeRegister8(REG_INT1_CFG, int1_cfg);
   d4f3c:	7a22      	ldrb	r2, [r4, #8]
   d4f3e:	2130      	movs	r1, #48	; 0x30
   d4f40:	4620      	mov	r0, r4
   d4f42:	f7ff ff7b 	bl	d4e3c <_ZN6LIS3DH14writeRegister8Ehh>
		while(digitalRead(intPin) == HIGH) {
   d4f46:	e7ed      	b.n	d4f24 <_ZN6LIS3DH14clearInterruptEv+0x1c>
}
   d4f48:	4628      	mov	r0, r5
   d4f4a:	bd38      	pop	{r3, r4, r5, pc}

000d4f4c <_ZN9LIS3DHI2CC1ER7TwoWirehi>:
LIS3DHI2C::LIS3DHI2C(TwoWire &wire, uint8_t sad0, int intPin) : LIS3DH(intPin), wire(wire), sad0(sad0) {
   d4f4c:	b510      	push	{r4, lr}
LIS3DH::LIS3DH(int intPin) : intPin(intPin) {
   d4f4e:	6043      	str	r3, [r0, #4]
   d4f50:	2300      	movs	r3, #0
   d4f52:	7203      	strb	r3, [r0, #8]
LIS3DHI2C::LIS3DHI2C(TwoWire &wire, uint8_t sad0, int intPin) : LIS3DH(intPin), wire(wire), sad0(sad0) {
   d4f54:	4b02      	ldr	r3, [pc, #8]	; (d4f60 <_ZN9LIS3DHI2CC1ER7TwoWirehi+0x14>)
   d4f56:	6003      	str	r3, [r0, #0]
   d4f58:	60c1      	str	r1, [r0, #12]
   d4f5a:	7402      	strb	r2, [r0, #16]
}
   d4f5c:	bd10      	pop	{r4, pc}
   d4f5e:	bf00      	nop
   d4f60:	000d8194 	.word	0x000d8194

000d4f64 <_ZN11TinyGPSDataC1Ev>:
	TinyGPSLocation() : valid(false), updated(false), lastCommitTime(0)
   d4f64:	2200      	movs	r2, #0
	TinyGPSDate() : valid(false), updated(false), date(0), newDate(0), lastCommitTime(0)
   d4f66:	e9c0 220f 	strd	r2, r2, [r0, #60]	; 0x3c
	TinyGPSTime() : valid(false), updated(false), time(0), newTime(0), lastCommitTime(0)
   d4f6a:	e9c0 2213 	strd	r2, r2, [r0, #76]	; 0x4c
	TinyGPSDecimal() : valid(false), updated(false), lastCommitTime(0), val(0), newval(0)
   d4f6e:	e9c0 2217 	strd	r2, r2, [r0, #92]	; 0x5c
   d4f72:	e9c0 221b 	strd	r2, r2, [r0, #108]	; 0x6c
	TinyGPSLocation() : valid(false), updated(false), lastCommitTime(0)
   d4f76:	8002      	strh	r2, [r0, #0]
	RawDegrees() : deg(0), billionths(0), negative(false)
   d4f78:	8082      	strh	r2, [r0, #4]
   d4f7a:	6082      	str	r2, [r0, #8]
   d4f7c:	7302      	strb	r2, [r0, #12]
   d4f7e:	8202      	strh	r2, [r0, #16]
   d4f80:	6142      	str	r2, [r0, #20]
   d4f82:	7602      	strb	r2, [r0, #24]
   d4f84:	8382      	strh	r2, [r0, #28]
   d4f86:	6202      	str	r2, [r0, #32]
   d4f88:	f880 2024 	strb.w	r2, [r0, #36]	; 0x24
   d4f8c:	8502      	strh	r2, [r0, #40]	; 0x28
   d4f8e:	62c2      	str	r2, [r0, #44]	; 0x2c
   d4f90:	f880 2030 	strb.w	r2, [r0, #48]	; 0x30
	TinyGPSLocation() : valid(false), updated(false), lastCommitTime(0)
   d4f94:	6342      	str	r2, [r0, #52]	; 0x34
	TinyGPSDate() : valid(false), updated(false), date(0), newDate(0), lastCommitTime(0)
   d4f96:	8702      	strh	r2, [r0, #56]	; 0x38
   d4f98:	6442      	str	r2, [r0, #68]	; 0x44
	TinyGPSTime() : valid(false), updated(false), time(0), newTime(0), lastCommitTime(0)
   d4f9a:	f8a0 2048 	strh.w	r2, [r0, #72]	; 0x48
   d4f9e:	6542      	str	r2, [r0, #84]	; 0x54
	TinyGPSDecimal() : valid(false), updated(false), lastCommitTime(0), val(0), newval(0)
   d4fa0:	f8a0 2058 	strh.w	r2, [r0, #88]	; 0x58
   d4fa4:	6642      	str	r2, [r0, #100]	; 0x64
   d4fa6:	f8a0 2068 	strh.w	r2, [r0, #104]	; 0x68
   d4faa:	6742      	str	r2, [r0, #116]	; 0x74
   d4fac:	f8a0 2078 	strh.w	r2, [r0, #120]	; 0x78
   d4fb0:	e9c0 221f 	strd	r2, r2, [r0, #124]	; 0x7c
   d4fb4:	e9c0 2223 	strd	r2, r2, [r0, #140]	; 0x8c
	TinyGPSInteger() : valid(false), updated(false), lastCommitTime(0), val(0), newval(0)
   d4fb8:	e9c0 2227 	strd	r2, r2, [r0, #156]	; 0x9c
	TinyGPSDecimal() : valid(false), updated(false), lastCommitTime(0), val(0), newval(0)
   d4fbc:	e9c0 222b 	strd	r2, r2, [r0, #172]	; 0xac
   d4fc0:	f8c0 2084 	str.w	r2, [r0, #132]	; 0x84
   d4fc4:	f8a0 2088 	strh.w	r2, [r0, #136]	; 0x88
   d4fc8:	f8c0 2094 	str.w	r2, [r0, #148]	; 0x94
	TinyGPSInteger() : valid(false), updated(false), lastCommitTime(0), val(0), newval(0)
   d4fcc:	f8a0 2098 	strh.w	r2, [r0, #152]	; 0x98
   d4fd0:	f8c0 20a4 	str.w	r2, [r0, #164]	; 0xa4
	TinyGPSDecimal() : valid(false), updated(false), lastCommitTime(0), val(0), newval(0)
   d4fd4:	f8a0 20a8 	strh.w	r2, [r0, #168]	; 0xa8
   d4fd8:	f8c0 20b4 	str.w	r2, [r0, #180]	; 0xb4
class TinyGPSData {
   d4fdc:	4770      	bx	lr

000d4fde <_ZN11TinyGPSPlusC1Ev>:
	return value * value;
}
#endif
// End

TinyGPSPlus::TinyGPSPlus()
   d4fde:	b510      	push	{r4, lr}
   d4fe0:	4604      	mov	r4, r0
  ,  customElts(0)
  ,  customCandidates(0)
  ,  encodedCharCount(0)
  ,  sentencesWithFixCount(0)
  ,  failedChecksumCount(0)
  ,  passedChecksumCount(0)
   d4fe2:	f7ff ffbf 	bl	d4f64 <_ZN11TinyGPSDataC1Ev>
   d4fe6:	f104 00b8 	add.w	r0, r4, #184	; 0xb8
   d4fea:	f7ff ffbb 	bl	d4f64 <_ZN11TinyGPSDataC1Ev>
   d4fee:	2302      	movs	r3, #2
   d4ff0:	f884 3181 	strb.w	r3, [r4, #385]	; 0x181
   d4ff4:	2300      	movs	r3, #0
   d4ff6:	e9c4 3362 	strd	r3, r3, [r4, #392]	; 0x188
   d4ffa:	e9c4 3364 	strd	r3, r3, [r4, #400]	; 0x190
   d4ffe:	e9c4 3366 	strd	r3, r3, [r4, #408]	; 0x198
   d5002:	f8a4 3182 	strh.w	r3, [r4, #386]	; 0x182
   d5006:	f884 3184 	strb.w	r3, [r4, #388]	; 0x184
   d500a:	f8a4 3170 	strh.w	r3, [r4, #368]	; 0x170
{
  term[0] = '\0';
   d500e:	f884 3172 	strb.w	r3, [r4, #370]	; 0x172
}
   d5012:	4620      	mov	r0, r4
   d5014:	bd10      	pop	{r4, pc}

000d5016 <_ZN11TinyGPSPlus7fromHexEc>:
//
// internal utilities
//
int TinyGPSPlus::fromHex(char a)
{
  if (a >= 'A' && a <= 'F')
   d5016:	f1a1 0341 	sub.w	r3, r1, #65	; 0x41
   d501a:	2b05      	cmp	r3, #5
   d501c:	d802      	bhi.n	d5024 <_ZN11TinyGPSPlus7fromHexEc+0xe>
    return a - 'A' + 10;
   d501e:	f1a1 0037 	sub.w	r0, r1, #55	; 0x37
   d5022:	4770      	bx	lr
  else if (a >= 'a' && a <= 'f')
   d5024:	f1a1 0361 	sub.w	r3, r1, #97	; 0x61
   d5028:	2b05      	cmp	r3, #5
    return a - 'a' + 10;
   d502a:	bf94      	ite	ls
   d502c:	f1a1 0057 	subls.w	r0, r1, #87	; 0x57
  else
    return a - '0';
   d5030:	f1a1 0030 	subhi.w	r0, r1, #48	; 0x30
}
   d5034:	4770      	bx	lr

000d5036 <_ZN11TinyGPSPlus12parseDecimalEPKc>:

// static
// Parse a (potentially negative) number with up to 2 decimal digits -xxxx.yy
int32_t TinyGPSPlus::parseDecimal(const char *term)
{
   d5036:	b538      	push	{r3, r4, r5, lr}
  bool negative = *term == '-';
   d5038:	7805      	ldrb	r5, [r0, #0]
{
   d503a:	4604      	mov	r4, r0
  if (negative) ++term;
   d503c:	2d2d      	cmp	r5, #45	; 0x2d
   d503e:	bf08      	it	eq
   d5040:	3401      	addeq	r4, #1
  int32_t ret = 100 * (int32_t)atol(term);
   d5042:	4620      	mov	r0, r4
   d5044:	f002 fe6c 	bl	d7d20 <atol>
   d5048:	2364      	movs	r3, #100	; 0x64
   d504a:	4358      	muls	r0, r3
   d504c:	4622      	mov	r2, r4
  while (isdigit(*term)) ++term;
   d504e:	f814 3b01 	ldrb.w	r3, [r4], #1
   d5052:	f1a3 0130 	sub.w	r1, r3, #48	; 0x30
   d5056:	2909      	cmp	r1, #9
   d5058:	d9f8      	bls.n	d504c <_ZN11TinyGPSPlus12parseDecimalEPKc+0x16>
  if (*term == '.' && isdigit(term[1]))
   d505a:	2b2e      	cmp	r3, #46	; 0x2e
   d505c:	d10b      	bne.n	d5076 <_ZN11TinyGPSPlus12parseDecimalEPKc+0x40>
   d505e:	7853      	ldrb	r3, [r2, #1]
   d5060:	3b30      	subs	r3, #48	; 0x30
   d5062:	2b09      	cmp	r3, #9
   d5064:	d807      	bhi.n	d5076 <_ZN11TinyGPSPlus12parseDecimalEPKc+0x40>
  {
    ret += 10 * (term[1] - '0');
   d5066:	210a      	movs	r1, #10
   d5068:	fb01 0003 	mla	r0, r1, r3, r0
    if (isdigit(term[2]))
   d506c:	7893      	ldrb	r3, [r2, #2]
   d506e:	3b30      	subs	r3, #48	; 0x30
   d5070:	2b09      	cmp	r3, #9
      ret += term[2] - '0';
   d5072:	bf98      	it	ls
   d5074:	18c0      	addls	r0, r0, r3
  }
  return negative ? -ret : ret;
   d5076:	2d2d      	cmp	r5, #45	; 0x2d
   d5078:	bf08      	it	eq
   d507a:	4240      	negeq	r0, r0
}
   d507c:	bd38      	pop	{r3, r4, r5, pc}
	...

000d5080 <_ZN11TinyGPSPlus12parseDegreesEPKcR10RawDegrees>:

// static
// Parse degrees in that funny NMEA format DDMM.MMMM
void TinyGPSPlus::parseDegrees(const char *term, RawDegrees &deg)
{
   d5080:	b538      	push	{r3, r4, r5, lr}
   d5082:	460d      	mov	r5, r1
   d5084:	4604      	mov	r4, r0
  uint32_t leftOfDecimal = (uint32_t)atol(term);
   d5086:	f002 fe4b 	bl	d7d20 <atol>
  uint16_t minutes = (uint16_t)(leftOfDecimal % 100);
   d508a:	2264      	movs	r2, #100	; 0x64
  uint32_t multiplier = 10000000UL;
  uint32_t tenMillionthsOfMinutes = minutes * multiplier;
   d508c:	4b13      	ldr	r3, [pc, #76]	; (d50dc <_ZN11TinyGPSPlus12parseDegreesEPKcR10RawDegrees+0x5c>)
  uint16_t minutes = (uint16_t)(leftOfDecimal % 100);
   d508e:	fbb0 f1f2 	udiv	r1, r0, r2
   d5092:	fb02 0011 	mls	r0, r2, r1, r0
  uint32_t tenMillionthsOfMinutes = minutes * multiplier;
   d5096:	4343      	muls	r3, r0

  deg.deg = (int16_t)(leftOfDecimal / 100);
   d5098:	8029      	strh	r1, [r5, #0]
   d509a:	4620      	mov	r0, r4

  while (isdigit(*term))
   d509c:	7802      	ldrb	r2, [r0, #0]
   d509e:	f1a2 0430 	sub.w	r4, r2, #48	; 0x30
   d50a2:	2c09      	cmp	r4, #9
   d50a4:	4601      	mov	r1, r0
   d50a6:	f100 0001 	add.w	r0, r0, #1
   d50aa:	d9f7      	bls.n	d509c <_ZN11TinyGPSPlus12parseDegreesEPKcR10RawDegrees+0x1c>
    ++term;

  if (*term == '.')
   d50ac:	2a2e      	cmp	r2, #46	; 0x2e
   d50ae:	d10b      	bne.n	d50c8 <_ZN11TinyGPSPlus12parseDegreesEPKcR10RawDegrees+0x48>
  uint32_t multiplier = 10000000UL;
   d50b0:	480a      	ldr	r0, [pc, #40]	; (d50dc <_ZN11TinyGPSPlus12parseDegreesEPKcR10RawDegrees+0x5c>)
    while (isdigit(*++term))
    {
      multiplier /= 10;
   d50b2:	240a      	movs	r4, #10
    while (isdigit(*++term))
   d50b4:	f811 2f01 	ldrb.w	r2, [r1, #1]!
   d50b8:	3a30      	subs	r2, #48	; 0x30
   d50ba:	2a09      	cmp	r2, #9
   d50bc:	d804      	bhi.n	d50c8 <_ZN11TinyGPSPlus12parseDegreesEPKcR10RawDegrees+0x48>
      multiplier /= 10;
   d50be:	fbb0 f0f4 	udiv	r0, r0, r4
      tenMillionthsOfMinutes += (*term - '0') * multiplier;
   d50c2:	fb00 3302 	mla	r3, r0, r2, r3
    while (isdigit(*++term))
   d50c6:	e7f5      	b.n	d50b4 <_ZN11TinyGPSPlus12parseDegreesEPKcR10RawDegrees+0x34>
    }

  deg.billionths = (5 * tenMillionthsOfMinutes + 1) / 3;
   d50c8:	eb03 0383 	add.w	r3, r3, r3, lsl #2
   d50cc:	3301      	adds	r3, #1
   d50ce:	2203      	movs	r2, #3
   d50d0:	fbb3 f3f2 	udiv	r3, r3, r2
   d50d4:	606b      	str	r3, [r5, #4]
  deg.negative = false;
   d50d6:	2300      	movs	r3, #0
   d50d8:	722b      	strb	r3, [r5, #8]
}
   d50da:	bd38      	pop	{r3, r4, r5, pc}
   d50dc:	00989680 	.word	0x00989680

000d50e0 <_ZN15TinyGPSLocation6commitEv>:
  int direction = (int)((course + 11.25f) / 22.5f);
  return directions[direction % 16];
}

void TinyGPSLocation::commit()
{
   d50e0:	b510      	push	{r4, lr}
   rawLatData = rawNewLatData;
   d50e2:	4603      	mov	r3, r0
{
   d50e4:	4604      	mov	r4, r0
   rawLatData = rawNewLatData;
   d50e6:	f853 2f1c 	ldr.w	r2, [r3, #28]!
   d50ea:	6042      	str	r2, [r0, #4]
   d50ec:	685a      	ldr	r2, [r3, #4]
   d50ee:	6082      	str	r2, [r0, #8]
   d50f0:	7a1b      	ldrb	r3, [r3, #8]
   d50f2:	7303      	strb	r3, [r0, #12]
   rawLngData = rawNewLngData;
   d50f4:	4603      	mov	r3, r0
   d50f6:	f853 2f28 	ldr.w	r2, [r3, #40]!
   d50fa:	6102      	str	r2, [r0, #16]
   d50fc:	685a      	ldr	r2, [r3, #4]
   d50fe:	6142      	str	r2, [r0, #20]
   d5100:	7a1b      	ldrb	r3, [r3, #8]
   d5102:	7603      	strb	r3, [r0, #24]
   d5104:	f000 fe32 	bl	d5d6c <HAL_Timer_Get_Milli_Seconds>
   lastCommitTime = millis();
   valid = updated = true;
   d5108:	f240 1301 	movw	r3, #257	; 0x101
   lastCommitTime = millis();
   d510c:	6360      	str	r0, [r4, #52]	; 0x34
   valid = updated = true;
   d510e:	8023      	strh	r3, [r4, #0]
}
   d5110:	bd10      	pop	{r4, pc}

000d5112 <_ZN11TinyGPSDate6commitEv>:
   double ret = rawLngData.deg + rawLngData.billionths / 1000000000.0;
   return rawLngData.negative ? -ret : ret;
}

void TinyGPSDate::commit()
{
   d5112:	b510      	push	{r4, lr}
   date = newDate;
   d5114:	6883      	ldr	r3, [r0, #8]
   d5116:	6043      	str	r3, [r0, #4]
{
   d5118:	4604      	mov	r4, r0
   d511a:	f000 fe27 	bl	d5d6c <HAL_Timer_Get_Milli_Seconds>
   lastCommitTime = millis();
   valid = updated = true;
   d511e:	f240 1301 	movw	r3, #257	; 0x101
   lastCommitTime = millis();
   d5122:	60e0      	str	r0, [r4, #12]
   valid = updated = true;
   d5124:	8023      	strh	r3, [r4, #0]
}
   d5126:	bd10      	pop	{r4, pc}

000d5128 <_ZN11TinyGPSTime6commitEv>:

void TinyGPSTime::commit()
{
   d5128:	b510      	push	{r4, lr}
   time = newTime;
   d512a:	6883      	ldr	r3, [r0, #8]
   d512c:	6043      	str	r3, [r0, #4]
{
   d512e:	4604      	mov	r4, r0
   d5130:	f000 fe1c 	bl	d5d6c <HAL_Timer_Get_Milli_Seconds>
   lastCommitTime = millis();
   valid = updated = true;
   d5134:	f240 1301 	movw	r3, #257	; 0x101
   lastCommitTime = millis();
   d5138:	60e0      	str	r0, [r4, #12]
   valid = updated = true;
   d513a:	8023      	strh	r3, [r4, #0]
}
   d513c:	bd10      	pop	{r4, pc}

000d513e <_ZN11TinyGPSTime7setTimeEPKc>:

void TinyGPSTime::setTime(const char *term)
{
   d513e:	b510      	push	{r4, lr}
   d5140:	4604      	mov	r4, r0
   newTime = (uint32_t)TinyGPSPlus::parseDecimal(term);
   d5142:	4608      	mov	r0, r1
   d5144:	f7ff ff77 	bl	d5036 <_ZN11TinyGPSPlus12parseDecimalEPKc>
   d5148:	60a0      	str	r0, [r4, #8]
}
   d514a:	bd10      	pop	{r4, pc}

000d514c <_ZN11TinyGPSDate7setDateEPKc>:

void TinyGPSDate::setDate(const char *term)
{
   d514c:	b510      	push	{r4, lr}
   d514e:	4604      	mov	r4, r0
   newDate = atol(term);
   d5150:	4608      	mov	r0, r1
   d5152:	f002 fde5 	bl	d7d20 <atol>
   d5156:	60a0      	str	r0, [r4, #8]
}
   d5158:	bd10      	pop	{r4, pc}

000d515a <_ZN11TinyGPSDate4yearEv>:

uint16_t TinyGPSDate::year()
{
   updated = false;
   uint16_t year = date % 100;
   d515a:	6842      	ldr	r2, [r0, #4]
   updated = false;
   d515c:	2300      	movs	r3, #0
   d515e:	7043      	strb	r3, [r0, #1]
   uint16_t year = date % 100;
   d5160:	2364      	movs	r3, #100	; 0x64
   d5162:	fbb2 f0f3 	udiv	r0, r2, r3
   d5166:	fb03 2010 	mls	r0, r3, r0, r2
   return year + 2000;
   d516a:	f500 60fa 	add.w	r0, r0, #2000	; 0x7d0
}
   d516e:	b280      	uxth	r0, r0
   d5170:	4770      	bx	lr

000d5172 <_ZN11TinyGPSDate5monthEv>:

uint8_t TinyGPSDate::month()
{
   updated = false;
   return (date / 100) % 100;
   d5172:	2264      	movs	r2, #100	; 0x64
   updated = false;
   d5174:	2300      	movs	r3, #0
   d5176:	7043      	strb	r3, [r0, #1]
   return (date / 100) % 100;
   d5178:	6840      	ldr	r0, [r0, #4]
   d517a:	fbb0 f0f2 	udiv	r0, r0, r2
   d517e:	fbb0 f3f2 	udiv	r3, r0, r2
   d5182:	fb02 0013 	mls	r0, r2, r3, r0
}
   d5186:	b2c0      	uxtb	r0, r0
   d5188:	4770      	bx	lr

000d518a <_ZN11TinyGPSDate3dayEv>:

uint8_t TinyGPSDate::day()
{
   updated = false;
   d518a:	2300      	movs	r3, #0
   d518c:	7043      	strb	r3, [r0, #1]
   return date / 10000;
   d518e:	6840      	ldr	r0, [r0, #4]
   d5190:	f242 7310 	movw	r3, #10000	; 0x2710
   d5194:	fbb0 f0f3 	udiv	r0, r0, r3
}
   d5198:	b2c0      	uxtb	r0, r0
   d519a:	4770      	bx	lr

000d519c <_ZN11TinyGPSTime4hourEv>:

uint8_t TinyGPSTime::hour()
{
   updated = false;
   d519c:	2300      	movs	r3, #0
   d519e:	7043      	strb	r3, [r0, #1]
   return time / 1000000;
   d51a0:	6840      	ldr	r0, [r0, #4]
   d51a2:	4b02      	ldr	r3, [pc, #8]	; (d51ac <_ZN11TinyGPSTime4hourEv+0x10>)
   d51a4:	fbb0 f0f3 	udiv	r0, r0, r3
}
   d51a8:	b2c0      	uxtb	r0, r0
   d51aa:	4770      	bx	lr
   d51ac:	000f4240 	.word	0x000f4240

000d51b0 <_ZN11TinyGPSTime6minuteEv>:

uint8_t TinyGPSTime::minute()
{
   updated = false;
   return (time / 10000) % 100;
   d51b0:	2264      	movs	r2, #100	; 0x64
   updated = false;
   d51b2:	2300      	movs	r3, #0
   d51b4:	7043      	strb	r3, [r0, #1]
   return (time / 10000) % 100;
   d51b6:	6840      	ldr	r0, [r0, #4]
   d51b8:	f242 7310 	movw	r3, #10000	; 0x2710
   d51bc:	fbb0 f0f3 	udiv	r0, r0, r3
   d51c0:	fbb0 f3f2 	udiv	r3, r0, r2
   d51c4:	fb02 0013 	mls	r0, r2, r3, r0
}
   d51c8:	b2c0      	uxtb	r0, r0
   d51ca:	4770      	bx	lr

000d51cc <_ZN11TinyGPSTime6secondEv>:

uint8_t TinyGPSTime::second()
{
   updated = false;
   return (time / 100) % 100;
   d51cc:	2264      	movs	r2, #100	; 0x64
   updated = false;
   d51ce:	2300      	movs	r3, #0
   d51d0:	7043      	strb	r3, [r0, #1]
   return (time / 100) % 100;
   d51d2:	6840      	ldr	r0, [r0, #4]
   d51d4:	fbb0 f0f2 	udiv	r0, r0, r2
   d51d8:	fbb0 f3f2 	udiv	r3, r0, r2
   d51dc:	fb02 0013 	mls	r0, r2, r3, r0
}
   d51e0:	b2c0      	uxtb	r0, r0
   d51e2:	4770      	bx	lr

000d51e4 <_ZN14TinyGPSDecimal6commitEv>:
   updated = false;
   return time % 100;
}

void TinyGPSDecimal::commit()
{
   d51e4:	b510      	push	{r4, lr}
   val = newval;
   d51e6:	68c3      	ldr	r3, [r0, #12]
   d51e8:	6083      	str	r3, [r0, #8]
{
   d51ea:	4604      	mov	r4, r0
   d51ec:	f000 fdbe 	bl	d5d6c <HAL_Timer_Get_Milli_Seconds>
   lastCommitTime = millis();
   valid = updated = true;
   d51f0:	f240 1301 	movw	r3, #257	; 0x101
   lastCommitTime = millis();
   d51f4:	6060      	str	r0, [r4, #4]
   valid = updated = true;
   d51f6:	8023      	strh	r3, [r4, #0]
}
   d51f8:	bd10      	pop	{r4, pc}

000d51fa <_ZN14TinyGPSDecimal3setEPKc>:

void TinyGPSDecimal::set(const char *term)
{
   d51fa:	b510      	push	{r4, lr}
   d51fc:	4604      	mov	r4, r0
   newval = TinyGPSPlus::parseDecimal(term);
   d51fe:	4608      	mov	r0, r1
   d5200:	f7ff ff19 	bl	d5036 <_ZN11TinyGPSPlus12parseDecimalEPKc>
   d5204:	60e0      	str	r0, [r4, #12]
}
   d5206:	bd10      	pop	{r4, pc}

000d5208 <_ZN14TinyGPSInteger6commitEv>:

void TinyGPSInteger::commit()
{
   d5208:	b510      	push	{r4, lr}
   val = newval;
   d520a:	68c3      	ldr	r3, [r0, #12]
   d520c:	6083      	str	r3, [r0, #8]
{
   d520e:	4604      	mov	r4, r0
   d5210:	f000 fdac 	bl	d5d6c <HAL_Timer_Get_Milli_Seconds>
   lastCommitTime = millis();
   valid = updated = true;
   d5214:	f240 1301 	movw	r3, #257	; 0x101
   lastCommitTime = millis();
   d5218:	6060      	str	r0, [r4, #4]
   valid = updated = true;
   d521a:	8023      	strh	r3, [r4, #0]
}
   d521c:	bd10      	pop	{r4, pc}

000d521e <_ZN14TinyGPSInteger3setEPKc>:

void TinyGPSInteger::set(const char *term)
{
   d521e:	b510      	push	{r4, lr}
   d5220:	4604      	mov	r4, r0
   newval = atol(term);
   d5222:	4608      	mov	r0, r1
   d5224:	f002 fd7c 	bl	d7d20 <atol>
   d5228:	60e0      	str	r0, [r4, #12]
}
   d522a:	bd10      	pop	{r4, pc}

000d522c <_ZN13TinyGPSCustom6commitEv>:
   // Insert this item into the GPS tree
   gps.insertCustom(this, _sentenceName, _termNumber);
}

void TinyGPSCustom::commit()
{
   d522c:	b510      	push	{r4, lr}
   strcpy(this->buffer, this->stagingBuffer);
   d522e:	4601      	mov	r1, r0
{
   d5230:	4604      	mov	r4, r0
   strcpy(this->buffer, this->stagingBuffer);
   d5232:	3010      	adds	r0, #16
   d5234:	f002 fdca 	bl	d7dcc <strcpy>
   d5238:	f000 fd98 	bl	d5d6c <HAL_Timer_Get_Milli_Seconds>
   lastCommitTime = millis();
   valid = updated = true;
   d523c:	f240 1301 	movw	r3, #257	; 0x101
   lastCommitTime = millis();
   d5240:	6220      	str	r0, [r4, #32]
   valid = updated = true;
   d5242:	84a3      	strh	r3, [r4, #36]	; 0x24
}
   d5244:	bd10      	pop	{r4, pc}

000d5246 <_ZN13TinyGPSCustom3setEPKc>:

void TinyGPSCustom::set(const char *term)
{
   strncpy(this->stagingBuffer, term, sizeof(this->stagingBuffer));
   d5246:	2210      	movs	r2, #16
   d5248:	f002 bdd0 	b.w	d7dec <strncpy>

000d524c <_ZN11TinyGPSPlus16endOfTermHandlerEv>:
{
   d524c:	b5f8      	push	{r3, r4, r5, r6, r7, lr}
  if (isChecksumTerm)
   d524e:	f890 5171 	ldrb.w	r5, [r0, #369]	; 0x171
{
   d5252:	4604      	mov	r4, r0
  if (isChecksumTerm)
   d5254:	2d00      	cmp	r5, #0
   d5256:	f000 8088 	beq.w	d536a <_ZN11TinyGPSPlus16endOfTermHandlerEv+0x11e>
    byte checksum = 16 * fromHex(term[0]) + fromHex(term[1]);
   d525a:	f890 1172 	ldrb.w	r1, [r0, #370]	; 0x172
   d525e:	f7ff feda 	bl	d5016 <_ZN11TinyGPSPlus7fromHexEc>
   d5262:	f894 1173 	ldrb.w	r1, [r4, #371]	; 0x173
   d5266:	4602      	mov	r2, r0
   d5268:	4620      	mov	r0, r4
   d526a:	f7ff fed4 	bl	d5016 <_ZN11TinyGPSPlus7fromHexEc>
    if (checksum == parity)
   d526e:	f894 3170 	ldrb.w	r3, [r4, #368]	; 0x170
    byte checksum = 16 * fromHex(term[0]) + fromHex(term[1]);
   d5272:	eb00 1002 	add.w	r0, r0, r2, lsl #4
    if (checksum == parity)
   d5276:	b2c0      	uxtb	r0, r0
   d5278:	4283      	cmp	r3, r0
   d527a:	d16e      	bne.n	d535a <_ZN11TinyGPSPlus16endOfTermHandlerEv+0x10e>
      passedChecksumCount++;
   d527c:	f8d4 319c 	ldr.w	r3, [r4, #412]	; 0x19c
   d5280:	3301      	adds	r3, #1
   d5282:	f8c4 319c 	str.w	r3, [r4, #412]	; 0x19c
      if (sentenceHasFix)
   d5286:	f894 3184 	ldrb.w	r3, [r4, #388]	; 0x184
   d528a:	b123      	cbz	r3, d5296 <_ZN11TinyGPSPlus16endOfTermHandlerEv+0x4a>
        ++sentencesWithFixCount;
   d528c:	f8d4 3194 	ldr.w	r3, [r4, #404]	; 0x194
   d5290:	3301      	adds	r3, #1
   d5292:	f8c4 3194 	str.w	r3, [r4, #404]	; 0x194
      switch(curSentenceType)
   d5296:	f894 3181 	ldrb.w	r3, [r4, #385]	; 0x181
   d529a:	b3e3      	cbz	r3, d5316 <_ZN11TinyGPSPlus16endOfTermHandlerEv+0xca>
   d529c:	2b01      	cmp	r3, #1
   d529e:	d12b      	bne.n	d52f8 <_ZN11TinyGPSPlus16endOfTermHandlerEv+0xac>
    	tempData.date.commit();
   d52a0:	f104 00f0 	add.w	r0, r4, #240	; 0xf0
   d52a4:	f7ff ff35 	bl	d5112 <_ZN11TinyGPSDate6commitEv>
    	tempData.time.commit();
   d52a8:	f504 7080 	add.w	r0, r4, #256	; 0x100
   d52ac:	f7ff ff3c 	bl	d5128 <_ZN11TinyGPSTime6commitEv>
        if (sentenceHasFix)
   d52b0:	f894 3184 	ldrb.w	r3, [r4, #388]	; 0x184
   d52b4:	f104 06b8 	add.w	r6, r4, #184	; 0xb8
   d52b8:	b15b      	cbz	r3, d52d2 <_ZN11TinyGPSPlus16endOfTermHandlerEv+0x86>
           tempData.location.commit();
   d52ba:	4630      	mov	r0, r6
   d52bc:	f7ff ff10 	bl	d50e0 <_ZN15TinyGPSLocation6commitEv>
           tempData.speed.commit();
   d52c0:	f504 7088 	add.w	r0, r4, #272	; 0x110
   d52c4:	f7ff ff8e 	bl	d51e4 <_ZN14TinyGPSDecimal6commitEv>
           tempData.course.commit();
   d52c8:	f504 7090 	add.w	r0, r4, #288	; 0x120
        tempData.hdop.commit();
   d52cc:	f7ff ff8a 	bl	d51e4 <_ZN14TinyGPSDecimal6commitEv>
   d52d0:	e005      	b.n	d52de <_ZN11TinyGPSPlus16endOfTermHandlerEv+0x92>
	void invalidate() { valid = false; }
   d52d2:	f884 30b8 	strb.w	r3, [r4, #184]	; 0xb8
	void invalidate() { valid = false; }
   d52d6:	f884 3110 	strb.w	r3, [r4, #272]	; 0x110
   d52da:	f884 3120 	strb.w	r3, [r4, #288]	; 0x120
        os_thread_scheduling(false, NULL);
   d52de:	2100      	movs	r1, #0
   d52e0:	4608      	mov	r0, r1
   d52e2:	f000 fd0b 	bl	d5cfc <os_thread_scheduling>
        	TinyGPSData::operator=(tempData);
   d52e6:	4631      	mov	r1, r6
   d52e8:	22b8      	movs	r2, #184	; 0xb8
   d52ea:	4620      	mov	r0, r4
   d52ec:	f002 fd2a 	bl	d7d44 <memcpy>
        os_thread_scheduling(true, NULL);
   d52f0:	2100      	movs	r1, #0
   d52f2:	2001      	movs	r0, #1
   d52f4:	f000 fd02 	bl	d5cfc <os_thread_scheduling>
      for (TinyGPSCustom *p = customCandidates; p != NULL && strcmp(p->sentenceName, customCandidates->sentenceName) == 0; p = p->next)
   d52f8:	f8d4 618c 	ldr.w	r6, [r4, #396]	; 0x18c
   d52fc:	b39e      	cbz	r6, d5366 <_ZN11TinyGPSPlus16endOfTermHandlerEv+0x11a>
   d52fe:	f8d4 318c 	ldr.w	r3, [r4, #396]	; 0x18c
   d5302:	6ab0      	ldr	r0, [r6, #40]	; 0x28
   d5304:	6a99      	ldr	r1, [r3, #40]	; 0x28
   d5306:	f002 fd57 	bl	d7db8 <strcmp>
   d530a:	bb60      	cbnz	r0, d5366 <_ZN11TinyGPSPlus16endOfTermHandlerEv+0x11a>
         p->commit();
   d530c:	4630      	mov	r0, r6
   d530e:	f7ff ff8d 	bl	d522c <_ZN13TinyGPSCustom6commitEv>
      for (TinyGPSCustom *p = customCandidates; p != NULL && strcmp(p->sentenceName, customCandidates->sentenceName) == 0; p = p->next)
   d5312:	6b36      	ldr	r6, [r6, #48]	; 0x30
   d5314:	e7f2      	b.n	d52fc <_ZN11TinyGPSPlus16endOfTermHandlerEv+0xb0>
        tempData.time.commit();
   d5316:	f504 7080 	add.w	r0, r4, #256	; 0x100
   d531a:	f7ff ff05 	bl	d5128 <_ZN11TinyGPSTime6commitEv>
        if (sentenceHasFix)
   d531e:	f894 3184 	ldrb.w	r3, [r4, #388]	; 0x184
   d5322:	f104 06b8 	add.w	r6, r4, #184	; 0xb8
   d5326:	b18b      	cbz	r3, d534c <_ZN11TinyGPSPlus16endOfTermHandlerEv+0x100>
          tempData.location.commit();
   d5328:	4630      	mov	r0, r6
   d532a:	f7ff fed9 	bl	d50e0 <_ZN15TinyGPSLocation6commitEv>
          tempData.altitude.commit();
   d532e:	f504 7098 	add.w	r0, r4, #304	; 0x130
   d5332:	f7ff ff57 	bl	d51e4 <_ZN14TinyGPSDecimal6commitEv>
          tempData.geoidSeparation.commit();
   d5336:	f504 70a0 	add.w	r0, r4, #320	; 0x140
   d533a:	f7ff ff53 	bl	d51e4 <_ZN14TinyGPSDecimal6commitEv>
        tempData.satellites.commit();
   d533e:	f504 70a8 	add.w	r0, r4, #336	; 0x150
   d5342:	f7ff ff61 	bl	d5208 <_ZN14TinyGPSInteger6commitEv>
        tempData.hdop.commit();
   d5346:	f504 70b0 	add.w	r0, r4, #352	; 0x160
   d534a:	e7bf      	b.n	d52cc <_ZN11TinyGPSPlus16endOfTermHandlerEv+0x80>
	void invalidate() { valid = false; }
   d534c:	f884 30b8 	strb.w	r3, [r4, #184]	; 0xb8
	void invalidate() { valid = false; }
   d5350:	f884 3130 	strb.w	r3, [r4, #304]	; 0x130
   d5354:	f884 3140 	strb.w	r3, [r4, #320]	; 0x140
   d5358:	e7f1      	b.n	d533e <_ZN11TinyGPSPlus16endOfTermHandlerEv+0xf2>
      ++failedChecksumCount;
   d535a:	f8d4 3198 	ldr.w	r3, [r4, #408]	; 0x198
   d535e:	3301      	adds	r3, #1
   d5360:	f8c4 3198 	str.w	r3, [r4, #408]	; 0x198
    return false;
   d5364:	2500      	movs	r5, #0
}
   d5366:	4628      	mov	r0, r5
   d5368:	bdf8      	pop	{r3, r4, r5, r6, r7, pc}
  if (curTermNumber == 0)
   d536a:	f890 2182 	ldrb.w	r2, [r0, #386]	; 0x182
   d536e:	bb6a      	cbnz	r2, d53cc <_ZN11TinyGPSPlus16endOfTermHandlerEv+0x180>
    if (!strcmp(term, _GPRMCterm) || !strcmp(term, "GNRMC"))
   d5370:	f500 76b9 	add.w	r6, r0, #370	; 0x172
   d5374:	4960      	ldr	r1, [pc, #384]	; (d54f8 <_ZN11TinyGPSPlus16endOfTermHandlerEv+0x2ac>)
   d5376:	4630      	mov	r0, r6
   d5378:	f002 fd1e 	bl	d7db8 <strcmp>
   d537c:	b120      	cbz	r0, d5388 <_ZN11TinyGPSPlus16endOfTermHandlerEv+0x13c>
   d537e:	495f      	ldr	r1, [pc, #380]	; (d54fc <_ZN11TinyGPSPlus16endOfTermHandlerEv+0x2b0>)
   d5380:	4630      	mov	r0, r6
   d5382:	f002 fd19 	bl	d7db8 <strcmp>
   d5386:	b998      	cbnz	r0, d53b0 <_ZN11TinyGPSPlus16endOfTermHandlerEv+0x164>
      curSentenceType = GPS_SENTENCE_GPRMC;
   d5388:	2301      	movs	r3, #1
      curSentenceType = GPS_SENTENCE_OTHER;
   d538a:	f884 3181 	strb.w	r3, [r4, #385]	; 0x181
    for (customCandidates = customElts; customCandidates != NULL && strcmp(customCandidates->sentenceName, term) < 0; customCandidates = customCandidates->next);
   d538e:	f8d4 3188 	ldr.w	r3, [r4, #392]	; 0x188
   d5392:	f8c4 318c 	str.w	r3, [r4, #396]	; 0x18c
   d5396:	f8d4 718c 	ldr.w	r7, [r4, #396]	; 0x18c
   d539a:	2f00      	cmp	r7, #0
   d539c:	d0e3      	beq.n	d5366 <_ZN11TinyGPSPlus16endOfTermHandlerEv+0x11a>
   d539e:	6ab8      	ldr	r0, [r7, #40]	; 0x28
   d53a0:	4631      	mov	r1, r6
   d53a2:	f002 fd09 	bl	d7db8 <strcmp>
   d53a6:	2800      	cmp	r0, #0
   d53a8:	f280 809f 	bge.w	d54ea <_ZN11TinyGPSPlus16endOfTermHandlerEv+0x29e>
   d53ac:	6b3b      	ldr	r3, [r7, #48]	; 0x30
   d53ae:	e7f0      	b.n	d5392 <_ZN11TinyGPSPlus16endOfTermHandlerEv+0x146>
    else if (!strcmp(term, _GPGGAterm) ||!strcmp(term, "GNGGA"))
   d53b0:	4953      	ldr	r1, [pc, #332]	; (d5500 <_ZN11TinyGPSPlus16endOfTermHandlerEv+0x2b4>)
   d53b2:	4630      	mov	r0, r6
   d53b4:	f002 fd00 	bl	d7db8 <strcmp>
   d53b8:	b120      	cbz	r0, d53c4 <_ZN11TinyGPSPlus16endOfTermHandlerEv+0x178>
   d53ba:	4952      	ldr	r1, [pc, #328]	; (d5504 <_ZN11TinyGPSPlus16endOfTermHandlerEv+0x2b8>)
   d53bc:	4630      	mov	r0, r6
   d53be:	f002 fcfb 	bl	d7db8 <strcmp>
   d53c2:	b908      	cbnz	r0, d53c8 <_ZN11TinyGPSPlus16endOfTermHandlerEv+0x17c>
      curSentenceType = GPS_SENTENCE_GPGGA;
   d53c4:	2300      	movs	r3, #0
   d53c6:	e7e0      	b.n	d538a <_ZN11TinyGPSPlus16endOfTermHandlerEv+0x13e>
      curSentenceType = GPS_SENTENCE_OTHER;
   d53c8:	2302      	movs	r3, #2
   d53ca:	e7de      	b.n	d538a <_ZN11TinyGPSPlus16endOfTermHandlerEv+0x13e>
  if (curSentenceType != GPS_SENTENCE_OTHER && term[0])
   d53cc:	f890 1181 	ldrb.w	r1, [r0, #385]	; 0x181
   d53d0:	2902      	cmp	r1, #2
   d53d2:	d024      	beq.n	d541e <_ZN11TinyGPSPlus16endOfTermHandlerEv+0x1d2>
   d53d4:	f890 3172 	ldrb.w	r3, [r0, #370]	; 0x172
   d53d8:	b30b      	cbz	r3, d541e <_ZN11TinyGPSPlus16endOfTermHandlerEv+0x1d2>
    switch(COMBINE(curSentenceType, curTermNumber))
   d53da:	ea42 1241 	orr.w	r2, r2, r1, lsl #5
   d53de:	3a01      	subs	r2, #1
   d53e0:	2a28      	cmp	r2, #40	; 0x28
   d53e2:	d81c      	bhi.n	d541e <_ZN11TinyGPSPlus16endOfTermHandlerEv+0x1d2>
   d53e4:	e8df f002 	tbb	[pc, r2]
   d53e8:	4a433c15 	.word	0x4a433c15
   d53ec:	726b664d 	.word	0x726b664d
   d53f0:	1b7c1b77 	.word	0x1b7c1b77
   d53f4:	1b1b1b1b 	.word	0x1b1b1b1b
   d53f8:	1b1b1b1b 	.word	0x1b1b1b1b
   d53fc:	1b1b1b1b 	.word	0x1b1b1b1b
   d5400:	1b1b1b1b 	.word	0x1b1b1b1b
   d5404:	1b1b1b1b 	.word	0x1b1b1b1b
   d5408:	433c3515 	.word	0x433c3515
   d540c:	5b544d4a 	.word	0x5b544d4a
   d5410:	60          	.byte	0x60
   d5411:	00          	.byte	0x00
	  tempData.time.setTime(term);
   d5412:	f500 71b9 	add.w	r1, r0, #370	; 0x172
   d5416:	f500 7080 	add.w	r0, r0, #256	; 0x100
   d541a:	f7ff fe90 	bl	d513e <_ZN11TinyGPSTime7setTimeEPKc>
  for (TinyGPSCustom *p = customCandidates; p != NULL && strcmp(p->sentenceName, customCandidates->sentenceName) == 0 && p->termNumber <= curTermNumber; p = p->next)
   d541e:	f8d4 618c 	ldr.w	r6, [r4, #396]	; 0x18c
         p->set(term);
   d5422:	f504 77b9 	add.w	r7, r4, #370	; 0x172
  for (TinyGPSCustom *p = customCandidates; p != NULL && strcmp(p->sentenceName, customCandidates->sentenceName) == 0 && p->termNumber <= curTermNumber; p = p->next)
   d5426:	2e00      	cmp	r6, #0
   d5428:	d09d      	beq.n	d5366 <_ZN11TinyGPSPlus16endOfTermHandlerEv+0x11a>
   d542a:	f8d4 318c 	ldr.w	r3, [r4, #396]	; 0x18c
   d542e:	6ab0      	ldr	r0, [r6, #40]	; 0x28
   d5430:	6a99      	ldr	r1, [r3, #40]	; 0x28
   d5432:	f002 fcc1 	bl	d7db8 <strcmp>
   d5436:	2800      	cmp	r0, #0
   d5438:	d195      	bne.n	d5366 <_ZN11TinyGPSPlus16endOfTermHandlerEv+0x11a>
   d543a:	6af2      	ldr	r2, [r6, #44]	; 0x2c
   d543c:	f894 3182 	ldrb.w	r3, [r4, #386]	; 0x182
   d5440:	429a      	cmp	r2, r3
   d5442:	dc90      	bgt.n	d5366 <_ZN11TinyGPSPlus16endOfTermHandlerEv+0x11a>
    if (p->termNumber == curTermNumber)
   d5444:	d103      	bne.n	d544e <_ZN11TinyGPSPlus16endOfTermHandlerEv+0x202>
         p->set(term);
   d5446:	4639      	mov	r1, r7
   d5448:	4630      	mov	r0, r6
   d544a:	f7ff fefc 	bl	d5246 <_ZN13TinyGPSCustom3setEPKc>
  for (TinyGPSCustom *p = customCandidates; p != NULL && strcmp(p->sentenceName, customCandidates->sentenceName) == 0 && p->termNumber <= curTermNumber; p = p->next)
   d544e:	6b36      	ldr	r6, [r6, #48]	; 0x30
   d5450:	e7e9      	b.n	d5426 <_ZN11TinyGPSPlus16endOfTermHandlerEv+0x1da>
      sentenceHasFix = term[0] == 'A';
   d5452:	f1a3 0041 	sub.w	r0, r3, #65	; 0x41
   d5456:	4243      	negs	r3, r0
   d5458:	4143      	adcs	r3, r0
      sentenceHasFix = term[0] > '0';
   d545a:	f884 3184 	strb.w	r3, [r4, #388]	; 0x184
      break;
   d545e:	e7de      	b.n	d541e <_ZN11TinyGPSPlus16endOfTermHandlerEv+0x1d2>
   TinyGPSPlus::parseDegrees(term, rawNewLatData);
   d5460:	f100 01d4 	add.w	r1, r0, #212	; 0xd4
   TinyGPSPlus::parseDegrees(term, rawNewLngData);
   d5464:	f504 70b9 	add.w	r0, r4, #370	; 0x172
   d5468:	f7ff fe0a 	bl	d5080 <_ZN11TinyGPSPlus12parseDegreesEPKcR10RawDegrees>
}
   d546c:	e7d7      	b.n	d541e <_ZN11TinyGPSPlus16endOfTermHandlerEv+0x1d2>
      tempData.location.rawNewLatData.negative = term[0] == 'S';
   d546e:	f1a3 0153 	sub.w	r1, r3, #83	; 0x53
   d5472:	424b      	negs	r3, r1
   d5474:	414b      	adcs	r3, r1
   d5476:	f880 30dc 	strb.w	r3, [r0, #220]	; 0xdc
      break;
   d547a:	e7d0      	b.n	d541e <_ZN11TinyGPSPlus16endOfTermHandlerEv+0x1d2>
   TinyGPSPlus::parseDegrees(term, rawNewLngData);
   d547c:	f100 01e0 	add.w	r1, r0, #224	; 0xe0
   d5480:	e7f0      	b.n	d5464 <_ZN11TinyGPSPlus16endOfTermHandlerEv+0x218>
      tempData.location.rawNewLngData.negative = term[0] == 'W';
   d5482:	f1a3 0257 	sub.w	r2, r3, #87	; 0x57
   d5486:	4253      	negs	r3, r2
   d5488:	4153      	adcs	r3, r2
   d548a:	f880 30e8 	strb.w	r3, [r0, #232]	; 0xe8
      break;
   d548e:	e7c6      	b.n	d541e <_ZN11TinyGPSPlus16endOfTermHandlerEv+0x1d2>
	  tempData.speed.set(term);
   d5490:	f500 71b9 	add.w	r1, r0, #370	; 0x172
   d5494:	f500 7088 	add.w	r0, r0, #272	; 0x110
	  tempData.geoidSeparation.set(term);
   d5498:	f7ff feaf 	bl	d51fa <_ZN14TinyGPSDecimal3setEPKc>
      break;
   d549c:	e7bf      	b.n	d541e <_ZN11TinyGPSPlus16endOfTermHandlerEv+0x1d2>
	  tempData.course.set(term);
   d549e:	f500 71b9 	add.w	r1, r0, #370	; 0x172
   d54a2:	f500 7090 	add.w	r0, r0, #288	; 0x120
   d54a6:	e7f7      	b.n	d5498 <_ZN11TinyGPSPlus16endOfTermHandlerEv+0x24c>
	  tempData.date.setDate(term);
   d54a8:	f500 71b9 	add.w	r1, r0, #370	; 0x172
   d54ac:	30f0      	adds	r0, #240	; 0xf0
   d54ae:	f7ff fe4d 	bl	d514c <_ZN11TinyGPSDate7setDateEPKc>
      break;
   d54b2:	e7b4      	b.n	d541e <_ZN11TinyGPSPlus16endOfTermHandlerEv+0x1d2>
      sentenceHasFix = term[0] > '0';
   d54b4:	2b30      	cmp	r3, #48	; 0x30
   d54b6:	bf94      	ite	ls
   d54b8:	2300      	movls	r3, #0
   d54ba:	2301      	movhi	r3, #1
   d54bc:	e7cd      	b.n	d545a <_ZN11TinyGPSPlus16endOfTermHandlerEv+0x20e>
	  tempData.satellites.set(term);
   d54be:	f500 71b9 	add.w	r1, r0, #370	; 0x172
   d54c2:	f500 70a8 	add.w	r0, r0, #336	; 0x150
   d54c6:	f7ff feaa 	bl	d521e <_ZN14TinyGPSInteger3setEPKc>
      break;
   d54ca:	e7a8      	b.n	d541e <_ZN11TinyGPSPlus16endOfTermHandlerEv+0x1d2>
	  tempData.hdop.set(term);
   d54cc:	f500 71b9 	add.w	r1, r0, #370	; 0x172
   d54d0:	f500 70b0 	add.w	r0, r0, #352	; 0x160
   d54d4:	e7e0      	b.n	d5498 <_ZN11TinyGPSPlus16endOfTermHandlerEv+0x24c>
	  tempData.altitude.set(term);
   d54d6:	f500 71b9 	add.w	r1, r0, #370	; 0x172
   d54da:	f500 7098 	add.w	r0, r0, #304	; 0x130
   d54de:	e7db      	b.n	d5498 <_ZN11TinyGPSPlus16endOfTermHandlerEv+0x24c>
	  tempData.geoidSeparation.set(term);
   d54e0:	f500 71b9 	add.w	r1, r0, #370	; 0x172
   d54e4:	f500 70a0 	add.w	r0, r0, #320	; 0x140
   d54e8:	e7d6      	b.n	d5498 <_ZN11TinyGPSPlus16endOfTermHandlerEv+0x24c>
    if (customCandidates != NULL && strcmp(customCandidates->sentenceName, term) > 0)
   d54ea:	f43f af3c 	beq.w	d5366 <_ZN11TinyGPSPlus16endOfTermHandlerEv+0x11a>
       customCandidates = NULL;
   d54ee:	2300      	movs	r3, #0
   d54f0:	f8c4 318c 	str.w	r3, [r4, #396]	; 0x18c
   d54f4:	e737      	b.n	d5366 <_ZN11TinyGPSPlus16endOfTermHandlerEv+0x11a>
   d54f6:	bf00      	nop
   d54f8:	000d81cc 	.word	0x000d81cc
   d54fc:	000d81d2 	.word	0x000d81d2
   d5500:	000d81d8 	.word	0x000d81d8
   d5504:	000d81de 	.word	0x000d81de

000d5508 <_ZN11TinyGPSPlus6encodeEc>:
{
   d5508:	b538      	push	{r3, r4, r5, lr}
  ++encodedCharCount;
   d550a:	f8d0 3190 	ldr.w	r3, [r0, #400]	; 0x190
  switch(c)
   d550e:	2924      	cmp	r1, #36	; 0x24
  ++encodedCharCount;
   d5510:	f103 0301 	add.w	r3, r3, #1
{
   d5514:	4604      	mov	r4, r0
   d5516:	460d      	mov	r5, r1
  ++encodedCharCount;
   d5518:	f8c0 3190 	str.w	r3, [r0, #400]	; 0x190
  switch(c)
   d551c:	d03a      	beq.n	d5594 <_ZN11TinyGPSPlus6encodeEc+0x8c>
   d551e:	f890 3183 	ldrb.w	r3, [r0, #387]	; 0x183
   d5522:	d814      	bhi.n	d554e <_ZN11TinyGPSPlus6encodeEc+0x46>
   d5524:	290a      	cmp	r1, #10
   d5526:	d01c      	beq.n	d5562 <_ZN11TinyGPSPlus6encodeEc+0x5a>
   d5528:	290d      	cmp	r1, #13
   d552a:	d01a      	beq.n	d5562 <_ZN11TinyGPSPlus6encodeEc+0x5a>
    if (curTermOffset < sizeof(term) - 1)
   d552c:	2b0d      	cmp	r3, #13
      term[curTermOffset++] = c;
   d552e:	bf9f      	itttt	ls
   d5530:	1c5a      	addls	r2, r3, #1
   d5532:	191b      	addls	r3, r3, r4
   d5534:	f884 2183 	strbls.w	r2, [r4, #387]	; 0x183
   d5538:	f883 5172 	strbls.w	r5, [r3, #370]	; 0x172
    if (!isChecksumTerm)
   d553c:	f894 0171 	ldrb.w	r0, [r4, #369]	; 0x171
   d5540:	bb98      	cbnz	r0, d55aa <_ZN11TinyGPSPlus6encodeEc+0xa2>
      parity ^= c;
   d5542:	f894 1170 	ldrb.w	r1, [r4, #368]	; 0x170
   d5546:	404d      	eors	r5, r1
   d5548:	f884 5170 	strb.w	r5, [r4, #368]	; 0x170
   d554c:	e021      	b.n	d5592 <_ZN11TinyGPSPlus6encodeEc+0x8a>
  switch(c)
   d554e:	292a      	cmp	r1, #42	; 0x2a
   d5550:	d007      	beq.n	d5562 <_ZN11TinyGPSPlus6encodeEc+0x5a>
   d5552:	292c      	cmp	r1, #44	; 0x2c
   d5554:	d1ea      	bne.n	d552c <_ZN11TinyGPSPlus6encodeEc+0x24>
    parity ^= (uint8_t)c;
   d5556:	f890 2170 	ldrb.w	r2, [r0, #368]	; 0x170
   d555a:	f082 022c 	eor.w	r2, r2, #44	; 0x2c
   d555e:	f880 2170 	strb.w	r2, [r0, #368]	; 0x170
      if (curTermOffset < sizeof(term))
   d5562:	2b0e      	cmp	r3, #14
   d5564:	f04f 0000 	mov.w	r0, #0
   d5568:	d805      	bhi.n	d5576 <_ZN11TinyGPSPlus6encodeEc+0x6e>
        term[curTermOffset] = 0;
   d556a:	4423      	add	r3, r4
   d556c:	f883 0172 	strb.w	r0, [r3, #370]	; 0x172
        isValidSentence = endOfTermHandler();
   d5570:	4620      	mov	r0, r4
   d5572:	f7ff fe6b 	bl	d524c <_ZN11TinyGPSPlus16endOfTermHandlerEv>
      ++curTermNumber;
   d5576:	f894 3182 	ldrb.w	r3, [r4, #386]	; 0x182
   d557a:	3301      	adds	r3, #1
   d557c:	f884 3182 	strb.w	r3, [r4, #386]	; 0x182
      curTermOffset = 0;
   d5580:	2300      	movs	r3, #0
   d5582:	f884 3183 	strb.w	r3, [r4, #387]	; 0x183
      isChecksumTerm = c == '*';
   d5586:	f1a5 032a 	sub.w	r3, r5, #42	; 0x2a
   d558a:	425d      	negs	r5, r3
   d558c:	415d      	adcs	r5, r3
   d558e:	f884 5171 	strb.w	r5, [r4, #369]	; 0x171
}
   d5592:	bd38      	pop	{r3, r4, r5, pc}
    parity = 0;
   d5594:	2000      	movs	r0, #0
    curSentenceType = GPS_SENTENCE_OTHER;
   d5596:	2302      	movs	r3, #2
    parity = 0;
   d5598:	f8a4 0170 	strh.w	r0, [r4, #368]	; 0x170
    curSentenceType = GPS_SENTENCE_OTHER;
   d559c:	f884 3181 	strb.w	r3, [r4, #385]	; 0x181
    curTermNumber = curTermOffset = 0;
   d55a0:	f8a4 0182 	strh.w	r0, [r4, #386]	; 0x182
    sentenceHasFix = false;
   d55a4:	f884 0184 	strb.w	r0, [r4, #388]	; 0x184
    return false;
   d55a8:	e7f3      	b.n	d5592 <_ZN11TinyGPSPlus6encodeEc+0x8a>
    return false;
   d55aa:	2000      	movs	r0, #0
   d55ac:	e7f1      	b.n	d5592 <_ZN11TinyGPSPlus6encodeEc+0x8a>

000d55ae <_ZN13LegacyAdapterD1Ev>:

}

LegacyAdapter::~LegacyAdapter() {

}
   d55ae:	4770      	bx	lr

000d55b0 <_ZN13LegacyAdapterD0Ev>:
LegacyAdapter::~LegacyAdapter() {
   d55b0:	b510      	push	{r4, lr}
}
   d55b2:	2108      	movs	r1, #8
LegacyAdapter::~LegacyAdapter() {
   d55b4:	4604      	mov	r4, r0
}
   d55b6:	f001 fecf 	bl	d7358 <_ZdlPvj>
   d55ba:	4620      	mov	r0, r4
   d55bc:	bd10      	pop	{r4, pc}
	...

000d55c0 <_ZN13LegacyAdapterC1ER11TinyGPSPlus>:
LegacyAdapter::LegacyAdapter(TinyGPSPlus &gpsData) : gpsData(gpsData) {
   d55c0:	4a01      	ldr	r2, [pc, #4]	; (d55c8 <_ZN13LegacyAdapterC1ER11TinyGPSPlus+0x8>)
   d55c2:	e9c0 2100 	strd	r2, r1, [r0]
}
   d55c6:	4770      	bx	lr
   d55c8:	000d81ec 	.word	0x000d81ec

000d55cc <_ZN6Thread3runEPv>:
        return *this;
    }

private:

    static os_thread_return_t run(void* param) {
   d55cc:	b510      	push	{r4, lr}
        Data* th = (Data*)param;
        th->started = true;
   d55ce:	2301      	movs	r3, #1
   d55d0:	7403      	strb	r3, [r0, #16]
        if (th->func) {
   d55d2:	6883      	ldr	r3, [r0, #8]
    static os_thread_return_t run(void* param) {
   d55d4:	4604      	mov	r4, r0
        if (th->func) {
   d55d6:	b143      	cbz	r3, d55ea <_ZN6Thread3runEPv+0x1e>
            (*(th->func))(th->func_param);
   d55d8:	68c0      	ldr	r0, [r0, #12]
    function<_Res(_ArgTypes...)>::
    operator()(_ArgTypes... __args) const
    {
      if (_M_empty())
	__throw_bad_function_call();
      return _M_invoker(_M_functor, std::forward<_ArgTypes>(__args)...);
   d55da:	4798      	blx	r3
        } else if (th->wrapper) {
            (*(th->wrapper))();
        }
        th->exited = true;
   d55dc:	2301      	movs	r3, #1
   d55de:	7463      	strb	r3, [r4, #17]
        os_thread_exit(nullptr);
   d55e0:	2000      	movs	r0, #0
    }
   d55e2:	e8bd 4010 	ldmia.w	sp!, {r4, lr}
        os_thread_exit(nullptr);
   d55e6:	f000 bba1 	b.w	d5d2c <os_thread_exit>
      template<typename _Del>
      __uniq_ptr_impl(pointer __p, _Del&& __d)
	: _M_t(__p, std::forward<_Del>(__d)) { }

      pointer&   _M_ptr() { return std::get<0>(_M_t); }
      pointer    _M_ptr() const { return std::get<0>(_M_t); }
   d55ea:	6800      	ldr	r0, [r0, #0]
        } else if (th->wrapper) {
   d55ec:	2800      	cmp	r0, #0
   d55ee:	d0f5      	beq.n	d55dc <_ZN6Thread3runEPv+0x10>
      if (_M_empty())
   d55f0:	6883      	ldr	r3, [r0, #8]
   d55f2:	b90b      	cbnz	r3, d55f8 <_ZN6Thread3runEPv+0x2c>
	__throw_bad_function_call();
   d55f4:	f001 feb6 	bl	d7364 <_ZSt25__throw_bad_function_callv>
      return _M_invoker(_M_functor, std::forward<_ArgTypes>(__args)...);
   d55f8:	68c3      	ldr	r3, [r0, #12]
   d55fa:	e7ee      	b.n	d55da <_ZN6Thread3runEPv+0xe>

000d55fc <_ZNSt14_Function_baseD1Ev>:
    ~_Function_base()
   d55fc:	b510      	push	{r4, lr}
      if (_M_manager)
   d55fe:	6883      	ldr	r3, [r0, #8]
    ~_Function_base()
   d5600:	4604      	mov	r4, r0
      if (_M_manager)
   d5602:	b113      	cbz	r3, d560a <_ZNSt14_Function_baseD1Ev+0xe>
	_M_manager(_M_functor, _M_functor, __destroy_functor);
   d5604:	2203      	movs	r2, #3
   d5606:	4601      	mov	r1, r0
   d5608:	4798      	blx	r3
    }
   d560a:	4620      	mov	r0, r4
   d560c:	bd10      	pop	{r4, pc}
	...

000d5610 <_ZN12AssetTrackerD1Ev>:

AssetTracker::AssetTracker() : LegacyAdapter(gps) {
	instance = this;
}

AssetTracker::~AssetTracker() {
   d5610:	b510      	push	{r4, lr}
   d5612:	4b05      	ldr	r3, [pc, #20]	; (d5628 <_ZN12AssetTrackerD1Ev+0x18>)
   d5614:	4604      	mov	r4, r0
   d5616:	f840 3b20 	str.w	r3, [r0], #32
    class function<_Res(_ArgTypes...)>
   d561a:	f7ff ffef 	bl	d55fc <_ZNSt14_Function_baseD1Ev>
   d561e:	4620      	mov	r0, r4
   d5620:	f7ff ffc5 	bl	d55ae <_ZN13LegacyAdapterD1Ev>

}
   d5624:	4620      	mov	r0, r4
   d5626:	bd10      	pop	{r4, pc}
   d5628:	000d8294 	.word	0x000d8294

000d562c <_ZN12AssetTrackerD0Ev>:
AssetTracker::~AssetTracker() {
   d562c:	b510      	push	{r4, lr}
   d562e:	4604      	mov	r4, r0
}
   d5630:	f7ff ffee 	bl	d5610 <_ZN12AssetTrackerD1Ev>
   d5634:	4620      	mov	r0, r4
   d5636:	2130      	movs	r1, #48	; 0x30
   d5638:	f001 fe8e 	bl	d7358 <_ZdlPvj>
   d563c:	4620      	mov	r0, r4
   d563e:	bd10      	pop	{r4, pc}

000d5640 <_ZN7TwoWire5writeEi>:
  bool unlock();

  inline size_t write(unsigned long n) { return write((uint8_t)n); }
  inline size_t write(long n) { return write((uint8_t)n); }
  inline size_t write(unsigned int n) { return write((uint8_t)n); }
  inline size_t write(int n) { return write((uint8_t)n); }
   d5640:	6803      	ldr	r3, [r0, #0]
   d5642:	b2c9      	uxtb	r1, r1
   d5644:	689b      	ldr	r3, [r3, #8]
   d5646:	4718      	bx	r3

000d5648 <_ZNK5spark6Logger4infoEPKcz>:
    va_start(args, fmt);
    log(LOG_LEVEL_TRACE, fmt, args);
    va_end(args);
}

inline void spark::Logger::info(const char *fmt, ...) const {
   d5648:	b40e      	push	{r1, r2, r3}
   d564a:	b510      	push	{r4, lr}
   d564c:	b08d      	sub	sp, #52	; 0x34
   d564e:	aa0f      	add	r2, sp, #60	; 0x3c
    va_list args;
    va_start(args, fmt);
    log(LOG_LEVEL_INFO, fmt, args);
   d5650:	6801      	ldr	r1, [r0, #0]
inline void spark::Logger::info(const char *fmt, ...) const {
   d5652:	f852 4b04 	ldr.w	r4, [r2], #4
    va_start(args, fmt);
   d5656:	9203      	str	r2, [sp, #12]
}

inline void spark::Logger::log(LogLevel level, const char *fmt, va_list args) const {
    LogAttributes attr;
    attr.size = sizeof(LogAttributes);
    attr.flags = 0;
   d5658:	2300      	movs	r3, #0
   d565a:	2020      	movs	r0, #32
   d565c:	e9cd 0304 	strd	r0, r3, [sp, #16]
    log_message_v(level, name_, &attr, nullptr, fmt, args);
   d5660:	e9cd 4200 	strd	r4, r2, [sp]
   d5664:	201e      	movs	r0, #30
   d5666:	aa04      	add	r2, sp, #16
   d5668:	f000 fbe8 	bl	d5e3c <log_message_v>
}
   d566c:	b00d      	add	sp, #52	; 0x34
   d566e:	e8bd 4010 	ldmia.w	sp!, {r4, lr}
   d5672:	b003      	add	sp, #12
   d5674:	4770      	bx	lr
	...

000d5678 <_ZN12AssetTrackerC1Ev>:
AssetTracker::AssetTracker() : LegacyAdapter(gps) {
   d5678:	b538      	push	{r3, r4, r5, lr}
   d567a:	490b      	ldr	r1, [pc, #44]	; (d56a8 <_ZN12AssetTrackerC1Ev+0x30>)
   d567c:	4604      	mov	r4, r0
   d567e:	2500      	movs	r5, #0
   d5680:	f7ff ff9e 	bl	d55c0 <_ZN13LegacyAdapterC1ER11TinyGPSPlus>
   d5684:	4b09      	ldr	r3, [pc, #36]	; (d56ac <_ZN12AssetTrackerC1Ev+0x34>)
   d5686:	6023      	str	r3, [r4, #0]
   d5688:	7225      	strb	r5, [r4, #8]
   d568a:	f001 fd95 	bl	d71b8 <_Z19__fetch_global_Wirev>
   d568e:	2342      	movs	r3, #66	; 0x42
   d5690:	7423      	strb	r3, [r4, #16]
   d5692:	60e0      	str	r0, [r4, #12]
   d5694:	f001 fb7a 	bl	d6d8c <_Z22__fetch_global_Serial1v>
	instance = this;
   d5698:	4b05      	ldr	r3, [pc, #20]	; (d56b0 <_ZN12AssetTrackerC1Ev+0x38>)
AssetTracker::AssetTracker() : LegacyAdapter(gps) {
   d569a:	61e5      	str	r5, [r4, #28]
	instance = this;
   d569c:	601c      	str	r4, [r3, #0]
AssetTracker::AssetTracker() : LegacyAdapter(gps) {
   d569e:	e9c4 0505 	strd	r0, r5, [r4, #20]
    _Function_base() : _M_manager(nullptr) { }
   d56a2:	62a5      	str	r5, [r4, #40]	; 0x28
}
   d56a4:	4620      	mov	r0, r4
   d56a6:	bd38      	pop	{r3, r4, r5, pc}
   d56a8:	2003e530 	.word	0x2003e530
   d56ac:	000d8294 	.word	0x000d8294
   d56b0:	2003e6f8 	.word	0x2003e6f8

000d56b4 <_ZN12AssetTracker17startThreadedModeEv>:
			}
		}
	}
}

void AssetTracker::startThreadedMode() {
   d56b4:	b5f7      	push	{r0, r1, r2, r4, r5, r6, r7, lr}
	if (thread == NULL) {
   d56b6:	6986      	ldr	r6, [r0, #24]
void AssetTracker::startThreadedMode() {
   d56b8:	4607      	mov	r7, r0
	if (thread == NULL) {
   d56ba:	2e00      	cmp	r6, #0
   d56bc:	d138      	bne.n	d5730 <_ZN12AssetTracker17startThreadedModeEv+0x7c>
		thread = new Thread("AssetTracker", threadFunctionStatic, this, OS_THREAD_PRIORITY_DEFAULT, 2048);
   d56be:	2004      	movs	r0, #4
   d56c0:	f7fe fce7 	bl	d4092 <_Znwj>
   d56c4:	4605      	mov	r5, r0
   d56c6:	b390      	cbz	r0, d572e <_ZN12AssetTracker17startThreadedModeEv+0x7a>
        : d_(new(std::nothrow) Data)
   d56c8:	491a      	ldr	r1, [pc, #104]	; (d5734 <_ZN12AssetTracker17startThreadedModeEv+0x80>)
   d56ca:	2014      	movs	r0, #20
   d56cc:	f001 fe46 	bl	d735c <_ZnwjRKSt9nothrow_t>
   d56d0:	b128      	cbz	r0, d56de <_ZN12AssetTracker17startThreadedModeEv+0x2a>
            exited(false) {
   d56d2:	e9c0 6600 	strd	r6, r6, [r0]
   d56d6:	e9c0 6602 	strd	r6, r6, [r0, #8]
   d56da:	7406      	strb	r6, [r0, #16]
   d56dc:	7446      	strb	r6, [r0, #17]
      __uniq_ptr_impl(pointer __p) : _M_t() { _M_ptr() = __p; }
   d56de:	6028      	str	r0, [r5, #0]
        if (!d_) {
   d56e0:	b1a0      	cbz	r0, d570c <_ZN12AssetTracker17startThreadedModeEv+0x58>
        d_->func = function;
   d56e2:	4b15      	ldr	r3, [pc, #84]	; (d5738 <_ZN12AssetTracker17startThreadedModeEv+0x84>)
        if (os_thread_create(&d_->handle, name, priority, &Thread::run, d_.get(), stack_size) != 0) {
   d56e4:	4915      	ldr	r1, [pc, #84]	; (d573c <_ZN12AssetTracker17startThreadedModeEv+0x88>)
        d_->func_param = function_param;
   d56e6:	e9c0 3702 	strd	r3, r7, [r0, #8]
        if (os_thread_create(&d_->handle, name, priority, &Thread::run, d_.get(), stack_size) != 0) {
   d56ea:	f44f 6300 	mov.w	r3, #2048	; 0x800
   d56ee:	e9cd 0300 	strd	r0, r3, [sp]
   d56f2:	2202      	movs	r2, #2
   d56f4:	4b12      	ldr	r3, [pc, #72]	; (d5740 <_ZN12AssetTracker17startThreadedModeEv+0x8c>)
   d56f6:	3004      	adds	r0, #4
   d56f8:	f000 faf0 	bl	d5cdc <os_thread_create>
   d56fc:	b930      	cbnz	r0, d570c <_ZN12AssetTracker17startThreadedModeEv+0x58>
      pointer    _M_ptr() const { return std::get<0>(_M_t); }
   d56fe:	682b      	ldr	r3, [r5, #0]
        while (!d_->started) {
   d5700:	7c1b      	ldrb	r3, [r3, #16]
   d5702:	b9a3      	cbnz	r3, d572e <_ZN12AssetTracker17startThreadedModeEv+0x7a>
            HAL_Delay_Milliseconds(1);
   d5704:	2001      	movs	r0, #1
   d5706:	f000 fb21 	bl	d5d4c <HAL_Delay_Milliseconds>
        while (!d_->started) {
   d570a:	e7f8      	b.n	d56fe <_ZN12AssetTracker17startThreadedModeEv+0x4a>
#endif
    {
      // concept requirements
      __glibcxx_function_requires(_SGIAssignableConcept<_Tp>)

      _Tp __tmp = _GLIBCXX_MOVE(__a);
   d570c:	682c      	ldr	r4, [r5, #0]
      __a = _GLIBCXX_MOVE(__b);
   d570e:	2300      	movs	r3, #0
   d5710:	602b      	str	r3, [r5, #0]
      {
	static_assert(__is_invocable<deleter_type&, pointer>::value,
		      "unique_ptr's deleter must be invocable with a pointer");
	using std::swap;
	swap(_M_t._M_ptr(), __p);
	if (__p != pointer())
   d5712:	b164      	cbz	r4, d572e <_ZN12AssetTracker17startThreadedModeEv+0x7a>
	if (__ptr != nullptr)
   d5714:	6826      	ldr	r6, [r4, #0]
   d5716:	b136      	cbz	r6, d5726 <_ZN12AssetTracker17startThreadedModeEv+0x72>
    class function<_Res(_ArgTypes...)>
   d5718:	4630      	mov	r0, r6
   d571a:	f7ff ff6f 	bl	d55fc <_ZNSt14_Function_baseD1Ev>
	delete __ptr;
   d571e:	2110      	movs	r1, #16
   d5720:	4630      	mov	r0, r6
   d5722:	f001 fe19 	bl	d7358 <_ZdlPvj>
   d5726:	2114      	movs	r1, #20
   d5728:	4620      	mov	r0, r4
   d572a:	f001 fe15 	bl	d7358 <_ZdlPvj>
   d572e:	61bd      	str	r5, [r7, #24]
	}
}
   d5730:	b003      	add	sp, #12
   d5732:	bdf0      	pop	{r4, r5, r6, r7, pc}
   d5734:	000d8418 	.word	0x000d8418
   d5738:	000d5935 	.word	0x000d5935
   d573c:	000d81f4 	.word	0x000d81f4
   d5740:	000d55cd 	.word	0x000d55cd

000d5744 <_ZN12AssetTracker7withI2CER7TwoWireh>:
	useWire = false;
	serialPort = port;
	return *this;
}

AssetTracker &AssetTracker::withI2C(TwoWire &wire, uint8_t addr) {
   d5744:	b510      	push	{r4, lr}
	useWire = true;
   d5746:	2301      	movs	r3, #1
   d5748:	7203      	strb	r3, [r0, #8]
	this->wire = wire;
   d574a:	68c3      	ldr	r3, [r0, #12]
AssetTracker &AssetTracker::withI2C(TwoWire &wire, uint8_t addr) {
   d574c:	4604      	mov	r4, r0
#define   getFloat(skipChar)  parseFloat(skipChar)
#define   getString( pre_string, post_string, buffer, length)
readBytesBetween( pre_string, terminator, buffer, length)
*/

class Stream : public Print
   d574e:	6848      	ldr	r0, [r1, #4]
class Print
   d5750:	6058      	str	r0, [r3, #4]
   d5752:	6888      	ldr	r0, [r1, #8]
   d5754:	6098      	str	r0, [r3, #8]
   d5756:	68c8      	ldr	r0, [r1, #12]
   d5758:	60d8      	str	r0, [r3, #12]
class TwoWire : public Stream
   d575a:	7c08      	ldrb	r0, [r1, #16]
   d575c:	7418      	strb	r0, [r3, #16]
	this->wireAddr = addr;

	wire.begin();
   d575e:	4608      	mov	r0, r1
	this->wireAddr = addr;
   d5760:	7422      	strb	r2, [r4, #16]
	wire.begin();
   d5762:	f000 fd59 	bl	d6218 <_ZN7TwoWire5beginEv>

	return *this;
}
   d5766:	4620      	mov	r0, r4
   d5768:	bd10      	pop	{r4, pc}
	...

000d576c <_ZN12AssetTracker22wireReadBytesAvailableEv>:

uint16_t AssetTracker::wireReadBytesAvailable() {
   d576c:	b538      	push	{r3, r4, r5, lr}
   d576e:	4605      	mov	r5, r0
	uint8_t res;

	wire.beginTransmission(wireAddr);
   d5770:	7c01      	ldrb	r1, [r0, #16]
   d5772:	68c0      	ldr	r0, [r0, #12]
   d5774:	f000 fd82 	bl	d627c <_ZN7TwoWire17beginTransmissionEh>
	wire.write(0xfd);
   d5778:	21fd      	movs	r1, #253	; 0xfd
   d577a:	68e8      	ldr	r0, [r5, #12]
   d577c:	f7ff ff60 	bl	d5640 <_ZN7TwoWire5writeEi>
	res = wire.endTransmission(false);
   d5780:	68e8      	ldr	r0, [r5, #12]
   d5782:	2100      	movs	r1, #0
   d5784:	f000 fd7e 	bl	d6284 <_ZN7TwoWire15endTransmissionEh>
	if (res != 0) {
   d5788:	b130      	cbz	r0, d5798 <_ZN12AssetTracker22wireReadBytesAvailableEv+0x2c>
		Log.info("wireReadBytesAvailable I2C error %u", res);
   d578a:	490f      	ldr	r1, [pc, #60]	; (d57c8 <_ZN12AssetTracker22wireReadBytesAvailableEv+0x5c>)
   d578c:	4602      	mov	r2, r0
   d578e:	480f      	ldr	r0, [pc, #60]	; (d57cc <_ZN12AssetTracker22wireReadBytesAvailableEv+0x60>)
   d5790:	f7ff ff5a 	bl	d5648 <_ZNK5spark6Logger4infoEPKcz>
		return 0;
   d5794:	2000      	movs	r0, #0

	uint16_t available = wire.read() << 8;
	available |= wire.read();

	return available;
}
   d5796:	bd38      	pop	{r3, r4, r5, pc}
	res = wire.requestFrom(wireAddr, (uint8_t) 2, (uint8_t) true);
   d5798:	2202      	movs	r2, #2
   d579a:	7c29      	ldrb	r1, [r5, #16]
   d579c:	68e8      	ldr	r0, [r5, #12]
   d579e:	2301      	movs	r3, #1
   d57a0:	f000 fd57 	bl	d6252 <_ZN7TwoWire11requestFromEhjh>
	if (res != 2) {
   d57a4:	b2c2      	uxtb	r2, r0
   d57a6:	2a02      	cmp	r2, #2
   d57a8:	d001      	beq.n	d57ae <_ZN12AssetTracker22wireReadBytesAvailableEv+0x42>
		Log.info("wireReadBytesAvailable incorrect count %u", res);
   d57aa:	4909      	ldr	r1, [pc, #36]	; (d57d0 <_ZN12AssetTracker22wireReadBytesAvailableEv+0x64>)
   d57ac:	e7ef      	b.n	d578e <_ZN12AssetTracker22wireReadBytesAvailableEv+0x22>
	uint16_t available = wire.read() << 8;
   d57ae:	68e8      	ldr	r0, [r5, #12]
   d57b0:	6803      	ldr	r3, [r0, #0]
   d57b2:	695b      	ldr	r3, [r3, #20]
   d57b4:	4798      	blx	r3
   d57b6:	4604      	mov	r4, r0
	available |= wire.read();
   d57b8:	68e8      	ldr	r0, [r5, #12]
   d57ba:	6803      	ldr	r3, [r0, #0]
   d57bc:	695b      	ldr	r3, [r3, #20]
   d57be:	4798      	blx	r3
   d57c0:	ea40 2004 	orr.w	r0, r0, r4, lsl #8
   d57c4:	b280      	uxth	r0, r0
	return available;
   d57c6:	e7e6      	b.n	d5796 <_ZN12AssetTracker22wireReadBytesAvailableEv+0x2a>
   d57c8:	000d8201 	.word	0x000d8201
   d57cc:	2003e780 	.word	0x2003e780
   d57d0:	000d8225 	.word	0x000d8225

000d57d4 <_ZN12AssetTracker13wireReadBytesEPhj>:

int AssetTracker::wireReadBytes(uint8_t *buf, size_t len) {
   d57d4:	e92d 43f8 	stmdb	sp!, {r3, r4, r5, r6, r7, r8, r9, lr}
   d57d8:	4606      	mov	r6, r0
   d57da:	4688      	mov	r8, r1
	uint8_t res;

	// Log.info("wireReadBytes len=%u", len);

	wire.beginTransmission(wireAddr);
   d57dc:	7c01      	ldrb	r1, [r0, #16]
   d57de:	68c0      	ldr	r0, [r0, #12]
int AssetTracker::wireReadBytes(uint8_t *buf, size_t len) {
   d57e0:	4615      	mov	r5, r2
	wire.beginTransmission(wireAddr);
   d57e2:	f000 fd4b 	bl	d627c <_ZN7TwoWire17beginTransmissionEh>
	wire.write(0xff);
   d57e6:	21ff      	movs	r1, #255	; 0xff
   d57e8:	68f0      	ldr	r0, [r6, #12]
   d57ea:	f7ff ff29 	bl	d5640 <_ZN7TwoWire5writeEi>
	res = wire.endTransmission(false);
   d57ee:	68f0      	ldr	r0, [r6, #12]
   d57f0:	2100      	movs	r1, #0
   d57f2:	f000 fd47 	bl	d6284 <_ZN7TwoWire15endTransmissionEh>
	if (res != 0) {
   d57f6:	4602      	mov	r2, r0
   d57f8:	b138      	cbz	r0, d580a <_ZN12AssetTracker13wireReadBytesEPhj+0x36>
		Log.info("wireReadBytes I2C error %u", res);
   d57fa:	4916      	ldr	r1, [pc, #88]	; (d5854 <_ZN12AssetTracker13wireReadBytesEPhj+0x80>)
		if (reqLen > 32) {
			reqLen = 32;
		}
		res = wire.requestFrom(wireAddr, (uint8_t) reqLen, (uint8_t) ((offset + reqLen) == len));
		if (res != reqLen) {
			Log.info("wireReadBytes incorrect count %u", res);
   d57fc:	4816      	ldr	r0, [pc, #88]	; (d5858 <_ZN12AssetTracker13wireReadBytesEPhj+0x84>)
   d57fe:	f7ff ff23 	bl	d5648 <_ZNK5spark6Logger4infoEPKcz>
			return -1;
   d5802:	f04f 30ff 	mov.w	r0, #4294967295	; 0xffffffff
			buf[offset + ii] = wire.read();
		}
		offset += reqLen;
 	}
	return len;
}
   d5806:	e8bd 83f8 	ldmia.w	sp!, {r3, r4, r5, r6, r7, r8, r9, pc}
	size_t offset = 0;
   d580a:	4604      	mov	r4, r0
	while(offset < len) {
   d580c:	42a5      	cmp	r5, r4
   d580e:	d91f      	bls.n	d5850 <_ZN12AssetTracker13wireReadBytesEPhj+0x7c>
		size_t reqLen = (len - offset);
   d5810:	1b2f      	subs	r7, r5, r4
		if (reqLen > 32) {
   d5812:	2f20      	cmp	r7, #32
   d5814:	bf28      	it	cs
   d5816:	2720      	movcs	r7, #32
		res = wire.requestFrom(wireAddr, (uint8_t) reqLen, (uint8_t) ((offset + reqLen) == len));
   d5818:	eb04 0907 	add.w	r9, r4, r7
   d581c:	eba5 0209 	sub.w	r2, r5, r9
   d5820:	4253      	negs	r3, r2
   d5822:	4153      	adcs	r3, r2
   d5824:	7c31      	ldrb	r1, [r6, #16]
   d5826:	68f0      	ldr	r0, [r6, #12]
   d5828:	463a      	mov	r2, r7
   d582a:	f000 fd12 	bl	d6252 <_ZN7TwoWire11requestFromEhjh>
		if (res != reqLen) {
   d582e:	b2c2      	uxtb	r2, r0
   d5830:	4297      	cmp	r7, r2
   d5832:	d001      	beq.n	d5838 <_ZN12AssetTracker13wireReadBytesEPhj+0x64>
			Log.info("wireReadBytes incorrect count %u", res);
   d5834:	4909      	ldr	r1, [pc, #36]	; (d585c <_ZN12AssetTracker13wireReadBytesEPhj+0x88>)
   d5836:	e7e1      	b.n	d57fc <_ZN12AssetTracker13wireReadBytesEPhj+0x28>
   d5838:	4444      	add	r4, r8
   d583a:	4427      	add	r7, r4
			buf[offset + ii] = wire.read();
   d583c:	68f0      	ldr	r0, [r6, #12]
   d583e:	6803      	ldr	r3, [r0, #0]
   d5840:	695b      	ldr	r3, [r3, #20]
   d5842:	4798      	blx	r3
   d5844:	f804 0b01 	strb.w	r0, [r4], #1
		for(size_t ii = 0; ii < reqLen; ii++) {
   d5848:	42bc      	cmp	r4, r7
   d584a:	d1f7      	bne.n	d583c <_ZN12AssetTracker13wireReadBytesEPhj+0x68>
		offset += reqLen;
   d584c:	464c      	mov	r4, r9
   d584e:	e7dd      	b.n	d580c <_ZN12AssetTracker13wireReadBytesEPhj+0x38>
	return len;
   d5850:	4628      	mov	r0, r5
   d5852:	e7d8      	b.n	d5806 <_ZN12AssetTracker13wireReadBytesEPhj+0x32>
   d5854:	000d824f 	.word	0x000d824f
   d5858:	2003e780 	.word	0x2003e780
   d585c:	000d826a 	.word	0x000d826a

000d5860 <_ZNKSt8functionIFbcEEclEc>:
    function<_Res(_ArgTypes...)>::
   d5860:	b507      	push	{r0, r1, r2, lr}
      if (_M_empty())
   d5862:	6882      	ldr	r2, [r0, #8]
    function<_Res(_ArgTypes...)>::
   d5864:	f88d 1007 	strb.w	r1, [sp, #7]
      if (_M_empty())
   d5868:	b90a      	cbnz	r2, d586e <_ZNKSt8functionIFbcEEclEc+0xe>
	__throw_bad_function_call();
   d586a:	f001 fd7b 	bl	d7364 <_ZSt25__throw_bad_function_callv>
      return _M_invoker(_M_functor, std::forward<_ArgTypes>(__args)...);
   d586e:	68c3      	ldr	r3, [r0, #12]
   d5870:	f10d 0107 	add.w	r1, sp, #7
   d5874:	4798      	blx	r3
    }
   d5876:	b003      	add	sp, #12
   d5878:	f85d fb04 	ldr.w	pc, [sp], #4

000d587c <_ZN12AssetTracker9updateGPSEv>:
void AssetTracker::updateGPS(void) {
   d587c:	e92d 47f0 	stmdb	sp!, {r4, r5, r6, r7, r8, r9, sl, lr}
	if (!useWire) {
   d5880:	7a03      	ldrb	r3, [r0, #8]
void AssetTracker::updateGPS(void) {
   d5882:	b08a      	sub	sp, #40	; 0x28
   d5884:	4604      	mov	r4, r0
	if (!useWire) {
   d5886:	b9cb      	cbnz	r3, d58bc <_ZN12AssetTracker9updateGPSEv+0x40>
			gps.encode(c);
   d5888:	4e25      	ldr	r6, [pc, #148]	; (d5920 <_ZN12AssetTracker9updateGPSEv+0xa4>)
				externalDecoder(c);
   d588a:	f100 0520 	add.w	r5, r0, #32
		while (serialPort.available() > 0) {
   d588e:	6960      	ldr	r0, [r4, #20]
   d5890:	6803      	ldr	r3, [r0, #0]
   d5892:	691b      	ldr	r3, [r3, #16]
   d5894:	4798      	blx	r3
   d5896:	2800      	cmp	r0, #0
   d5898:	dd1f      	ble.n	d58da <_ZN12AssetTracker9updateGPSEv+0x5e>
			char c = (char)serialPort.read();
   d589a:	6960      	ldr	r0, [r4, #20]
   d589c:	6803      	ldr	r3, [r0, #0]
   d589e:	695b      	ldr	r3, [r3, #20]
   d58a0:	4798      	blx	r3
   d58a2:	b2c1      	uxtb	r1, r0
			gps.encode(c);
   d58a4:	4630      	mov	r0, r6
   d58a6:	9101      	str	r1, [sp, #4]
   d58a8:	f7ff fe2e 	bl	d5508 <_ZN11TinyGPSPlus6encodeEc>
			if (externalDecoder) {
   d58ac:	6aa3      	ldr	r3, [r4, #40]	; 0x28
   d58ae:	9901      	ldr	r1, [sp, #4]
   d58b0:	2b00      	cmp	r3, #0
   d58b2:	d0ec      	beq.n	d588e <_ZN12AssetTracker9updateGPSEv+0x12>
				externalDecoder(c);
   d58b4:	4628      	mov	r0, r5
   d58b6:	f7ff ffd3 	bl	d5860 <_ZNKSt8functionIFbcEEclEc>
   d58ba:	e7e8      	b.n	d588e <_ZN12AssetTracker9updateGPSEv+0x12>
		WITH_LOCK(wire) {
   d58bc:	f8d0 800c 	ldr.w	r8, [r0, #12]
    {
    public:
      typedef _Mutex mutex_type;

      explicit lock_guard(mutex_type& __m) : _M_device(__m)
      { _M_device.lock(); }
   d58c0:	4640      	mov	r0, r8
   d58c2:	f000 fce6 	bl	d6292 <_ZN7TwoWire4lockEv>
			uint16_t available = wireReadBytesAvailable();
   d58c6:	4620      	mov	r0, r4
   d58c8:	f7ff ff50 	bl	d576c <_ZN12AssetTracker22wireReadBytesAvailableEv>
			if (available > 32) {
   d58cc:	2820      	cmp	r0, #32
			uint16_t available = wireReadBytesAvailable();
   d58ce:	4605      	mov	r5, r0
			if (available > 32) {
   d58d0:	d806      	bhi.n	d58e0 <_ZN12AssetTracker9updateGPSEv+0x64>
			if (available > 0) {
   d58d2:	b930      	cbnz	r0, d58e2 <_ZN12AssetTracker9updateGPSEv+0x66>

      lock_guard(mutex_type& __m, adopt_lock_t) noexcept : _M_device(__m)
      { } // calling thread owns mutex

      ~lock_guard()
      { _M_device.unlock(); }
   d58d4:	4640      	mov	r0, r8
   d58d6:	f000 fce5 	bl	d62a4 <_ZN7TwoWire6unlockEv>
}
   d58da:	b00a      	add	sp, #40	; 0x28
   d58dc:	e8bd 87f0 	ldmia.w	sp!, {r4, r5, r6, r7, r8, r9, sl, pc}
				available = 32;
   d58e0:	2520      	movs	r5, #32
				if (wireReadBytes(buf, available) == available) {
   d58e2:	462a      	mov	r2, r5
   d58e4:	a902      	add	r1, sp, #8
   d58e6:	4620      	mov	r0, r4
   d58e8:	f7ff ff74 	bl	d57d4 <_ZN12AssetTracker13wireReadBytesEPhj>
   d58ec:	42a8      	cmp	r0, r5
   d58ee:	d1f1      	bne.n	d58d4 <_ZN12AssetTracker9updateGPSEv+0x58>
						gps.encode(buf[ii]);
   d58f0:	f8df 902c 	ldr.w	r9, [pc, #44]	; d5920 <_ZN12AssetTracker9updateGPSEv+0xa4>
   d58f4:	ae02      	add	r6, sp, #8
					for(uint16_t ii = 0; ii < available; ii++) {
   d58f6:	2700      	movs	r7, #0
							externalDecoder(buf[ii]);
   d58f8:	f104 0a20 	add.w	sl, r4, #32
						gps.encode(buf[ii]);
   d58fc:	f816 1b01 	ldrb.w	r1, [r6], #1
   d5900:	4648      	mov	r0, r9
   d5902:	f7ff fe01 	bl	d5508 <_ZN11TinyGPSPlus6encodeEc>
						if (externalDecoder) {
   d5906:	6aa3      	ldr	r3, [r4, #40]	; 0x28
   d5908:	b123      	cbz	r3, d5914 <_ZN12AssetTracker9updateGPSEv+0x98>
							externalDecoder(buf[ii]);
   d590a:	f816 1c01 	ldrb.w	r1, [r6, #-1]
   d590e:	4650      	mov	r0, sl
   d5910:	f7ff ffa6 	bl	d5860 <_ZNKSt8functionIFbcEEclEc>
					for(uint16_t ii = 0; ii < available; ii++) {
   d5914:	3701      	adds	r7, #1
   d5916:	b2bf      	uxth	r7, r7
   d5918:	42bd      	cmp	r5, r7
   d591a:	d1ef      	bne.n	d58fc <_ZN12AssetTracker9updateGPSEv+0x80>
   d591c:	e7da      	b.n	d58d4 <_ZN12AssetTracker9updateGPSEv+0x58>
   d591e:	bf00      	nop
   d5920:	2003e530 	.word	0x2003e530

000d5924 <_ZN12AssetTracker14threadFunctionEv>:
void AssetTracker::threadFunction() {
   d5924:	b508      	push	{r3, lr}
   d5926:	4604      	mov	r4, r0
		updateGPS();
   d5928:	4620      	mov	r0, r4
   d592a:	f7ff ffa7 	bl	d587c <_ZN12AssetTracker9updateGPSEv>
		os_thread_yield();
   d592e:	f000 f9dd 	bl	d5cec <os_thread_yield>
	while(true) {
   d5932:	e7f9      	b.n	d5928 <_ZN12AssetTracker14threadFunctionEv+0x4>

000d5934 <_ZN12AssetTracker20threadFunctionStaticEPv>:
void AssetTracker::threadFunctionStatic(void *param) {
   d5934:	b508      	push	{r3, lr}
	static_cast<AssetTracker *>(param)->threadFunction();
   d5936:	f7ff fff5 	bl	d5924 <_ZN12AssetTracker14threadFunctionEv>
	...

000d593c <_GLOBAL__sub_I_emptyResponse>:
	return &accel;
}

TinyGPSPlus *AssetTracker::getTinyGPSPlus() {
	return &gps;
}
   d593c:	b537      	push	{r0, r1, r2, r4, r5, lr}

#ifdef SYSTEM_VERSION_v151RC1
	// In 1.5.0-rc.1, SPI interfaces are handled differently. You can still pass in SPI, SPI1, etc.
	// but the code to handle it varies
	LIS3DHSPI(::particle::SpiProxy<HAL_SPI_INTERFACE1> &spiProxy, int ss = A2, int intPin = -1) : 
		LIS3DH(intPin), spi(spiProxy.instance()), ss(ss), spiSettings(10 * MHZ, MSBFIRST, SPI_MODE0){};
   d593e:	4c19      	ldr	r4, [pc, #100]	; (d59a4 <_GLOBAL__sub_I_emptyResponse+0x68>)

template <hal_spi_interface_t Interface>
class SpiProxy {
public:
    static SPIClass& instance() {
        static SPIClass instance(Interface);
   d5940:	4d19      	ldr	r5, [pc, #100]	; (d59a8 <_GLOBAL__sub_I_emptyResponse+0x6c>)
   d5942:	2108      	movs	r1, #8
   d5944:	4620      	mov	r0, r4
   d5946:	f7ff fa4b 	bl	d4de0 <_ZN6LIS3DHC1Ei>
   d594a:	4b18      	ldr	r3, [pc, #96]	; (d59ac <_GLOBAL__sub_I_emptyResponse+0x70>)
   d594c:	6023      	str	r3, [r4, #0]
   d594e:	7829      	ldrb	r1, [r5, #0]
   d5950:	f3bf 8f5b 	dmb	ish
   d5954:	f011 0101 	ands.w	r1, r1, #1
   d5958:	d10b      	bne.n	d5972 <_GLOBAL__sub_I_emptyResponse+0x36>
   d595a:	4628      	mov	r0, r5
   d595c:	9101      	str	r1, [sp, #4]
   d595e:	f7fe fba9 	bl	d40b4 <__cxa_guard_acquire>
   d5962:	9901      	ldr	r1, [sp, #4]
   d5964:	b128      	cbz	r0, d5972 <_GLOBAL__sub_I_emptyResponse+0x36>
   d5966:	4812      	ldr	r0, [pc, #72]	; (d59b0 <_GLOBAL__sub_I_emptyResponse+0x74>)
   d5968:	f001 fa78 	bl	d6e5c <_ZN8SPIClassC1E19hal_spi_interface_t>
   d596c:	4628      	mov	r0, r5
   d596e:	f7fe fba6 	bl	d40be <__cxa_guard_release>
   d5972:	4b0f      	ldr	r3, [pc, #60]	; (d59b0 <_GLOBAL__sub_I_emptyResponse+0x74>)
   d5974:	60e3      	str	r3, [r4, #12]
   d5976:	2311      	movs	r3, #17
   d5978:	6123      	str	r3, [r4, #16]
   d597a:	2300      	movs	r3, #0
   d597c:	7523      	strb	r3, [r4, #20]
      dataMode_{dataMode}
   d597e:	7723      	strb	r3, [r4, #28]
   d5980:	4a0c      	ldr	r2, [pc, #48]	; (d59b4 <_GLOBAL__sub_I_emptyResponse+0x78>)
   d5982:	4b0d      	ldr	r3, [pc, #52]	; (d59b8 <_GLOBAL__sub_I_emptyResponse+0x7c>)
   d5984:	61a2      	str	r2, [r4, #24]
   d5986:	6223      	str	r3, [r4, #32]
static LIS3DHSPI accel(SPI, A2, WKP);
   d5988:	4a0c      	ldr	r2, [pc, #48]	; (d59bc <_GLOBAL__sub_I_emptyResponse+0x80>)
   d598a:	490d      	ldr	r1, [pc, #52]	; (d59c0 <_GLOBAL__sub_I_emptyResponse+0x84>)
   d598c:	4805      	ldr	r0, [pc, #20]	; (d59a4 <_GLOBAL__sub_I_emptyResponse+0x68>)
   d598e:	2301      	movs	r3, #1
   d5990:	84a3      	strh	r3, [r4, #36]	; 0x24
   d5992:	f001 fcdc 	bl	d734e <__aeabi_atexit>
static TinyGPSPlus gps;
   d5996:	480b      	ldr	r0, [pc, #44]	; (d59c4 <_GLOBAL__sub_I_emptyResponse+0x88>)
}
   d5998:	b003      	add	sp, #12
   d599a:	e8bd 4030 	ldmia.w	sp!, {r4, r5, lr}
static TinyGPSPlus gps;
   d599e:	f7ff bb1e 	b.w	d4fde <_ZN11TinyGPSPlusC1Ev>
   d59a2:	bf00      	nop
   d59a4:	2003e6d0 	.word	0x2003e6d0
   d59a8:	2003e524 	.word	0x2003e524
   d59ac:	000d81b0 	.word	0x000d81b0
   d59b0:	2003e528 	.word	0x2003e528
   d59b4:	000d8164 	.word	0x000d8164
   d59b8:	00989680 	.word	0x00989680
   d59bc:	2003e438 	.word	0x2003e438
   d59c0:	000d4b9b 	.word	0x000d4b9b
   d59c4:	2003e530 	.word	0x2003e530

000d59c8 <_ZN10eEPROM_I2CC1Ev>:
/**************************************************************************/
/*!
    Constructor
*/
/**************************************************************************/
eEPROM_I2C::eEPROM_I2C(void) {}
   d59c8:	4770      	bx	lr

000d59ca <_ZN10eEPROM_I2C5beginEhP7TwoWire>:
 *            The I2C address to be used.
 *    @param  theWire
 *            The Wire object to be used for I2C connections.
 *    @return True if initialization was successful, otherwise false.
 */
bool eEPROM_I2C::begin(uint8_t addr, TwoWire *theWire) {
   d59ca:	b510      	push	{r4, lr}
   d59cc:	4604      	mov	r4, r0
   d59ce:	4610      	mov	r0, r2
  i2c_addr = addr;
  _wire = theWire;
   d59d0:	6062      	str	r2, [r4, #4]
  i2c_addr = addr;
   d59d2:	7021      	strb	r1, [r4, #0]

  _wire->begin();
   d59d4:	f000 fc20 	bl	d6218 <_ZN7TwoWire5beginEv>

  // A basic scanner, see if it ACK's
  _wire->beginTransmission(i2c_addr);
   d59d8:	7821      	ldrb	r1, [r4, #0]
   d59da:	6860      	ldr	r0, [r4, #4]
   d59dc:	f000 fc4e 	bl	d627c <_ZN7TwoWire17beginTransmissionEh>
  if (_wire->endTransmission() == 0) {
   d59e0:	6860      	ldr	r0, [r4, #4]
   d59e2:	f000 fc53 	bl	d628c <_ZN7TwoWire15endTransmissionEv>
    return true;
  }

  return false;
}
   d59e6:	fab0 f080 	clz	r0, r0
   d59ea:	0940      	lsrs	r0, r0, #5
   d59ec:	bd10      	pop	{r4, pc}

000d59ee <_ZN10eEPROM_I2C6write8Eth>:
                The 16-bit address to write to in EEPROM memory
    @param[in] value
                The 8-bit value to write at addr
*/
/**************************************************************************/
void eEPROM_I2C::write8(uint16_t addr, uint8_t value) {
   d59ee:	b570      	push	{r4, r5, r6, lr}
   d59f0:	4604      	mov	r4, r0
   d59f2:	460d      	mov	r5, r1
  _wire->beginTransmission(i2c_addr);
   d59f4:	7801      	ldrb	r1, [r0, #0]
   d59f6:	6840      	ldr	r0, [r0, #4]
void eEPROM_I2C::write8(uint16_t addr, uint8_t value) {
   d59f8:	4616      	mov	r6, r2
  _wire->beginTransmission(i2c_addr);
   d59fa:	f000 fc3f 	bl	d627c <_ZN7TwoWire17beginTransmissionEh>
  _wire->write(addr >> 8);
   d59fe:	0a29      	lsrs	r1, r5, #8
   d5a00:	6860      	ldr	r0, [r4, #4]
   d5a02:	f7ff fe1d 	bl	d5640 <_ZN7TwoWire5writeEi>
  _wire->write(addr & 0xFF);
   d5a06:	b2e9      	uxtb	r1, r5
   d5a08:	6860      	ldr	r0, [r4, #4]
   d5a0a:	f7ff fe19 	bl	d5640 <_ZN7TwoWire5writeEi>
  _wire->write(value);
   d5a0e:	6860      	ldr	r0, [r4, #4]
   d5a10:	6803      	ldr	r3, [r0, #0]
   d5a12:	4631      	mov	r1, r6
   d5a14:	689b      	ldr	r3, [r3, #8]
   d5a16:	4798      	blx	r3
  _wire->endTransmission();
   d5a18:	6860      	ldr	r0, [r4, #4]
   d5a1a:	f000 fc37 	bl	d628c <_ZN7TwoWire15endTransmissionEv>

  // Wait until it acks!
  while (1) {
    _wire->beginTransmission(i2c_addr);
   d5a1e:	6860      	ldr	r0, [r4, #4]
   d5a20:	7821      	ldrb	r1, [r4, #0]
   d5a22:	f000 fc2b 	bl	d627c <_ZN7TwoWire17beginTransmissionEh>
    if (_wire->endTransmission() == 0) {
   d5a26:	6860      	ldr	r0, [r4, #4]
   d5a28:	f000 fc30 	bl	d628c <_ZN7TwoWire15endTransmissionEv>
   d5a2c:	b118      	cbz	r0, d5a36 <_ZN10eEPROM_I2C6write8Eth+0x48>
      return;
    }
    delay(2);
   d5a2e:	2002      	movs	r0, #2
   d5a30:	f000 fd39 	bl	d64a6 <delay>
    _wire->beginTransmission(i2c_addr);
   d5a34:	e7f3      	b.n	d5a1e <_ZN10eEPROM_I2C6write8Eth+0x30>
  }
}
   d5a36:	bd70      	pop	{r4, r5, r6, pc}

000d5a38 <_ZN10eEPROM_I2C5read8Et>:
    @param addr
                The 16-bit address to read from in EEPROM memory
    @returns    The 8-bit value retrieved at addr
*/
/**************************************************************************/
uint8_t eEPROM_I2C::read8(uint16_t addr) {
   d5a38:	b538      	push	{r3, r4, r5, lr}
   d5a3a:	4604      	mov	r4, r0
   d5a3c:	460d      	mov	r5, r1
  _wire->beginTransmission(i2c_addr);
   d5a3e:	7801      	ldrb	r1, [r0, #0]
   d5a40:	6840      	ldr	r0, [r0, #4]
   d5a42:	f000 fc1b 	bl	d627c <_ZN7TwoWire17beginTransmissionEh>
  _wire->write(addr >> 8);
   d5a46:	0a29      	lsrs	r1, r5, #8
   d5a48:	6860      	ldr	r0, [r4, #4]
   d5a4a:	f7ff fdf9 	bl	d5640 <_ZN7TwoWire5writeEi>
  _wire->write(addr & 0xFF);
   d5a4e:	b2e9      	uxtb	r1, r5
   d5a50:	6860      	ldr	r0, [r4, #4]
   d5a52:	f7ff fdf5 	bl	d5640 <_ZN7TwoWire5writeEi>
  _wire->endTransmission();
   d5a56:	6860      	ldr	r0, [r4, #4]
   d5a58:	f000 fc18 	bl	d628c <_ZN7TwoWire15endTransmissionEv>

  size_t recv = _wire->requestFrom(i2c_addr, (uint8_t)1);
   d5a5c:	7821      	ldrb	r1, [r4, #0]
   d5a5e:	6860      	ldr	r0, [r4, #4]
   d5a60:	2201      	movs	r2, #1
   d5a62:	f000 fc08 	bl	d6276 <_ZN7TwoWire11requestFromEhj>
  if (recv != 1) {
   d5a66:	2801      	cmp	r0, #1
   d5a68:	d105      	bne.n	d5a76 <_ZN10eEPROM_I2C5read8Et+0x3e>
    return 0;
  }
  return _wire->read();
   d5a6a:	6860      	ldr	r0, [r4, #4]
   d5a6c:	6803      	ldr	r3, [r0, #0]
   d5a6e:	695b      	ldr	r3, [r3, #20]
   d5a70:	4798      	blx	r3
   d5a72:	b2c0      	uxtb	r0, r0
}
   d5a74:	bd38      	pop	{r3, r4, r5, pc}
    return 0;
   d5a76:	2000      	movs	r0, #0
   d5a78:	e7fc      	b.n	d5a74 <_ZN10eEPROM_I2C5read8Et+0x3c>
	...

000d5a7c <HAL_USB_USART_Init>:
#endif

DYNALIB_BEGIN(hal_usb)

#ifdef USB_CDC_ENABLE
DYNALIB_FN(0, hal_usb, HAL_USB_USART_Init, void(HAL_USB_USART_Serial, const HAL_USB_USART_Config*))
   d5a7c:	b508      	push	{r3, lr}
   d5a7e:	4b02      	ldr	r3, [pc, #8]	; (d5a88 <HAL_USB_USART_Init+0xc>)
   d5a80:	681b      	ldr	r3, [r3, #0]
   d5a82:	681b      	ldr	r3, [r3, #0]
   d5a84:	9301      	str	r3, [sp, #4]
   d5a86:	bd08      	pop	{r3, pc}
   d5a88:	0003024c 	.word	0x0003024c

000d5a8c <HAL_USB_USART_Begin>:
DYNALIB_FN(1, hal_usb, HAL_USB_USART_Begin, void(HAL_USB_USART_Serial, uint32_t, void *))
   d5a8c:	b508      	push	{r3, lr}
   d5a8e:	4b02      	ldr	r3, [pc, #8]	; (d5a98 <HAL_USB_USART_Begin+0xc>)
   d5a90:	681b      	ldr	r3, [r3, #0]
   d5a92:	685b      	ldr	r3, [r3, #4]
   d5a94:	9301      	str	r3, [sp, #4]
   d5a96:	bd08      	pop	{r3, pc}
   d5a98:	0003024c 	.word	0x0003024c

000d5a9c <HAL_USB_USART_Available_Data>:
DYNALIB_FN(2, hal_usb, HAL_USB_USART_End, void(HAL_USB_USART_Serial))
DYNALIB_FN(3, hal_usb, HAL_USB_USART_Baud_Rate, unsigned int(HAL_USB_USART_Serial))
DYNALIB_FN(4, hal_usb, HAL_USB_USART_Available_Data, int32_t(HAL_USB_USART_Serial))
   d5a9c:	b508      	push	{r3, lr}
   d5a9e:	4b02      	ldr	r3, [pc, #8]	; (d5aa8 <HAL_USB_USART_Available_Data+0xc>)
   d5aa0:	681b      	ldr	r3, [r3, #0]
   d5aa2:	691b      	ldr	r3, [r3, #16]
   d5aa4:	9301      	str	r3, [sp, #4]
   d5aa6:	bd08      	pop	{r3, pc}
   d5aa8:	0003024c 	.word	0x0003024c

000d5aac <HAL_USB_USART_Available_Data_For_Write>:
DYNALIB_FN(5, hal_usb, HAL_USB_USART_Available_Data_For_Write, int32_t(HAL_USB_USART_Serial))
   d5aac:	b508      	push	{r3, lr}
   d5aae:	4b02      	ldr	r3, [pc, #8]	; (d5ab8 <HAL_USB_USART_Available_Data_For_Write+0xc>)
   d5ab0:	681b      	ldr	r3, [r3, #0]
   d5ab2:	695b      	ldr	r3, [r3, #20]
   d5ab4:	9301      	str	r3, [sp, #4]
   d5ab6:	bd08      	pop	{r3, pc}
   d5ab8:	0003024c 	.word	0x0003024c

000d5abc <HAL_USB_USART_Receive_Data>:
DYNALIB_FN(6, hal_usb, HAL_USB_USART_Receive_Data, int32_t(HAL_USB_USART_Serial, uint8_t))
   d5abc:	b508      	push	{r3, lr}
   d5abe:	4b02      	ldr	r3, [pc, #8]	; (d5ac8 <HAL_USB_USART_Receive_Data+0xc>)
   d5ac0:	681b      	ldr	r3, [r3, #0]
   d5ac2:	699b      	ldr	r3, [r3, #24]
   d5ac4:	9301      	str	r3, [sp, #4]
   d5ac6:	bd08      	pop	{r3, pc}
   d5ac8:	0003024c 	.word	0x0003024c

000d5acc <HAL_USB_USART_Send_Data>:
DYNALIB_FN(7, hal_usb, HAL_USB_USART_Send_Data, int32_t(HAL_USB_USART_Serial, uint8_t))
   d5acc:	b508      	push	{r3, lr}
   d5ace:	4b02      	ldr	r3, [pc, #8]	; (d5ad8 <HAL_USB_USART_Send_Data+0xc>)
   d5ad0:	681b      	ldr	r3, [r3, #0]
   d5ad2:	69db      	ldr	r3, [r3, #28]
   d5ad4:	9301      	str	r3, [sp, #4]
   d5ad6:	bd08      	pop	{r3, pc}
   d5ad8:	0003024c 	.word	0x0003024c

000d5adc <HAL_USB_USART_Flush_Data>:
DYNALIB_FN(8, hal_usb, HAL_USB_USART_Flush_Data, void(HAL_USB_USART_Serial))
   d5adc:	b508      	push	{r3, lr}
   d5ade:	4b02      	ldr	r3, [pc, #8]	; (d5ae8 <HAL_USB_USART_Flush_Data+0xc>)
   d5ae0:	681b      	ldr	r3, [r3, #0]
   d5ae2:	6a1b      	ldr	r3, [r3, #32]
   d5ae4:	9301      	str	r3, [sp, #4]
   d5ae6:	bd08      	pop	{r3, pc}
   d5ae8:	0003024c 	.word	0x0003024c

000d5aec <hal_spi_begin>:
// New HAL functions must be added to the end of this list.
// GNINRAW

DYNALIB_BEGIN(hal_spi)

DYNALIB_FN(0, hal_spi, hal_spi_begin, void(hal_spi_interface_t, uint16_t))
   d5aec:	b508      	push	{r3, lr}
   d5aee:	4b02      	ldr	r3, [pc, #8]	; (d5af8 <hal_spi_begin+0xc>)
   d5af0:	681b      	ldr	r3, [r3, #0]
   d5af2:	681b      	ldr	r3, [r3, #0]
   d5af4:	9301      	str	r3, [sp, #4]
   d5af6:	bd08      	pop	{r3, pc}
   d5af8:	00030230 	.word	0x00030230

000d5afc <hal_spi_transfer>:
DYNALIB_FN(1, hal_spi, hal_spi_end, void(hal_spi_interface_t))
DYNALIB_FN(2, hal_spi, hal_spi_set_bit_order, void(hal_spi_interface_t, uint8_t))
DYNALIB_FN(3, hal_spi, hal_spi_set_data_mode, void(hal_spi_interface_t, uint8_t))
DYNALIB_FN(4, hal_spi, hal_spi_set_clock_divider, void(hal_spi_interface_t, uint8_t))
DYNALIB_FN(5, hal_spi, hal_spi_transfer, uint16_t(hal_spi_interface_t, uint16_t))
   d5afc:	b508      	push	{r3, lr}
   d5afe:	4b02      	ldr	r3, [pc, #8]	; (d5b08 <hal_spi_transfer+0xc>)
   d5b00:	681b      	ldr	r3, [r3, #0]
   d5b02:	695b      	ldr	r3, [r3, #20]
   d5b04:	9301      	str	r3, [sp, #4]
   d5b06:	bd08      	pop	{r3, pc}
   d5b08:	00030230 	.word	0x00030230

000d5b0c <hal_spi_init>:
DYNALIB_FN(6, hal_spi, hal_spi_is_enabled_deprecated, bool(void))
DYNALIB_FN(7, hal_spi, hal_spi_init, void(hal_spi_interface_t))
   d5b0c:	b508      	push	{r3, lr}
   d5b0e:	4b02      	ldr	r3, [pc, #8]	; (d5b18 <hal_spi_init+0xc>)
   d5b10:	681b      	ldr	r3, [r3, #0]
   d5b12:	69db      	ldr	r3, [r3, #28]
   d5b14:	9301      	str	r3, [sp, #4]
   d5b16:	bd08      	pop	{r3, pc}
   d5b18:	00030230 	.word	0x00030230

000d5b1c <hal_spi_is_enabled>:
DYNALIB_FN(8, hal_spi, hal_spi_is_enabled, bool(hal_spi_interface_t))
   d5b1c:	b508      	push	{r3, lr}
   d5b1e:	4b02      	ldr	r3, [pc, #8]	; (d5b28 <hal_spi_is_enabled+0xc>)
   d5b20:	681b      	ldr	r3, [r3, #0]
   d5b22:	6a1b      	ldr	r3, [r3, #32]
   d5b24:	9301      	str	r3, [sp, #4]
   d5b26:	bd08      	pop	{r3, pc}
   d5b28:	00030230 	.word	0x00030230

000d5b2c <hal_spi_info>:
DYNALIB_FN(9, hal_spi, hal_spi_info, void(hal_spi_interface_t, hal_spi_info_t*, void*))
   d5b2c:	b508      	push	{r3, lr}
   d5b2e:	4b02      	ldr	r3, [pc, #8]	; (d5b38 <hal_spi_info+0xc>)
   d5b30:	681b      	ldr	r3, [r3, #0]
   d5b32:	6a5b      	ldr	r3, [r3, #36]	; 0x24
   d5b34:	9301      	str	r3, [sp, #4]
   d5b36:	bd08      	pop	{r3, pc}
   d5b38:	00030230 	.word	0x00030230

000d5b3c <hal_spi_set_settings>:
DYNALIB_FN(10, hal_spi, hal_spi_transfer_dma, void(hal_spi_interface_t, void*, void*, uint32_t, hal_spi_dma_user_callback))
DYNALIB_FN(11, hal_spi, hal_spi_begin_ext, void(hal_spi_interface_t, hal_spi_mode_t, uint16_t, void*))
DYNALIB_FN(12, hal_spi, hal_spi_set_callback_on_selected, void(hal_spi_interface_t, hal_spi_select_user_callback, void*))
DYNALIB_FN(13, hal_spi, hal_spi_transfer_dma_cancel, void(hal_spi_interface_t))
DYNALIB_FN(14, hal_spi, hal_spi_transfer_dma_status, int32_t(hal_spi_interface_t, hal_spi_transfer_status_t*))
DYNALIB_FN(15, hal_spi, hal_spi_set_settings, int32_t(hal_spi_interface_t, uint8_t, uint8_t, uint8_t, uint8_t, void*))
   d5b3c:	b508      	push	{r3, lr}
   d5b3e:	4b02      	ldr	r3, [pc, #8]	; (d5b48 <hal_spi_set_settings+0xc>)
   d5b40:	681b      	ldr	r3, [r3, #0]
   d5b42:	6bdb      	ldr	r3, [r3, #60]	; 0x3c
   d5b44:	9301      	str	r3, [sp, #4]
   d5b46:	bd08      	pop	{r3, pc}
   d5b48:	00030230 	.word	0x00030230

000d5b4c <hal_spi_acquire>:
#if HAL_PLATFORM_SPI_HAL_THREAD_SAFETY
DYNALIB_FN(16, hal_spi, hal_spi_acquire, int32_t(hal_spi_interface_t, const hal_spi_acquire_config_t*))
   d5b4c:	b508      	push	{r3, lr}
   d5b4e:	4b02      	ldr	r3, [pc, #8]	; (d5b58 <hal_spi_acquire+0xc>)
   d5b50:	681b      	ldr	r3, [r3, #0]
   d5b52:	6c1b      	ldr	r3, [r3, #64]	; 0x40
   d5b54:	9301      	str	r3, [sp, #4]
   d5b56:	bd08      	pop	{r3, pc}
   d5b58:	00030230 	.word	0x00030230

000d5b5c <hal_spi_release>:
DYNALIB_FN(17, hal_spi, hal_spi_release, int32_t(hal_spi_interface_t, void*))
   d5b5c:	b508      	push	{r3, lr}
   d5b5e:	4b02      	ldr	r3, [pc, #8]	; (d5b68 <hal_spi_release+0xc>)
   d5b60:	681b      	ldr	r3, [r3, #0]
   d5b62:	6c5b      	ldr	r3, [r3, #68]	; 0x44
   d5b64:	9301      	str	r3, [sp, #4]
   d5b66:	bd08      	pop	{r3, pc}
   d5b68:	00030230 	.word	0x00030230

000d5b6c <hal_i2c_set_speed>:
#define BASE_IDX 16 // Base index for all subsequent functions
#else
#define BASE_IDX 0
#endif

DYNALIB_FN(BASE_IDX + 0, hal_i2c, hal_i2c_set_speed, void(hal_i2c_interface_t, uint32_t, void*))
   d5b6c:	b508      	push	{r3, lr}
   d5b6e:	4b02      	ldr	r3, [pc, #8]	; (d5b78 <hal_i2c_set_speed+0xc>)
   d5b70:	681b      	ldr	r3, [r3, #0]
   d5b72:	681b      	ldr	r3, [r3, #0]
   d5b74:	9301      	str	r3, [sp, #4]
   d5b76:	bd08      	pop	{r3, pc}
   d5b78:	00030228 	.word	0x00030228

000d5b7c <hal_i2c_begin>:
DYNALIB_FN(BASE_IDX + 1, hal_i2c, hal_i2c_enable_dma_mode, void(hal_i2c_interface_t, bool, void*))
DYNALIB_FN(BASE_IDX + 2, hal_i2c, hal_i2c_stretch_clock, void(hal_i2c_interface_t, bool, void*))
DYNALIB_FN(BASE_IDX + 3, hal_i2c, hal_i2c_begin, void(hal_i2c_interface_t, hal_i2c_mode_t, uint8_t, void*))
   d5b7c:	b508      	push	{r3, lr}
   d5b7e:	4b02      	ldr	r3, [pc, #8]	; (d5b88 <hal_i2c_begin+0xc>)
   d5b80:	681b      	ldr	r3, [r3, #0]
   d5b82:	68db      	ldr	r3, [r3, #12]
   d5b84:	9301      	str	r3, [sp, #4]
   d5b86:	bd08      	pop	{r3, pc}
   d5b88:	00030228 	.word	0x00030228

000d5b8c <hal_i2c_begin_transmission>:
DYNALIB_FN(BASE_IDX + 4, hal_i2c, hal_i2c_end, void(hal_i2c_interface_t, void*))
DYNALIB_FN(BASE_IDX + 5, hal_i2c, hal_i2c_request, uint32_t(hal_i2c_interface_t, uint8_t, uint8_t, uint8_t, void*))
DYNALIB_FN(BASE_IDX + 6, hal_i2c, hal_i2c_begin_transmission, void(hal_i2c_interface_t, uint8_t, const hal_i2c_transmission_config_t*))
   d5b8c:	b508      	push	{r3, lr}
   d5b8e:	4b02      	ldr	r3, [pc, #8]	; (d5b98 <hal_i2c_begin_transmission+0xc>)
   d5b90:	681b      	ldr	r3, [r3, #0]
   d5b92:	699b      	ldr	r3, [r3, #24]
   d5b94:	9301      	str	r3, [sp, #4]
   d5b96:	bd08      	pop	{r3, pc}
   d5b98:	00030228 	.word	0x00030228

000d5b9c <hal_i2c_end_transmission>:
DYNALIB_FN(BASE_IDX + 7, hal_i2c, hal_i2c_end_transmission, uint8_t(hal_i2c_interface_t, uint8_t, void*))
   d5b9c:	b508      	push	{r3, lr}
   d5b9e:	4b02      	ldr	r3, [pc, #8]	; (d5ba8 <hal_i2c_end_transmission+0xc>)
   d5ba0:	681b      	ldr	r3, [r3, #0]
   d5ba2:	69db      	ldr	r3, [r3, #28]
   d5ba4:	9301      	str	r3, [sp, #4]
   d5ba6:	bd08      	pop	{r3, pc}
   d5ba8:	00030228 	.word	0x00030228

000d5bac <hal_i2c_write>:
DYNALIB_FN(BASE_IDX + 8, hal_i2c, hal_i2c_write, uint32_t(hal_i2c_interface_t, uint8_t, void*))
   d5bac:	b508      	push	{r3, lr}
   d5bae:	4b02      	ldr	r3, [pc, #8]	; (d5bb8 <hal_i2c_write+0xc>)
   d5bb0:	681b      	ldr	r3, [r3, #0]
   d5bb2:	6a1b      	ldr	r3, [r3, #32]
   d5bb4:	9301      	str	r3, [sp, #4]
   d5bb6:	bd08      	pop	{r3, pc}
   d5bb8:	00030228 	.word	0x00030228

000d5bbc <hal_i2c_available>:
DYNALIB_FN(BASE_IDX + 9, hal_i2c, hal_i2c_available, int32_t(hal_i2c_interface_t, void*))
   d5bbc:	b508      	push	{r3, lr}
   d5bbe:	4b02      	ldr	r3, [pc, #8]	; (d5bc8 <hal_i2c_available+0xc>)
   d5bc0:	681b      	ldr	r3, [r3, #0]
   d5bc2:	6a5b      	ldr	r3, [r3, #36]	; 0x24
   d5bc4:	9301      	str	r3, [sp, #4]
   d5bc6:	bd08      	pop	{r3, pc}
   d5bc8:	00030228 	.word	0x00030228

000d5bcc <hal_i2c_read>:
DYNALIB_FN(BASE_IDX + 10, hal_i2c, hal_i2c_read, int32_t(hal_i2c_interface_t, void*))
   d5bcc:	b508      	push	{r3, lr}
   d5bce:	4b02      	ldr	r3, [pc, #8]	; (d5bd8 <hal_i2c_read+0xc>)
   d5bd0:	681b      	ldr	r3, [r3, #0]
   d5bd2:	6a9b      	ldr	r3, [r3, #40]	; 0x28
   d5bd4:	9301      	str	r3, [sp, #4]
   d5bd6:	bd08      	pop	{r3, pc}
   d5bd8:	00030228 	.word	0x00030228

000d5bdc <hal_i2c_peek>:
DYNALIB_FN(BASE_IDX + 11, hal_i2c, hal_i2c_peek, int32_t(hal_i2c_interface_t, void*))
   d5bdc:	b508      	push	{r3, lr}
   d5bde:	4b02      	ldr	r3, [pc, #8]	; (d5be8 <hal_i2c_peek+0xc>)
   d5be0:	681b      	ldr	r3, [r3, #0]
   d5be2:	6adb      	ldr	r3, [r3, #44]	; 0x2c
   d5be4:	9301      	str	r3, [sp, #4]
   d5be6:	bd08      	pop	{r3, pc}
   d5be8:	00030228 	.word	0x00030228

000d5bec <hal_i2c_flush>:
DYNALIB_FN(BASE_IDX + 12, hal_i2c, hal_i2c_flush, void(hal_i2c_interface_t, void*))
   d5bec:	b508      	push	{r3, lr}
   d5bee:	4b02      	ldr	r3, [pc, #8]	; (d5bf8 <hal_i2c_flush+0xc>)
   d5bf0:	681b      	ldr	r3, [r3, #0]
   d5bf2:	6b1b      	ldr	r3, [r3, #48]	; 0x30
   d5bf4:	9301      	str	r3, [sp, #4]
   d5bf6:	bd08      	pop	{r3, pc}
   d5bf8:	00030228 	.word	0x00030228

000d5bfc <hal_i2c_is_enabled>:
DYNALIB_FN(BASE_IDX + 13, hal_i2c, hal_i2c_is_enabled, bool(hal_i2c_interface_t, void*))
   d5bfc:	b508      	push	{r3, lr}
   d5bfe:	4b02      	ldr	r3, [pc, #8]	; (d5c08 <hal_i2c_is_enabled+0xc>)
   d5c00:	681b      	ldr	r3, [r3, #0]
   d5c02:	6b5b      	ldr	r3, [r3, #52]	; 0x34
   d5c04:	9301      	str	r3, [sp, #4]
   d5c06:	bd08      	pop	{r3, pc}
   d5c08:	00030228 	.word	0x00030228

000d5c0c <hal_i2c_init>:
DYNALIB_FN(BASE_IDX + 14, hal_i2c, hal_i2c_set_callback_on_received, void(hal_i2c_interface_t, void(*)(int), void*))
DYNALIB_FN(BASE_IDX + 15, hal_i2c, hal_i2c_set_callback_on_requested, void(hal_i2c_interface_t, void(*)(void), void*))
DYNALIB_FN(BASE_IDX + 16, hal_i2c, hal_i2c_init, int(hal_i2c_interface_t, const hal_i2c_config_t*))
   d5c0c:	b508      	push	{r3, lr}
   d5c0e:	4b02      	ldr	r3, [pc, #8]	; (d5c18 <hal_i2c_init+0xc>)
   d5c10:	681b      	ldr	r3, [r3, #0]
   d5c12:	6c1b      	ldr	r3, [r3, #64]	; 0x40
   d5c14:	9301      	str	r3, [sp, #4]
   d5c16:	bd08      	pop	{r3, pc}
   d5c18:	00030228 	.word	0x00030228

000d5c1c <hal_i2c_lock>:
DYNALIB_FN(BASE_IDX + 17, hal_i2c, hal_i2c_reset, uint8_t(hal_i2c_interface_t, uint32_t, void*))
DYNALIB_FN(BASE_IDX + 18, hal_i2c, hal_i2c_lock, int32_t(hal_i2c_interface_t, void*))
   d5c1c:	b508      	push	{r3, lr}
   d5c1e:	4b02      	ldr	r3, [pc, #8]	; (d5c28 <hal_i2c_lock+0xc>)
   d5c20:	681b      	ldr	r3, [r3, #0]
   d5c22:	6c9b      	ldr	r3, [r3, #72]	; 0x48
   d5c24:	9301      	str	r3, [sp, #4]
   d5c26:	bd08      	pop	{r3, pc}
   d5c28:	00030228 	.word	0x00030228

000d5c2c <hal_i2c_unlock>:
DYNALIB_FN(BASE_IDX + 19, hal_i2c, hal_i2c_unlock, int32_t(hal_i2c_interface_t, void*))
   d5c2c:	b508      	push	{r3, lr}
   d5c2e:	4b02      	ldr	r3, [pc, #8]	; (d5c38 <hal_i2c_unlock+0xc>)
   d5c30:	681b      	ldr	r3, [r3, #0]
   d5c32:	6cdb      	ldr	r3, [r3, #76]	; 0x4c
   d5c34:	9301      	str	r3, [sp, #4]
   d5c36:	bd08      	pop	{r3, pc}
   d5c38:	00030228 	.word	0x00030228

000d5c3c <hal_i2c_request_ex>:
DYNALIB_FN(BASE_IDX + 20, hal_i2c, hal_i2c_request_ex, int32_t(hal_i2c_interface_t, const hal_i2c_transmission_config_t*, void*))
   d5c3c:	b508      	push	{r3, lr}
   d5c3e:	4b02      	ldr	r3, [pc, #8]	; (d5c48 <hal_i2c_request_ex+0xc>)
   d5c40:	681b      	ldr	r3, [r3, #0]
   d5c42:	6d1b      	ldr	r3, [r3, #80]	; 0x50
   d5c44:	9301      	str	r3, [sp, #4]
   d5c46:	bd08      	pop	{r3, pc}
   d5c48:	00030228 	.word	0x00030228

000d5c4c <hal_usart_init>:
#define BASE_IDX 6 // Base index for all subsequent functions
#else
#define BASE_IDX 0
#endif

DYNALIB_FN(BASE_IDX + 0, hal_usart, hal_usart_init, void(hal_usart_interface_t, hal_usart_ring_buffer_t*, hal_usart_ring_buffer_t*))
   d5c4c:	b508      	push	{r3, lr}
   d5c4e:	4b02      	ldr	r3, [pc, #8]	; (d5c58 <hal_usart_init+0xc>)
   d5c50:	681b      	ldr	r3, [r3, #0]
   d5c52:	681b      	ldr	r3, [r3, #0]
   d5c54:	9301      	str	r3, [sp, #4]
   d5c56:	bd08      	pop	{r3, pc}
   d5c58:	0003023c 	.word	0x0003023c

000d5c5c <hal_usart_write>:
DYNALIB_FN(BASE_IDX + 1, hal_usart, hal_usart_begin, void(hal_usart_interface_t, uint32_t))
DYNALIB_FN(BASE_IDX + 2, hal_usart, hal_usart_end, void(hal_usart_interface_t))
DYNALIB_FN(BASE_IDX + 3, hal_usart, hal_usart_write, uint32_t(hal_usart_interface_t, uint8_t))
   d5c5c:	b508      	push	{r3, lr}
   d5c5e:	4b02      	ldr	r3, [pc, #8]	; (d5c68 <hal_usart_write+0xc>)
   d5c60:	681b      	ldr	r3, [r3, #0]
   d5c62:	68db      	ldr	r3, [r3, #12]
   d5c64:	9301      	str	r3, [sp, #4]
   d5c66:	bd08      	pop	{r3, pc}
   d5c68:	0003023c 	.word	0x0003023c

000d5c6c <hal_usart_available>:
DYNALIB_FN(BASE_IDX + 4, hal_usart, hal_usart_available, int32_t(hal_usart_interface_t))
   d5c6c:	b508      	push	{r3, lr}
   d5c6e:	4b02      	ldr	r3, [pc, #8]	; (d5c78 <hal_usart_available+0xc>)
   d5c70:	681b      	ldr	r3, [r3, #0]
   d5c72:	691b      	ldr	r3, [r3, #16]
   d5c74:	9301      	str	r3, [sp, #4]
   d5c76:	bd08      	pop	{r3, pc}
   d5c78:	0003023c 	.word	0x0003023c

000d5c7c <hal_usart_read>:
DYNALIB_FN(BASE_IDX + 5, hal_usart, hal_usart_read, int32_t(hal_usart_interface_t))
   d5c7c:	b508      	push	{r3, lr}
   d5c7e:	4b02      	ldr	r3, [pc, #8]	; (d5c88 <hal_usart_read+0xc>)
   d5c80:	681b      	ldr	r3, [r3, #0]
   d5c82:	695b      	ldr	r3, [r3, #20]
   d5c84:	9301      	str	r3, [sp, #4]
   d5c86:	bd08      	pop	{r3, pc}
   d5c88:	0003023c 	.word	0x0003023c

000d5c8c <hal_usart_peek>:
DYNALIB_FN(BASE_IDX + 6, hal_usart, hal_usart_peek, int32_t(hal_usart_interface_t))
   d5c8c:	b508      	push	{r3, lr}
   d5c8e:	4b02      	ldr	r3, [pc, #8]	; (d5c98 <hal_usart_peek+0xc>)
   d5c90:	681b      	ldr	r3, [r3, #0]
   d5c92:	699b      	ldr	r3, [r3, #24]
   d5c94:	9301      	str	r3, [sp, #4]
   d5c96:	bd08      	pop	{r3, pc}
   d5c98:	0003023c 	.word	0x0003023c

000d5c9c <hal_usart_flush>:
DYNALIB_FN(BASE_IDX + 7, hal_usart, hal_usart_flush, void(hal_usart_interface_t))
   d5c9c:	b508      	push	{r3, lr}
   d5c9e:	4b02      	ldr	r3, [pc, #8]	; (d5ca8 <hal_usart_flush+0xc>)
   d5ca0:	681b      	ldr	r3, [r3, #0]
   d5ca2:	69db      	ldr	r3, [r3, #28]
   d5ca4:	9301      	str	r3, [sp, #4]
   d5ca6:	bd08      	pop	{r3, pc}
   d5ca8:	0003023c 	.word	0x0003023c

000d5cac <hal_usart_is_enabled>:
DYNALIB_FN(BASE_IDX + 8, hal_usart, hal_usart_is_enabled, bool(hal_usart_interface_t))
   d5cac:	b508      	push	{r3, lr}
   d5cae:	4b02      	ldr	r3, [pc, #8]	; (d5cb8 <hal_usart_is_enabled+0xc>)
   d5cb0:	681b      	ldr	r3, [r3, #0]
   d5cb2:	6a1b      	ldr	r3, [r3, #32]
   d5cb4:	9301      	str	r3, [sp, #4]
   d5cb6:	bd08      	pop	{r3, pc}
   d5cb8:	0003023c 	.word	0x0003023c

000d5cbc <hal_usart_available_data_for_write>:
DYNALIB_FN(BASE_IDX + 9, hal_usart, hal_usart_half_duplex, void(hal_usart_interface_t, bool))
DYNALIB_FN(BASE_IDX + 10, hal_usart, hal_usart_available_data_for_write, int32_t(hal_usart_interface_t))
   d5cbc:	b508      	push	{r3, lr}
   d5cbe:	4b02      	ldr	r3, [pc, #8]	; (d5cc8 <hal_usart_available_data_for_write+0xc>)
   d5cc0:	681b      	ldr	r3, [r3, #0]
   d5cc2:	6a9b      	ldr	r3, [r3, #40]	; 0x28
   d5cc4:	9301      	str	r3, [sp, #4]
   d5cc6:	bd08      	pop	{r3, pc}
   d5cc8:	0003023c 	.word	0x0003023c

000d5ccc <inet_inet_ntop>:
DYNALIB_FN(0, hal_inet, inet_inet_addr, in_addr_t(const char*))
DYNALIB_FN(1, hal_inet, inet_inet_aton, int(const char*, struct in_addr*))
DYNALIB_FN(2, hal_inet, inet_inet_network, in_addr_t(const char*))
DYNALIB_FN(3, hal_inet, inet_inet_ntoa, char*(struct in_addr))
DYNALIB_FN(4, hal_inet, inet_inet_ntoa_r, char*(struct in_addr, char*, socklen_t))
DYNALIB_FN(5, hal_inet, inet_inet_ntop, const char*(int, const void*, char*, socklen_t))
   d5ccc:	b508      	push	{r3, lr}
   d5cce:	4b02      	ldr	r3, [pc, #8]	; (d5cd8 <inet_inet_ntop+0xc>)
   d5cd0:	681b      	ldr	r3, [r3, #0]
   d5cd2:	695b      	ldr	r3, [r3, #20]
   d5cd4:	9301      	str	r3, [sp, #4]
   d5cd6:	bd08      	pop	{r3, pc}
   d5cd8:	00030264 	.word	0x00030264

000d5cdc <os_thread_create>:

DYNALIB_BEGIN(hal_concurrent)

#if PLATFORM_THREADING
DYNALIB_FN(0, hal_concurrent, __gthread_equal, bool(__gthread_t, __gthread_t))
DYNALIB_FN(1, hal_concurrent, os_thread_create, os_result_t(os_thread_t*, const char*, os_thread_prio_t, os_thread_fn_t, void*, size_t))
   d5cdc:	b508      	push	{r3, lr}
   d5cde:	4b02      	ldr	r3, [pc, #8]	; (d5ce8 <os_thread_create+0xc>)
   d5ce0:	681b      	ldr	r3, [r3, #0]
   d5ce2:	685b      	ldr	r3, [r3, #4]
   d5ce4:	9301      	str	r3, [sp, #4]
   d5ce6:	bd08      	pop	{r3, pc}
   d5ce8:	00030248 	.word	0x00030248

000d5cec <os_thread_yield>:
DYNALIB_FN(2, hal_concurrent, os_thread_is_current, bool(os_thread_t))
DYNALIB_FN(3, hal_concurrent, os_thread_yield, os_result_t(void))
   d5cec:	b508      	push	{r3, lr}
   d5cee:	4b02      	ldr	r3, [pc, #8]	; (d5cf8 <os_thread_yield+0xc>)
   d5cf0:	681b      	ldr	r3, [r3, #0]
   d5cf2:	68db      	ldr	r3, [r3, #12]
   d5cf4:	9301      	str	r3, [sp, #4]
   d5cf6:	bd08      	pop	{r3, pc}
   d5cf8:	00030248 	.word	0x00030248

000d5cfc <os_thread_scheduling>:
DYNALIB_FN(4, hal_concurrent, os_thread_join, os_result_t(os_thread_t))
DYNALIB_FN(5, hal_concurrent, os_thread_cleanup, os_result_t(os_thread_t))
DYNALIB_FN(6, hal_concurrent, os_thread_delay_until, os_result_t(system_tick_t*, system_tick_t))
DYNALIB_FN(7, hal_concurrent, os_thread_scheduling, void(bool, void*))
   d5cfc:	b508      	push	{r3, lr}
   d5cfe:	4b02      	ldr	r3, [pc, #8]	; (d5d08 <os_thread_scheduling+0xc>)
   d5d00:	681b      	ldr	r3, [r3, #0]
   d5d02:	69db      	ldr	r3, [r3, #28]
   d5d04:	9301      	str	r3, [sp, #4]
   d5d06:	bd08      	pop	{r3, pc}
   d5d08:	00030248 	.word	0x00030248

000d5d0c <os_mutex_recursive_create>:
DYNALIB_FN(13, hal_concurrent, os_mutex_destroy, int(os_mutex_t))
DYNALIB_FN(14, hal_concurrent, os_mutex_lock, int(os_mutex_t))
DYNALIB_FN(15, hal_concurrent, os_mutex_trylock, int(os_mutex_t))
DYNALIB_FN(16, hal_concurrent, os_mutex_unlock, int(os_mutex_t))

DYNALIB_FN(17, hal_concurrent, os_mutex_recursive_create, int(os_mutex_recursive_t*))
   d5d0c:	b508      	push	{r3, lr}
   d5d0e:	4b02      	ldr	r3, [pc, #8]	; (d5d18 <os_mutex_recursive_create+0xc>)
   d5d10:	681b      	ldr	r3, [r3, #0]
   d5d12:	6c5b      	ldr	r3, [r3, #68]	; 0x44
   d5d14:	9301      	str	r3, [sp, #4]
   d5d16:	bd08      	pop	{r3, pc}
   d5d18:	00030248 	.word	0x00030248

000d5d1c <os_mutex_recursive_destroy>:
DYNALIB_FN(18, hal_concurrent, os_mutex_recursive_destroy, int(os_mutex_recursive_t))
   d5d1c:	b508      	push	{r3, lr}
   d5d1e:	4b02      	ldr	r3, [pc, #8]	; (d5d28 <os_mutex_recursive_destroy+0xc>)
   d5d20:	681b      	ldr	r3, [r3, #0]
   d5d22:	6c9b      	ldr	r3, [r3, #72]	; 0x48
   d5d24:	9301      	str	r3, [sp, #4]
   d5d26:	bd08      	pop	{r3, pc}
   d5d28:	00030248 	.word	0x00030248

000d5d2c <os_thread_exit>:

DYNALIB_FN(23, hal_concurrent, os_queue_create, int(os_queue_t*, size_t, size_t, void*))
DYNALIB_FN(24, hal_concurrent, os_queue_destroy, int(os_queue_t, void*))
DYNALIB_FN(25, hal_concurrent, os_queue_put, int(os_queue_t, const void* item, system_tick_t, void*))
DYNALIB_FN(26, hal_concurrent, os_queue_take, int(os_queue_t, void* item, system_tick_t, void*))
DYNALIB_FN(27, hal_concurrent, os_thread_exit, os_result_t(os_thread_t))
   d5d2c:	b508      	push	{r3, lr}
   d5d2e:	4b02      	ldr	r3, [pc, #8]	; (d5d38 <os_thread_exit+0xc>)
   d5d30:	681b      	ldr	r3, [r3, #0]
   d5d32:	6edb      	ldr	r3, [r3, #108]	; 0x6c
   d5d34:	9301      	str	r3, [sp, #4]
   d5d36:	bd08      	pop	{r3, pc}
   d5d38:	00030248 	.word	0x00030248

000d5d3c <HAL_RNG_GetRandomNumber>:

DYNALIB_BEGIN(hal)

#if PLATFORM_ID > 3
DYNALIB_FN(0, hal, HAL_RNG_Configuration, void(void))
DYNALIB_FN(1, hal, HAL_RNG_GetRandomNumber, uint32_t(void))
   d5d3c:	b508      	push	{r3, lr}
   d5d3e:	4b02      	ldr	r3, [pc, #8]	; (d5d48 <HAL_RNG_GetRandomNumber+0xc>)
   d5d40:	681b      	ldr	r3, [r3, #0]
   d5d42:	685b      	ldr	r3, [r3, #4]
   d5d44:	9301      	str	r3, [sp, #4]
   d5d46:	bd08      	pop	{r3, pc}
   d5d48:	00030218 	.word	0x00030218

000d5d4c <HAL_Delay_Milliseconds>:
#define BASE_IDX 2 // Base index for all subsequent functions
#else
#define BASE_IDX 0
#endif

DYNALIB_FN(BASE_IDX + 0, hal, HAL_Delay_Milliseconds, void(uint32_t))
   d5d4c:	b508      	push	{r3, lr}
   d5d4e:	4b02      	ldr	r3, [pc, #8]	; (d5d58 <HAL_Delay_Milliseconds+0xc>)
   d5d50:	681b      	ldr	r3, [r3, #0]
   d5d52:	689b      	ldr	r3, [r3, #8]
   d5d54:	9301      	str	r3, [sp, #4]
   d5d56:	bd08      	pop	{r3, pc}
   d5d58:	00030218 	.word	0x00030218

000d5d5c <HAL_Delay_Microseconds>:
DYNALIB_FN(BASE_IDX + 1, hal, HAL_Delay_Microseconds, void(uint32_t))
   d5d5c:	b508      	push	{r3, lr}
   d5d5e:	4b02      	ldr	r3, [pc, #8]	; (d5d68 <HAL_Delay_Microseconds+0xc>)
   d5d60:	681b      	ldr	r3, [r3, #0]
   d5d62:	68db      	ldr	r3, [r3, #12]
   d5d64:	9301      	str	r3, [sp, #4]
   d5d66:	bd08      	pop	{r3, pc}
   d5d68:	00030218 	.word	0x00030218

000d5d6c <HAL_Timer_Get_Milli_Seconds>:
DYNALIB_FN(BASE_IDX + 2, hal, HAL_Timer_Get_Micro_Seconds, system_tick_t(void))
DYNALIB_FN(BASE_IDX + 3, hal, HAL_Timer_Get_Milli_Seconds, system_tick_t(void))
   d5d6c:	b508      	push	{r3, lr}
   d5d6e:	4b02      	ldr	r3, [pc, #8]	; (d5d78 <HAL_Timer_Get_Milli_Seconds+0xc>)
   d5d70:	681b      	ldr	r3, [r3, #0]
   d5d72:	695b      	ldr	r3, [r3, #20]
   d5d74:	9301      	str	r3, [sp, #4]
   d5d76:	bd08      	pop	{r3, pc}
   d5d78:	00030218 	.word	0x00030218

000d5d7c <hal_rtc_time_is_valid>:
DYNALIB_FN(BASE_IDX + 15, hal, HAL_EEPROM_Get, void(uint32_t, void *, size_t))
DYNALIB_FN(BASE_IDX + 16, hal, HAL_EEPROM_Put, void(uint32_t, const void *, size_t))
DYNALIB_FN(BASE_IDX + 17, hal, HAL_EEPROM_Clear, void(void))
DYNALIB_FN(BASE_IDX + 18, hal, HAL_EEPROM_Has_Pending_Erase, bool(void))
DYNALIB_FN(BASE_IDX + 19, hal, HAL_EEPROM_Perform_Pending_Erase, void(void))
DYNALIB_FN(BASE_IDX + 20, hal, hal_rtc_time_is_valid, bool(void*))
   d5d7c:	b508      	push	{r3, lr}
   d5d7e:	4b02      	ldr	r3, [pc, #8]	; (d5d88 <hal_rtc_time_is_valid+0xc>)
   d5d80:	681b      	ldr	r3, [r3, #0]
   d5d82:	6d9b      	ldr	r3, [r3, #88]	; 0x58
   d5d84:	9301      	str	r3, [sp, #4]
   d5d86:	bd08      	pop	{r3, pc}
   d5d88:	00030218 	.word	0x00030218

000d5d8c <hal_rtc_get_time>:

DYNALIB_FN(BASE_IDX + 21, hal, hal_timer_millis, uint64_t(void*))
DYNALIB_FN(BASE_IDX + 22, hal, hal_timer_micros, uint64_t(void*))

DYNALIB_FN(BASE_IDX + 23, hal, hal_rtc_get_time, int(struct timeval*, void*))
   d5d8c:	b508      	push	{r3, lr}
   d5d8e:	4b02      	ldr	r3, [pc, #8]	; (d5d98 <hal_rtc_get_time+0xc>)
   d5d90:	681b      	ldr	r3, [r3, #0]
   d5d92:	6e5b      	ldr	r3, [r3, #100]	; 0x64
   d5d94:	9301      	str	r3, [sp, #4]
   d5d96:	bd08      	pop	{r3, pc}
   d5d98:	00030218 	.word	0x00030218

000d5d9c <hal_rtc_set_time>:
DYNALIB_FN(BASE_IDX + 24, hal, hal_rtc_set_time, int(const struct timeval*, void*))
   d5d9c:	b508      	push	{r3, lr}
   d5d9e:	4b02      	ldr	r3, [pc, #8]	; (d5da8 <hal_rtc_set_time+0xc>)
   d5da0:	681b      	ldr	r3, [r3, #0]
   d5da2:	6e9b      	ldr	r3, [r3, #104]	; 0x68
   d5da4:	9301      	str	r3, [sp, #4]
   d5da6:	bd08      	pop	{r3, pc}
   d5da8:	00030218 	.word	0x00030218

000d5dac <HAL_Pin_Mode>:

DYNALIB_BEGIN(hal_gpio)

DYNALIB_FN(0, hal_gpio, HAL_Pin_Map, Hal_Pin_Info*(void))
DYNALIB_FN(1, hal_gpio, HAL_Validate_Pin_Function, PinFunction(pin_t, PinFunction))
DYNALIB_FN(2, hal_gpio, HAL_Pin_Mode, void(pin_t, PinMode))
   d5dac:	b508      	push	{r3, lr}
   d5dae:	4b02      	ldr	r3, [pc, #8]	; (d5db8 <HAL_Pin_Mode+0xc>)
   d5db0:	681b      	ldr	r3, [r3, #0]
   d5db2:	689b      	ldr	r3, [r3, #8]
   d5db4:	9301      	str	r3, [sp, #4]
   d5db6:	bd08      	pop	{r3, pc}
   d5db8:	0003022c 	.word	0x0003022c

000d5dbc <HAL_Get_Pin_Mode>:
DYNALIB_FN(3, hal_gpio, HAL_Get_Pin_Mode, PinMode(pin_t))
   d5dbc:	b508      	push	{r3, lr}
   d5dbe:	4b02      	ldr	r3, [pc, #8]	; (d5dc8 <HAL_Get_Pin_Mode+0xc>)
   d5dc0:	681b      	ldr	r3, [r3, #0]
   d5dc2:	68db      	ldr	r3, [r3, #12]
   d5dc4:	9301      	str	r3, [sp, #4]
   d5dc6:	bd08      	pop	{r3, pc}
   d5dc8:	0003022c 	.word	0x0003022c

000d5dcc <HAL_GPIO_Write>:
DYNALIB_FN(4, hal_gpio, HAL_GPIO_Write, void(pin_t, uint8_t))
   d5dcc:	b508      	push	{r3, lr}
   d5dce:	4b02      	ldr	r3, [pc, #8]	; (d5dd8 <HAL_GPIO_Write+0xc>)
   d5dd0:	681b      	ldr	r3, [r3, #0]
   d5dd2:	691b      	ldr	r3, [r3, #16]
   d5dd4:	9301      	str	r3, [sp, #4]
   d5dd6:	bd08      	pop	{r3, pc}
   d5dd8:	0003022c 	.word	0x0003022c

000d5ddc <HAL_GPIO_Read>:
DYNALIB_FN(5, hal_gpio, HAL_GPIO_Read, int32_t(pin_t))
   d5ddc:	b508      	push	{r3, lr}
   d5dde:	4b02      	ldr	r3, [pc, #8]	; (d5de8 <HAL_GPIO_Read+0xc>)
   d5de0:	681b      	ldr	r3, [r3, #0]
   d5de2:	695b      	ldr	r3, [r3, #20]
   d5de4:	9301      	str	r3, [sp, #4]
   d5de6:	bd08      	pop	{r3, pc}
   d5de8:	0003022c 	.word	0x0003022c

000d5dec <HAL_Interrupts_Attach>:
DYNALIB_FN(6, hal_gpio, HAL_Interrupts_Attach, int(uint16_t, HAL_InterruptHandler, void*, InterruptMode, HAL_InterruptExtraConfiguration*))
   d5dec:	b508      	push	{r3, lr}
   d5dee:	4b02      	ldr	r3, [pc, #8]	; (d5df8 <HAL_Interrupts_Attach+0xc>)
   d5df0:	681b      	ldr	r3, [r3, #0]
   d5df2:	699b      	ldr	r3, [r3, #24]
   d5df4:	9301      	str	r3, [sp, #4]
   d5df6:	bd08      	pop	{r3, pc}
   d5df8:	0003022c 	.word	0x0003022c

000d5dfc <HAL_Interrupts_Detach>:
DYNALIB_FN(7, hal_gpio, HAL_Interrupts_Detach, int(uint16_t))
   d5dfc:	b508      	push	{r3, lr}
   d5dfe:	4b02      	ldr	r3, [pc, #8]	; (d5e08 <HAL_Interrupts_Detach+0xc>)
   d5e00:	681b      	ldr	r3, [r3, #0]
   d5e02:	69db      	ldr	r3, [r3, #28]
   d5e04:	9301      	str	r3, [sp, #4]
   d5e06:	bd08      	pop	{r3, pc}
   d5e08:	0003022c 	.word	0x0003022c

000d5e0c <netdb_freeaddrinfo>:

DYNALIB_BEGIN(hal_netdb)

DYNALIB_FN(0, hal_netdb, netdb_gethostbyname, struct hostent*(const char*))
DYNALIB_FN(1, hal_netdb, netdb_gethostbyname_r, int(const char*, struct hostent*, char*, size_t, struct hostent**, int*))
DYNALIB_FN(2, hal_netdb, netdb_freeaddrinfo, void(struct addrinfo*))
   d5e0c:	b508      	push	{r3, lr}
   d5e0e:	4b02      	ldr	r3, [pc, #8]	; (d5e18 <netdb_freeaddrinfo+0xc>)
   d5e10:	681b      	ldr	r3, [r3, #0]
   d5e12:	689b      	ldr	r3, [r3, #8]
   d5e14:	9301      	str	r3, [sp, #4]
   d5e16:	bd08      	pop	{r3, pc}
   d5e18:	00030268 	.word	0x00030268

000d5e1c <netdb_getaddrinfo>:
DYNALIB_FN(3, hal_netdb, netdb_getaddrinfo, int(const char*, const char*, const struct addrinfo*, struct addrinfo**))
   d5e1c:	b508      	push	{r3, lr}
   d5e1e:	4b02      	ldr	r3, [pc, #8]	; (d5e28 <netdb_getaddrinfo+0xc>)
   d5e20:	681b      	ldr	r3, [r3, #0]
   d5e22:	68db      	ldr	r3, [r3, #12]
   d5e24:	9301      	str	r3, [sp, #4]
   d5e26:	bd08      	pop	{r3, pc}
   d5e28:	00030268 	.word	0x00030268

000d5e2c <panic_>:
DYNALIB_FN(9, services, LED_Toggle, void(Led_TypeDef))
DYNALIB_FN(10, services, LED_Fade, void(Led_TypeDef))
DYNALIB_FN(11, services, Get_LED_Brightness, uint8_t(void))

DYNALIB_FN(12, services, set_logger_output, void(debug_output_fn, LoggerOutputLevel)) // Deprecated
DYNALIB_FN(13, services, panic_, void(ePanicCode, void*, void(*)(uint32_t)))
   d5e2c:	b508      	push	{r3, lr}
   d5e2e:	4b02      	ldr	r3, [pc, #8]	; (d5e38 <panic_+0xc>)
   d5e30:	681b      	ldr	r3, [r3, #0]
   d5e32:	6b5b      	ldr	r3, [r3, #52]	; 0x34
   d5e34:	9301      	str	r3, [sp, #4]
   d5e36:	bd08      	pop	{r3, pc}
   d5e38:	00030260 	.word	0x00030260

000d5e3c <log_message_v>:
DYNALIB_FN(17, services, LED_RGB_SetChangeHandler, void(led_update_handler_fn, void*))
DYNALIB_FN(18, services, log_print_direct_, void(int, void*, const char*, ...)) // Deprecated
DYNALIB_FN(19, services, LED_GetColor, uint32_t(uint32_t, void*))

DYNALIB_FN(20, services, log_message, void(int, const char*, LogAttributes*, void*, const char*, ...))
DYNALIB_FN(21, services, log_message_v, void(int, const char*, LogAttributes*, void*, const char*, va_list))
   d5e3c:	b508      	push	{r3, lr}
   d5e3e:	4b02      	ldr	r3, [pc, #8]	; (d5e48 <log_message_v+0xc>)
   d5e40:	681b      	ldr	r3, [r3, #0]
   d5e42:	6d5b      	ldr	r3, [r3, #84]	; 0x54
   d5e44:	9301      	str	r3, [sp, #4]
   d5e46:	bd08      	pop	{r3, pc}
   d5e48:	00030260 	.word	0x00030260

000d5e4c <spark_process>:

DYNALIB_BEGIN(system_cloud)

DYNALIB_FN(0, system_cloud, spark_variable, bool(const char*, const void*, Spark_Data_TypeDef, spark_variable_t*))
DYNALIB_FN(1, system_cloud, spark_function, bool(const char*, p_user_function_int_str_t, void*))
DYNALIB_FN(2, system_cloud, spark_process, void(void))
   d5e4c:	b508      	push	{r3, lr}
   d5e4e:	4b02      	ldr	r3, [pc, #8]	; (d5e58 <spark_process+0xc>)
   d5e50:	681b      	ldr	r3, [r3, #0]
   d5e52:	689b      	ldr	r3, [r3, #8]
   d5e54:	9301      	str	r3, [sp, #4]
   d5e56:	bd08      	pop	{r3, pc}
   d5e58:	00030244 	.word	0x00030244

000d5e5c <spark_cloud_flag_connected>:
DYNALIB_FN(3, system_cloud, spark_cloud_flag_connect, void(void))
DYNALIB_FN(4, system_cloud, spark_cloud_flag_disconnect, void(void))
DYNALIB_FN(5, system_cloud, spark_cloud_flag_connected, bool(void))
   d5e5c:	b508      	push	{r3, lr}
   d5e5e:	4b02      	ldr	r3, [pc, #8]	; (d5e68 <spark_cloud_flag_connected+0xc>)
   d5e60:	681b      	ldr	r3, [r3, #0]
   d5e62:	695b      	ldr	r3, [r3, #20]
   d5e64:	9301      	str	r3, [sp, #4]
   d5e66:	bd08      	pop	{r3, pc}
   d5e68:	00030244 	.word	0x00030244

000d5e6c <spark_sync_time_pending>:
DYNALIB_FN(7, system_cloud, spark_deviceID, String(void))
DYNALIB_FN(8, system_cloud, spark_send_event, bool(const char*, const char*, int, uint32_t, void*))
DYNALIB_FN(9, system_cloud, spark_subscribe, bool(const char*, EventHandler, void*, Spark_Subscription_Scope_TypeDef, const char*, void*))
DYNALIB_FN(10, system_cloud, spark_unsubscribe, void(void*))
DYNALIB_FN(11, system_cloud, spark_sync_time, bool(void*))
DYNALIB_FN(12, system_cloud, spark_sync_time_pending, bool(void*))
   d5e6c:	b508      	push	{r3, lr}
   d5e6e:	4b02      	ldr	r3, [pc, #8]	; (d5e78 <spark_sync_time_pending+0xc>)
   d5e70:	681b      	ldr	r3, [r3, #0]
   d5e72:	6b1b      	ldr	r3, [r3, #48]	; 0x30
   d5e74:	9301      	str	r3, [sp, #4]
   d5e76:	bd08      	pop	{r3, pc}
   d5e78:	00030244 	.word	0x00030244

000d5e7c <spark_set_random_seed_from_cloud_handler>:
DYNALIB_FN(13, system_cloud, spark_sync_time_last, system_tick_t(time32_t*, time_t*))
DYNALIB_FN(14, system_cloud, spark_set_connection_property, int(unsigned, unsigned, const void*, void*))
DYNALIB_FN(15, system_cloud, spark_set_random_seed_from_cloud_handler, int(void (*handler)(unsigned int), void*))
   d5e7c:	b508      	push	{r3, lr}
   d5e7e:	4b02      	ldr	r3, [pc, #8]	; (d5e88 <spark_set_random_seed_from_cloud_handler+0xc>)
   d5e80:	681b      	ldr	r3, [r3, #0]
   d5e82:	6bdb      	ldr	r3, [r3, #60]	; 0x3c
   d5e84:	9301      	str	r3, [sp, #4]
   d5e86:	bd08      	pop	{r3, pc}
   d5e88:	00030244 	.word	0x00030244

000d5e8c <network_connect>:
#endif

DYNALIB_BEGIN(system_net)

DYNALIB_FN(0, system_net, network_config, const void*(network_handle_t, uint32_t, void*))
DYNALIB_FN(1, system_net, network_connect, void(network_handle_t, uint32_t, uint32_t, void*))
   d5e8c:	b508      	push	{r3, lr}
   d5e8e:	4b02      	ldr	r3, [pc, #8]	; (d5e98 <network_connect+0xc>)
   d5e90:	681b      	ldr	r3, [r3, #0]
   d5e92:	685b      	ldr	r3, [r3, #4]
   d5e94:	9301      	str	r3, [sp, #4]
   d5e96:	bd08      	pop	{r3, pc}
   d5e98:	00030240 	.word	0x00030240

000d5e9c <network_connecting>:
DYNALIB_FN(2, system_net, network_connecting, bool(network_handle_t, uint32_t, void*))
   d5e9c:	b508      	push	{r3, lr}
   d5e9e:	4b02      	ldr	r3, [pc, #8]	; (d5ea8 <network_connecting+0xc>)
   d5ea0:	681b      	ldr	r3, [r3, #0]
   d5ea2:	689b      	ldr	r3, [r3, #8]
   d5ea4:	9301      	str	r3, [sp, #4]
   d5ea6:	bd08      	pop	{r3, pc}
   d5ea8:	00030240 	.word	0x00030240

000d5eac <network_disconnect>:
DYNALIB_FN(3, system_net, network_disconnect, void(network_handle_t, uint32_t, void*))
   d5eac:	b508      	push	{r3, lr}
   d5eae:	4b02      	ldr	r3, [pc, #8]	; (d5eb8 <network_disconnect+0xc>)
   d5eb0:	681b      	ldr	r3, [r3, #0]
   d5eb2:	68db      	ldr	r3, [r3, #12]
   d5eb4:	9301      	str	r3, [sp, #4]
   d5eb6:	bd08      	pop	{r3, pc}
   d5eb8:	00030240 	.word	0x00030240

000d5ebc <network_ready>:
DYNALIB_FN(4, system_net, network_ready, bool(network_handle_t, uint32_t, void*))
   d5ebc:	b508      	push	{r3, lr}
   d5ebe:	4b02      	ldr	r3, [pc, #8]	; (d5ec8 <network_ready+0xc>)
   d5ec0:	681b      	ldr	r3, [r3, #0]
   d5ec2:	691b      	ldr	r3, [r3, #16]
   d5ec4:	9301      	str	r3, [sp, #4]
   d5ec6:	bd08      	pop	{r3, pc}
   d5ec8:	00030240 	.word	0x00030240

000d5ecc <network_on>:
DYNALIB_FN(5, system_net, network_on, void(network_handle_t, uint32_t, uint32_t, void*))
   d5ecc:	b508      	push	{r3, lr}
   d5ece:	4b02      	ldr	r3, [pc, #8]	; (d5ed8 <network_on+0xc>)
   d5ed0:	681b      	ldr	r3, [r3, #0]
   d5ed2:	695b      	ldr	r3, [r3, #20]
   d5ed4:	9301      	str	r3, [sp, #4]
